:020000040800F2
:100000007007002091010008ED1E0008E51E0008A1
:10001000E91E00085D0400089D240008000000009F
:10002000000000000000000000000000F51E0008B5
:100030006D04000800000000F11E0008F91E000811
:10004000AB010008AB010008AB010008AB010008E0
:10005000AB010008AB010008AB010008AB010008D0
:10006000AB010008AB010008AB010008AB010008C0
:10007000AB010008AB010008AB010008AB010008B0
:10008000AB01000861040008AB010008AB010008E7
:10009000AB010008AB010008AB010008AB01000890
:1000A000AB010008011F0008AB010008AB0100080C
:1000B000AB010008AB010008AB010008AB01000870
:1000C000AB010008AB010008AB010008AB01000860
:1000D000AB01000891240008AB010008AB01000847
:1000E000AB010008AB010008AB01000800F002F80A
:1000F00000F03FF80AA090E8000C82448344AAF183
:100100000107DA4501D100F034F8AFF2090EBAE880
:100110000F0013F0010F18BFFB1A43F0010318473B
:1001200098250000B8250000103A24BF78C878C18F
:10013000FAD8520724BF30C830C144BF04680C60ED
:10014000704700000023002400250026103A28BF35
:1001500078C1FBD8520728BF30C148BF0B60704739
:10016000642900F08980002070471FB51FBD10B5BD
:1001700010BD00F03EF91146FFF7F7FF02F090F9CD
:1001800000F05CF903B4FFF7F2FF03BC00F060F984
:100190000948804709480047FEE7FEE7FEE7FEE71B
:1001A000FEE7FEE7FEE7FEE7FEE7FEE70448054957
:1001B000054A064B70470000FD1E0008ED000008D0
:1001C00070010020700700207003002070030020E1
:1001D0000FB41CB50C0007AA009007D04142A14201
:1001E00002D32044401E01E04FF0FF30074B7B4418
:1001F00069460190069800F0DCF80020002C01D040
:10020000009908701CBC5DF814FB0000E7010000B9
:100210002DE9F0410E460446002020622046E168A8
:10022000884730B3252805D0D4E901219047206ABA
:10023000401CF2E7E168204600278847050018D0F7
:10024000A5F14100192802D820354FF40067324645
:10025000294620462760FFF783FF40B1012804D0DC
:10026000F61D26F007060836D8E7361DD6E72846DD
:10027000DAE7206ABDE8F0812DE9F0410646002466
:1002800010687529314616A510D0AFF300800028FC
:1002900002DA404213A507E031688A0701D512A5AA
:1002A00002E0490704D511A5012401E0AFF3008065
:1002B00000210A2206F1240709E0B0FBF2FCB0FBA2
:1002C000F2F302FB1C00303078541846491C002819
:1002D000F3D123462A463046BDE8F04100F00BB882
:1002E000000000002D0000002B0000002000000096
:1002F0007047704770472DE9F0470D469946924682
:10030000044600F124080168880604D5E06921F05C
:100310001001216000E00120A84201DD471B00E040
:100320000027A1697A1902EB0900081AA061207858
:10033000C00602D42046AFF30080002608E0D4E9CE
:1003400001211AF806009047206A401C761C2062A2
:100350004E45F4DB2078C0060AD52046AFF3008076
:1003600006E0D4E9012130209047206A401C206239
:10037000381EA7F10107F4DC07E0D4E9012118F8E1
:1003800005009047206A401C2062281EA5F1010547
:10039000F3DC2046AFF300802078000602D502206F
:1003A000BDE8F0870120FBE701694A1C026108787B
:1003B000704700B58FB0CDE90131002105910549A5
:1003C0007944CDE9031011466846FFF721FF0FB0CD
:1003D00000BD0000E5FFFFFFD1E900239A4202D2F1
:1003E000531C0B60107070470048704710000020CD
:1003F00070477546FFF7F8FFAE460500694653465D
:1004000020F00700854618B020B5FFF7CFFEBDE805
:1004100020404FF000064FF000074FF000084FF06B
:10042000000BAC46ACE8C009ACE8C009ACE8C009B8
:10043000ACE8C00921F007018D46704710B50446AD
:10044000AFF300802046BDE81040FFF79BBE0000E0
:1004500001491820ABBEFEE726000200FEE70000BF
:1004600040F2DC00C2F2000000F0F8B97047000072
:10047000EFF3108072B600BFFEE7000010B541F246
:100480001804C4F202044FF0010CD4F800E00CFA96
:1004900000F343EA0E0323602368042843F00103BA
:1004A000236040F20403C4F201031C6844F00074AA
:1004B0001C6017D0032831D0022840F03081072972
:1004C0003ED8002A4FEA810000F09680022A00F010
:1004D0009980012A40F02381C0B20F2140F600022A
:1004E00080E000BF072949D8002A4FEA810000F0C8
:1004F0008F80022A00F09C80012A40F0108140F693
:100500000442C4F20102C0B20F21D2F8FC33814090
:1005100023EA0101C2F8FC13082197E007294DD80E
:10052000002A4FEA810000F09980022A00F09C80A6
:10053000012A40F0F480C0B20F2140F6000231E001
:100540000F2900F2EC806FF01F00002A00EB810001
:1005500000F09A80022A00F0A580012A40F0DF8096
:1005600040F60002C4F20102C0B20F21536881407C
:1005700023EA010151600821A0E000BF0F2900F229
:10058000CE806FF01F00002A00EB810000F09C80FD
:10059000022A00F0AF80012A18BF10BDC0B20F219F
:1005A00040F60442C4F20102D2F80034814023EA4A
:1005B0000101C2F80014082194E000BF0F2900F2E5
:1005C000AE806FF01F00002A00EB810000F0A880D1
:1005D000022A00F0B380012A40F0A180C0B20F21AE
:1005E00040F60442C4F201021368814023EA01018B
:1005F00011600821AEE000BFC0B20F2140F600023A
:1006000092E000BFC0B20F2140F600029AE000BFA6
:1006100040F60442C4F20102C0B20F21D2F8FC330A
:10062000814023EA0101C2F8FC1301210EE000BF62
:1006300040F60442C4F20102C0B20F21D2F8FC33EA
:10064000814023EA0101C2F8FC130A21D2F8FC33ED
:1006500001FA00F01843C2F8FC0310BDC0B20F212C
:1006600040F6000234E000BF40F60002C4F201028E
:10067000C0B20F21D2F80034814023EA0101C2F850
:1006800000140A212EE000BF40F60002C4F201026D
:10069000C0B20F215368814023EA0101516001215A
:1006A0000CE000BF40F60002C4F20102C0B20F210C
:1006B0005368814023EA010151600A21536801FA1D
:1006C00000F01843506010BDC0B20F2140F6044244
:1006D000C4F20102D2F80034814023EA0101C2F8D9
:1006E00000140121D2F8003401FA00F01843C2F8D6
:1006F000000410BD40F60442C4F20102C0B20F2152
:10070000D2F80034814023EA0101C2F800140A2122
:10071000D2F8003401FA00F01843C2F8000410BD0A
:10072000C0B20F2140F60442C4F2010213688140B6
:1007300023EA0101116001210CE000BFC0B20F21CA
:1007400040F60442C4F201021368814023EA010129
:1007500011600A21136801FA00F01843106010BDFF
:10076000014690F82100022816D10868D1E90FC38C
:10077000026822F00E020260026822F001020260AA
:10078000012000FA03F2CCF8042081F821000020B7
:10079000002281F820207047042088630120002275
:1007A00081F820207047000080B590F821100229C0
:1007B00024D10268116821F00E0111602F21136805
:1007C000C4F202018A4240F20401C4F2020123F0A1
:1007D0000103136016DD3023C4F202039A421DD0D8
:1007E0004423C4F202039A421CD05823C4F20203E9
:1007F0009A421DD14FF4803322E000BF042181636F
:10080000012080BD0823C4F202039A420ED01C23AB
:10081000C4F202039A420BD1102311E04FF480730B
:100820000EE000BF4FF480530AE000BF012307E051
:1008300001F1680C4FF08073624508BF4FF48013DC
:100840000B60012180F82110426B002180F82010FC
:100850000AB190470021084680BD000010B5D0E9DC
:100860000FCE0168DCF800300A6823FA0EF35C074B
:100870002AD512F0040427D00A68920603D40A6825
:1008800022F004020A602F22C4F20202914240F2D6
:100890000402C4F202025BDD3023C4F20203994277
:1008A00072D04423C4F20203994273D05823C4F295
:1008B0000203994240F07A804FF480231360C16AAA
:1008C000002940F098806FE09C0727D512F00204C1
:1008D00024D00A68920606D40A6822F00A020A6046
:1008E000012280F821202F22C4F20202914240F21C
:1008F0000402C4F202023BDD3023C4F20203994237
:1009000060D04423C4F2020399425FD05823C4F25A
:100910000203994260D14FF4003365E01B0743D5D1
:1009200012F0080208BF10BD0A6822F00E020A6029
:10093000012101FA0EF2CCF80420816380F8211025
:10094000016B0022002980F8202054D12CE000BF48
:100950000823C4F20203994222D01C23C4F20203EA
:10096000994223D140231360C16A002943D11BE07F
:100970000823C4F2020399422CD01C23C4F20203C0
:10098000994229D120232FE04FF480631360C16A7C
:1009900089BB09E04FF480431360C16A59BB03E08F
:1009A00004231360C16A31BB10BD00BF02F16804AB
:1009B0004FF08063A14208BF4FF480031360C16A07
:1009C000C9B9F1E74FF400730EE000BF4FF40053D4
:1009D0000AE000BF022307E002F168044FF0007351
:1009E000A14208BF4FF400131360816A002200295E
:1009F00080F82020D8D0BDE81040084701460028E4
:100A00004FF0010008BF70472DE9F043D1F800C056
:100A10004FF6F873CBF6FD734CF6CD426344CCF63B
:100A2000CC42A3FB02236FF0030707EA93030027DE
:100A3000C4F2020701F10C09C1E90F730223D1E9E5
:100A4000012E99E87002D1F81C8081F82130DCF881
:100A5000003043F6F077BB431A4342EA0E022243CA
:100A60002A43324342EA090242EA0802CCF8002053
:100A700000228A6381F8210081F820200020BDE84F
:100A8000F0437047B0B5044600F01EF9054640F249
:100A90000000C2F200000078611C18BF044400BFCF
:100AA00000F012F9401BA042FAD3B0BD2DE9F04F7F
:100AB00082B00E68002E00F0038141F20042C4F2C1
:100AC0000102042340F2004E904208BF03234FF678
:100AD000FF7CC4F2010E009300240123C1F2100C2C
:100AE0004FF0000A4FF0000949E000BF012704F071
:100AF0000C030F229A402BEA020207FA03F34FEA93
:100B00009A051A4346F82520D1F804B040F20C4566
:100B10005FEACB22DEF8082054BF22EA080242EA4C
:100B20000802C4F20105CEF808202A685FEA8B2388
:100B300054BF22EA080242EA08022A605FEA8B33C5
:100B4000DEF8042054BF22EA080242EA08025FEA03
:100B5000CB33CEF80420DEF800204FF0010354BF61
:100B600022EA080242EA0802CEF800200E680AF1E2
:100B7000010A36FA0AF204F1040400F0A18003FA33
:100B80000AF816EA080FF1D04E68664512DC122EFC
:100B900056D8DFE806F0350B45495555555555559E
:100BA000555555555555554D510000BFD1F80C9030
:100BB00046E000BF4FF6FF72C1F2210296420FDC01
:100BC0000022C1F2110296421AD00022C1F2120292
:100BD000964215D00022C1F22102964210D02FE099
:100BE0000022C1F2220296420AD00022C1F2310252
:100BF000964205D00022C1F23202964220D100BFB7
:100C00008A684AB1012A14BFC0F81480C0F8108065
:100C10004FF0080914E000BF4FF0040910E000BFD6
:100C2000CA6802F108090BE04FF0000908E000BFB4
:100C3000CA6802F1040903E0CA6802F10C0900BFA6
:100C400022460646BAF1080F24BF203A0436376818
:100C50000F25954027EA050509FA02F22A4332607A
:100C6000CA79D2067FF582AF41F21803C4F20203BB
:100C70001A68AEF57E7642F001021A601A6802F038
:100C800001020192019A2AF0030256F802B040F6DE
:100C90000002C4F20102904210D040F60042C4F2B9
:100CA000010290423FF422AF41F20002C4F201027D
:100CB000009F904208BF022719E700BF002716E7F0
:100CC00002B0BDE8F08F000040F26810C2F20000F0
:100CD0000068704740F2000040F26811C2F2000064
:100CE000C2F2000100780A681044086070470000F2
:100CF00080B542F20000C4F20200016841F0100128
:100D00000160032000F08EF80F2000F005F800F0DD
:100D100027F8002080BD000070B540F20006C2F246
:100D2000000640F208013278C2F200014FF47A73F3
:100D30000968B3FBF2F20446B1FBF2F1084600F099
:100D400063FB0F2C4FF0010508D838B94FF0FF3086
:100D500021460022002500F039F87460284670BD55
:100D600082B041F21800C4F202000168022241F090
:100D700001010160016801F00101019101994168DF
:100D800041F080514160406800F080500090009830
:100D90000420C4F20100016862F31A61016002B02C
:100DA00070470000002848BF7047C1B200F01F0024
:100DB000012202FA00F04EF20012CEF2000242EAE4
:100DC000D10121F0030108607047000010B54EF614
:100DD0000C5CCEF2000CDCF80030C3F3022E8EF077
:100DE0000704042C28BF0424BEF103034FF0FF3E88
:100DF0000EFA04F438BF0023A14399400EFA03F31E
:100E00009A43114300F00F0200F160430901043AD4
:100E100003F564436244002848BF02F10C031970D3
:100E200010BD00004EF60C51CEF200010A684FF6DC
:100E3000FF031A4060F30A2242F0806040F0FD7028
:100E4000086070472DE9F04381B0002800F08580EC
:100E500042F20008C4F202080446D8F800000D4629
:100E600000F0070088420CD2D8F8000020F00700FC
:100E70002843C8F80000D8F8000000F00700A84296
:100E80006BD1206841F204098107C4F2020917D529
:100E9000410705D5D9F8001041F4E061C9F8001008
:100EA000010705D5D9F8001041F46051C9F80010C8
:100EB000D9F80010A26821F0F0011143C9F8001020
:100EC000C00741D1D8F8000000F00700A8420CD9B3
:100ED000D8F8000020F007002843C8F80000D8F830
:100EE000000000F00700A84237D12068410707D56D
:100EF000D9F80010E26821F4E0611143C9F800104C
:100F0000000708D5D9F80000216920F4605040EAB4
:100F1000C100C9F80000D9F8002002F00C00082830
:100F200041F20020C0F27A0050D142F2A863C2F32D
:100F30008341C0F60003595CD2033BD440F6001055
:100F4000C0F23D00484341E0606802280AD0012811
:100F50002AD159F8041C890308D4012001B0BDE846
:100F6000F08300BF59F8041C8901F6D5D9F80010A8
:100F700021F003010843C9F80000FFF7A5FE06466B
:100F800041F28837D9F80000616800F00C00B0EB3E
:100F9000810F97D0FFF798FE801BB842F2D903204B
:100FA00001B0BDE8F08300BF59F8041C8907D4D50F
:100FB000DCE700BFD9F8002042F29663C2F340425A
:100FC000C0F600039A5C4843B0FBF2F0D9F8001079
:100FD00042F27E62C1F30311C0F60002515C40F29E
:100FE000080220FA01F140F20400C2F20000006899
:100FF000C2F200021160FFF78FFE002001B0BDE8D1
:10100000F083000040F2080041F20401C2F2000047
:10101000C4F202010068096842F28E62C1F3022143
:10102000C0F60002515CC8407047000040F2080062
:1010300041F20401C2F20000C4F202010068096832
:1010400042F28E62C1F3C221C0F60002515CC84078
:10105000704700002DE9F04182B0002868D00446B6
:10106000007841F20006C007C4F2020625D070687D
:1010700000F00C0004281BD0706800F00C00082859
:1010800002D17068C00313D46068002800F0688142
:10109000B0F5A02F00F07C81B0F5803F00F07C819E
:1010A000306820F480303060306820F4802076E1B1
:1010B0003068800301D56068D0B32078800718D5E8
:1010C000706810F00C0F07D0706800F00C00082852
:1010D0006ED17068C0036BD43068800702D5206978
:1010E000012825D13068616920F0F80040EAC1008C
:1010F0003060207800071FD42078400732D4E5699B
:1011000095B1706800F00C00082840F08F80012D28
:101110000ED07068216A00F480328A4208D1616A78
:1011200000F47010884203D1002002B0BDE8F081C5
:10113000012002B0BDE8F081A069002862D0002043
:10114000C4F242200121C0F88014FFF7BDFD05461E
:10115000706A800700F18C80FFF7B6FD401B022803
:10116000F6D92AE1F06910F0805808D1F06940F012
:101170008050F061F06900F080500090009847F2D4
:101180000007C4F200073868C00529D4386840F465
:1011900080703860FFF798FD054600BF3868C005CD
:1011A0001ED4FFF791FD401B6428F7D905E100BF6D
:1011B0002069002840F20000C4F2422000F0828042
:1011C00001210160FFF780FD054600BF3068800700
:1011D0003FF588AFFFF778FD401B0228F6D9ECE019
:1011E000E068002800F08080052800F09780012842
:1011F00000F09880306A20F001003062306A20F000
:10120000040092E00020C4F242200021C0F88014C3
:10121000FFF75AFD054600BF706A80077FF56CAF87
:10122000FFF752FD401B0228F6D9C6E00027C4F2A2
:10123000422700203866FFF747FD022D05460BD1F7
:101240003068800140F1BE80FFF73EFD401B022860
:101250004FF00300F4D968E7306880017FF564AF90
:10126000FFF732FD401B02284FF00300F4D95CE782
:1012700040F20800C2F20000006844F6D351C1F207
:101280006201A0FB0101480A019000BF00BF019864
:10129000411E002801913FF42FAF00BF0198411E6D
:1012A000002801913FF428AF00BF0198411E00289B
:1012B00001913FF421AF00BF0198411E0028019128
:1012C000E4D119E700210160FFF7FEFC054600BFED
:1012D000306880077FF50DAFFFF7F6FC401B022852
:1012E0004FF00300F4D920E7306A20F001003062AB
:1012F000306A20F004003062FFF7E6FC054641F258
:10130000883700BF306A800720D5FFF7DDFC401B1F
:10131000B8424FF00300F5D907E700BF306A40F04C
:1013200004003062306A40F001003062FFF7CCFC0C
:10133000054641F2883700BF306A800706D4FFF7C0
:10134000C3FC401BB842F7D937E000BFB8F1000F2B
:101350007FF4D5AEF06920F08050F061CFE600BF99
:10136000306820F480303060306820F480203060B5
:10137000FFF7AAFC054600BF306880037FF59DAEED
:10138000FFF7A2FC401B64284FF00300F4D9CCE621
:10139000306840F480203060306840F48030306045
:1013A000FFF792FC054600BF306880033FF585AE2D
:1013B000FFF78AFC401B6428F6D9032002B0BDE881
:1013C000F08100BF206AB0F5803F05D17168A26846
:1013D00021F40031114371607168626A21F4741163
:1013E00011430843706001203866FFF76DFC044626
:1013F000306880013FF598AEFFF766FC001B0228BD
:101400004FF00300F4D990E6411E0020B0EB116FBD
:101410001CBF012070474EF21002CEF20002516054
:101420004EF62351CEF20001F0230B70072190609D
:10143000116070477047000070470000B0B582B07F
:10144000044600680168C368426901F02F05202D39
:1014500003F0200506D12DB1204602B0BDE8B04012
:1014600000F096BF5FEA017C1EBF02F0010E03F49C
:10147000907212EB0E0253D1226B012A05D111F0AA
:10148000100218BF13F0100236D10A0622D513F04D
:1014900080021FD094F8411021293FD1A168B1F5F5
:1014A000805F03D12169002900F07082216A4A1C03
:1014B000226209784160E18C01390A04E1842DD16E
:1014C000C16821F08001C160C16841F04001C16084
:1014D00002B0B0BD490621D513F040011ED0C1684D
:1014E00021F04001C1602021204684F8411002B063
:1014F000BDE8B04000F0ECBC002101910168019111
:101500004168019101994069400613D4A08DE18D95
:10151000E28D002A18BF884240F0BA8102B0B0BD07
:10152000CA0718BF13F4807240F0B6804A0700F172
:10153000B980BEE0E06B016849688AB2002AEDD04C
:10154000A38D9A42EAD2E1858069202800F09C8030
:10155000206850E8030F216820F4807041E80302FE
:10156000DAB1206850E8030F216820F4807041E868
:10157000030292B1206850E8030F216820F48070C4
:1015800041E803024AB1206850E8030F216820F4C3
:10159000807041E80302002ADAD1206850E8050F84
:1015A000216820F0010041E80502DAB1206850E826
:1015B000050F216820F0010041E8050292B1206882
:1015C00050E8050F216820F0010041E805024AB10A
:1015D000206850E8050F216820F0010041E805026D
:1015E000002ADAD1206850E8050F216820F0400079
:1015F00041E80502DAB1206850E8050F216820F0C3
:10160000400041E8050292B1206850E8050F2168CA
:1016100020F0400041E805024AB1206850E8050F7B
:10162000216820F0400041E80502002ADAD120209C
:1016300084F8420000202063206850E8030F2168EE
:1016400020F0100041E80302DAB1206850E8030FEF
:10165000216820F0100041E8030292B1206850E8B0
:10166000030F216820F0100041E803024AB120680E
:1016700050E8030F216820F0100041E80302002A1F
:10168000DAD1E06BFFF76CF802206063A08DE18D8A
:10169000401A81B2204674E1626C42F00102626439
:1016A0004A0706D5BEF1000F03D0626C42F0020279
:1016B00062648A0706D5BEF1000F03D0626C42F067
:1016C00004026264BCF1000F09D545EA0E02B2FAC9
:1016D00082F2520903D1626C42F008026264626CC9
:1016E000002A3FF41BAF11F0200118BF002D03D0DA
:1016F000204600F04DFE20684069616C00F040001B
:1017000001F00801401800F0B58000BF206850E8E3
:10171000030F216820F4907041E80302BAB32068F7
:1017200050E8030F216820F4907041E8030272B37F
:10173000206850E8030F216820F4907041E803020C
:101740002AB3206850E8030F216820F4907041E824
:101750000302002ADAD11AE0206850E8050F216858
:1017600020F0010041E80502DAB1206850E8050FD9
:10177000216820F0010041E8050292B1206850E89C
:10178000050F216820F0010041E805024AB12068F8
:1017900050E8050F216820F0010041E80502002A09
:1017A000DAD1206B012824D1206850E8030F21688A
:1017B00020F0100041E80302DAB1206850E8030F7E
:1017C000216820F0100041E8030292B1206850E83F
:1017D000030F216820F0100041E803024AB120689D
:1017E00050E8030F216820F0100041E80302002AAE
:1017F000DAD1202084F8420000202063206840696C
:1018000040063FD5206850E8050F216820F04000D1
:1018100041E80502DAB1206850E8050F216820F0A0
:10182000400041E8050292B1206850E8050F2168A8
:1018300020F0400041E805024AB1206850E8050F59
:10184000216820F0400041E80502002ADAD1E06B6F
:10185000C0B142F28531C0F600014163FEF7A4FF3A
:1018600000283FF45BAEE06B416B02B0BDE8B040D6
:10187000084700BF2046FFF7DFFD0020606402B08C
:10188000B0BD00BF204602B0BDE8B040FFF7D4BDF8
:10189000401A216851E8031F226821F4907142E840
:1018A0000313DBB1216851E8031F226821F4907112
:1018B00042E8031393B1216851E8031F226821F421
:1018C000907142E803134BB1216851E8031F22686D
:1018D00021F4907142E80313002BDAD1216851E81A
:1018E000051F226821F0010142E80513DBB12168E0
:1018F00051E8051F226821F0010142E8051393B168
:10190000216851E8051F226821F0010142E8051312
:101910004BB1216851E8051F226821F0010142E81E
:101920000513002BDAD1202184F842100021216315
:10193000216851E8031F226821F0100142E80313D7
:10194000DBB1216851E8031F226821F0100142E851
:10195000031393B1216851E8031F226821F010019D
:1019600042E803134BB1216851E8031F226821F0BC
:10197000100142E80313002BDAD1022281B2204683
:10198000626302B0BDE8B040FFF754BD216A31F890
:10199000022B6FF35F22426021628CE5002804BFB6
:1019A0000120704710B5044690F8410028B9002086
:1019B00084F84000204600F063F8242084F84100B9
:1019C0002068D4E90212C36823F40053C36003699A
:1019D00023F440531A430261D4E904231143C2683B
:1019E000194341F20C639A431143C1604169A269F2
:1019F00021F44071114343F60002C4F20102904207
:101A0000416103D0FFF7FEFA02E000BFFFF70EFBD3
:101A10006268192148439100B0FBF1F048F21F5170
:101A2000C5F2EB11A0FB01235A094FF69C73C0F6D7
:101A3000FF7302FB0300322303EB0010A0FB010144
:101A4000F02303EA5113206803EB0212C1F34311A0
:101A500011448160016921F490410161416921F0E3
:101A60002A014161C16841F40051C1600020202178
:101A7000606484F8411084F84210606310BD000077
:101A8000F0B585B00446006844F20041C4F200019C
:101A9000002788420497CDE90277019740D043F6AA
:101AA0000001C4F20101884240F0818041F2180037
:101AB000C4F20200016840F6000441F48041016074
:101AC0000168C4F2010401F48041009100990168A9
:101AD00001AD41F0040101600068294600F00400F6
:101AE000009000984FF400700190022002900320B3
:101AF00004902046FEF7DAFF4FF48060019000204A
:101B0000CDE9020020462946FEF7D0FF252000211E
:101B10000022FFF75BF92520FFF744F905B0F0BD7F
:101B200041F21800C4F20200416840F6000541F499
:101B3000003141604168C4F2010501F400310091B7
:101B40000099016801AE41F004010160006831466E
:101B500000F00400009000980620019002200290FE
:101B6000032004902846FEF7A1FF0820CDE90107D5
:101B7000284631460397FEF799FF40F2DC058020A6
:101B8000C2F20005C4F2020010218022202385E861
:101B900083002846C5E90327C5E90573EF61FEF711
:101BA0002DFF002818BFFEF763FCA5636C6205B02B
:101BB000F0BD000090F84230202B1CBF022070477F
:101BC00000294FF0010318BF002A01D118467047C1
:101BD00000230363816222218285C285436480F8E9
:101BE00042100169006819B1C16841F48071C16097
:101BF0004169002341F001014161C16841F02001C8
:101C0000C16018467047000040F2201040F20C01FD
:101C1000C2F20000C2F200010122FFF7CBBF0000B8
:101C20002DE9F04381B0044690F84100202840F0AF
:101C3000B180884600294FF0010000F0D68016469A
:101C4000002A00F0D2800020606421201D4684F824
:101C50004100FFF739F8A684E684A1680646B1F58D
:101C6000805F03D12069002800F0988047464FF03C
:101C70000008E18C2068002900F0968005F1010938
:101C80000BE000BF47B317F8011B4160E18C01393D
:101C9000E184E18C002900F0878001680906F1D415
:101CA000B9F1000F0AD0EDB1FFF70EF8801BA84282
:101CB00018D8206801680906F6D5E3E70168090627
:101CC000E0D4016809065CBF01685FEA0161D9D40C
:101CD00001680906F2D5D5E738F8021B00276FF333
:101CE0005F21D2E7206850E8030F216820F4D0700C
:101CF00041E80302BAB3206850E8030F216820F4DA
:101D0000D07041E8030272B3206850E8030F2168E5
:101D100020F4D07041E803022AB3206850E8030F92
:101D2000216820F4D07041E80302002ADAD11AE0D9
:101D3000206850E8050F216820F0010041E8050205
:101D4000DAB1206850E8050F216820F0010041E871
:101D5000050292B1206850E8050F216820F00100CB
:101D600041E805024AB1206850E8050F216820F0DB
:101D7000010041E80502002ADAD1202084F8410060
:101D800084F84200002084F84000032001B0BDE840
:101D9000F08300BF022001B0BDE8F0830027E18C92
:101DA000206800297FF46AAF0168490619D4FDB1A3
:101DB000691C0DD10168490613D4016849065CBF4E
:101DC00001685FEA41610CD401684906F2D508E078
:101DD000FEF77AFF801BA8420AD8206800684006F8
:101DE000F6D5202084F84100002001B0BDE8F08342
:101DF000206850E8030F216820F4D07041E8030206
:101E0000002A3ED0206850E8030F216820F4D070EB
:101E100041E80302AAB3206850E8030F216820F4C8
:101E2000D07041E8030262B3206850E8030F2168D4
:101E300020F4D07041E80302002AD9D121E000BF8C
:101E4000206850E8050F216820F0010041E80502F4
:101E5000002A3FF492AF206850E8050F216820F077
:101E6000010041E80502002A3FF487AF206850E8EE
:101E7000050F216820F0010041E80502002A3FF427
:101E80007CAF206850E8050F216820F0010041E890
:101E90000502002AD4D170E7034690F841002028BB
:101EA0001CBF0220704700294FF0010018BF002A14
:101EB00000D170471962002021219A84DA84586485
:101EC00083F841101968CA6842F08002CA607047FE
:101ED00040F27000C2F20000016920300422FFF7D6
:101EE000DBBF0000FEE70000FEE70000FEE70000A9
:101EF0007047000070470000FEF7ECBE704700001E
:101F0000F0B581B042F61047C4F201073868C00747
:101F100031D040F27006C2F20006308945F6294100
:101F2000013041438AB2D20842EA413189B2C9083C
:101F30002829308122D980B2B0F5C87F17D340F26A
:101F40000D00C2F20000F388057806F1140417A210
:101F5000204609210095FEF73BF906F120002146B5
:101F600009224FF47A73FFF75BFE00203081386856
:101F700020F00100386001B0F0BD00BFF168CA1761
:101F800001EB9271891072888BB29342318001D239
:101F9000B28803E08A1A02EB8202B2805200F28019
:101FA000718080B2B0F5C87FC9D2E0E725642025F2
:101FB000640A000041F21C01C4F202010A68102008
:101FC00042F00102C4F200000A6042F20F71C161E6
:101FD000472181614FF080410A6842F001020A60A6
:101FE00004E000BF0168C90718BF70470168C9074E
:101FF00006D10168C90704BF01685FEAC171F1D069
:102000007047000040F2FF71C4F20001884211DC09
:10201000B0F1804F26D040F20041C4F20001884266
:1020200032D141F21C00C4F20200016841F0020109
:102030000160704740F60001C4F2000188421BD0E5
:1020400042F60041C4F20101884218BF704741F2D4
:102050001C00C4F2020050F8041C41F4006140F876
:10206000041C704741F21C00C4F20200016841F0F8
:1020700001010160704700BF41F21C00C4F2020080
:10208000016841F00401016070470000016A41F0FD
:1020900001010162016A41F010010162016841F031
:1020A000010101607047000040F2FF72C4F20002BB
:1020B000904211DCB0F1804F26D040F20042C4F2D1
:1020C0000002904232D141F21C02C4F202021368B3
:1020D00043F00203136029E040F60002C4F200025C
:1020E00090421BD042F60042C4F2010290421DD140
:1020F00041F21C02C4F2020252F8043C43F40063B1
:1021000042F8043C12E000BF41F21C02C4F2020299
:10211000136843F00103136008E000BF41F21C02A2
:10212000C4F20202136843F004031360826822F0D1
:1021300007028260826811438160016A21F0020116
:102140000162016A0162016A21F020010162016AF3
:102150000162816921F003018161816941F001011E
:102160008161816921F440718161816941F48071EB
:102170008161704780B540F2FF7CC4F2000C60457D
:1021800040F2D80CC2F2000CCCF8000012DCB0F126
:10219000804F27D040F2004CC4F2000C604535D18E
:1021A00041F21C0CC4F2020CDCF800E04EF0020E0E
:1021B0002AE000BF40F6000CC4F2000C60451BD0C2
:1021C00042F6004CC4F2010C60451FD141F21C0CD8
:1021D000C4F2020C5CF804EC4EF4006E4CF804EC13
:1021E00014E000BF41F21C0CC4F2020CDCF800E069
:1021F0004EF0010E08E000BF41F21C0CC4F2020CCC
:10220000DCF800E04EF0040ECCF800E0A1F1010C87
:10221000BCF1030F00F26E80DDF808E0DFE80CF09F
:10222000020A121A511E8162591EC162C0F834E0BE
:1022300076E000BF511E8162591EC162C0F838E0CD
:102240006AE000BF511E8162591EC162C0F83CE0C5
:102250005CE000BF511E8162591EC162C0F840E0BF
:1022600050E000BF6FF4407C136803EA0C03136076
:10227000136813608268C9B222F007028260826824
:1022800001390329826088BF80BDDFE801F0030BBC
:10229000131F00BF016A21F002010162016A01629D
:1022A00018300EE0016A21F020010162016A01622A
:1022B000183012E0016A21F400710162016A0162C2
:1022C0001C3004216FF070020AE000BF016A21F4A3
:1022D00000510162016A01621C300C216FF4E0427E
:1022E00003681A4002600622036802FA01F11943EA
:1022F000016080BDCAB2013A032ABBD8DFE802F010
:10230000100C060200F11C020421ABE700F11C02D4
:1023100003216FF0030CA7E700F118020221A1E7E7
:1023200000F1180201216FF0030C9DE740F2D80282
:10233000C2F20002126801395369C9B243F00103C5
:102340000329536108D842F29862C0F6000252F89D
:102350002110026A11430162016841F0010101602C
:1023600070470000013A032A88BF7047DFE802F097
:102370000208040641637047C163704701647047F7
:1023800081637047406A0021C185C184FFF754B85A
:1023900081B090F84210222921D183680246B3F51A
:1023A000805F09D152F8281F52F8183C002B63D0E7
:1023B00003685B680AE000BF52F8281F13B903697D
:1023C000002BF5D003685B6803F07F030B70116886
:1023D00001311160C18D01390A04C18502D001B0FB
:1023E000704700BF0168CA6822F02002CA60CA684C
:1023F00022F48072CA604A6922F001024A612021F7
:1024000080F8421000214163026B012A3CD1016334
:10241000016851E8031F026821F0100142E803132C
:10242000DBB1016851E8031F026821F0100142E8A6
:10243000031393B1016851E8031F026821F01001F2
:1024400042E803134BB1016851E8031F026821F011
:10245000100142E80313002BDAD101680A68D206A2
:1024600006D5002200920A680092496800910099FE
:10247000818D01B0FEF7DEBF026852686FF35F2204
:1024800021F8022B8162A5E701B0FFF7BDBB000078
:1024900040F22010C2F20000FEF7D0BFFEE70000BD
:1024A00090B0FEF725FC00240120CDE90B44CDE9D6
:1024B000094406900A904FF4E0104FF48031022551
:1024C0000F9006A8CDE90714CDE90D51FEF7C2FD26
:1024D00020B1EFF3108072B6FEE700BF0F20CDE908
:1024E00001054FF48060CDE9040401A802210394A2
:1024F000FEF7A8FC20B1EFF3108072B6FEE700BF34
:1025000041F21800C4F202000168002241F02001EB
:1025100001600168002401F020010691069901681C
:1025200041F004010160016801F00401069106997F
:1025300050F8041C41F0010140F8041C50F8040C50
:10254000002100F00100069006981120FEF73EFCE5
:102550001120FEF727FC40F27006C2F2000644F29A
:102560000041C4F20001304640F8201F4FF41657D6
:10257000082100F114034FF48072C0E90174C0E92E
:10258000034416C3FFF70AFA20B1EFF3108072B6C6
:10259000FEE700BF42F60045C4F2010540F22010FC
:1025A00005F54061C2F200000C22C0E90017C0E945
:1025B0000244C0E90442C0E90644FFF7EFF928B13C
:1025C000EFF3108072B600BFFEE700BF40F2004498
:1025D000C4F20004FFF7EEFC2846FFF713FD472086
:1025E000A86240F2E730E862E8684FF0007140F01E
:1025F0000100E8604EF20010CEF2000001604EF2E1
:102600001940CEF20000202101702868002140F01E
:102610000100286003200222FDF730FF50272046EA
:102620000321482264230097FFF7A4FD20460321DD
:10263000FFF77CFE04F5806528460321FFF734FD93
:102640002846FFF723FD40F20C0540F22010C2F2AD
:102650000005C2F2000029460122FFF7ABFA40F65E
:102660002407C4F2000700BF38682978F0602046CC
:102670000322FFF777FE6420FEF704FAF4E7000078
:102680000000000000000102030406070809000022
:10269000000001020304010201000000100000001C
:1026A00000010000001000000203040506070809ED
:1026B0000A0B0C0D0E0F1010D82600080000002089
:1026C0001000000028010008E82600081000002083
:1026D0006007000044010008010000001000000035
:0826E0000024F4004119000080
:04000005080000ED02
:00000001FF
