:020000040800F2
:10000000680600206D0100087501000877010008EE
:10001000790100087B0100087D0100080000000054
:100020000000000000000000000000007F01000848
:10003000810100080000000083010008850100081C
:100040008701000887010008870100088701000870
:10005000870100088701000887010008590200088D
:100060008701000887010008870100088701000850
:100070008701000887010008870100088701000840
:100080008701000887010008870100088701000830
:10009000870100088701000887010008890200081D
:1000A0008701000887010008870100088701000810
:1000B0008701000887010008870100088701000800
:1000C00087010008870100088701000887010008F0
:1000D00087010008870100088701000887010008E0
:1000E00029020008870100088701000800F002F8D3
:1000F00000F02CF80AA090E8000C82448344AAF196
:100100000107DA4501D100F021F8AFF2090EBAE893
:100110000F0013F0010F18BFFB1A43F0010318473B
:10012000601100007011000000230024002500264B
:10013000103A28BF78C1FBD8520728BF30C148BF4A
:100140000B6070471FB51FBD10B510BD00F031F832
:100150001146FFF7F7FF01F06BF800F04FF803B41A
:10016000FFF7F2FF03BC00F057F800000948804792
:1001700009480047FEE7FEE7FEE7FEE7FEE7FEE789
:10018000FEE7FEE7FEE7FEE704480549054A064BA1
:10019000704700000D110008ED0000086800002005
:1001A000680600206802002068020020704770473F
:1001B0007047754600F02CF8AE4605006946534678
:1001C00020F00700854618B020B5FFF7DDFFBDE839
:1001D00020404FF000064FF000074FF000084FF0AE
:1001E000000BAC46ACE8C009ACE8C009ACE8C009FB
:1001F000ACE8C00921F007018D46704710B50446F0
:10020000AFF300802046BDE81040FFF7A8BF000014
:10021000004870470000002001491820ABBEFEE7EF
:10022000260002007047000080B540F21440C4F27E
:1002300001000068000400280DD5FFE704200D210F
:1002400000F02AFE40F21441C4F20101086840F4B3
:1002500000400860FFE780BD80B540F21440C4F262
:1002600001000068800700280DD5FFE704200D215C
:1002700000F012FE40F21441C4F20101086840F09F
:1002800002000860FFE780BD80B540F21440C4F270
:1002900001000068800500280DD5FFE704200D212E
:1002A00000F0FAFD40F21441C4F20101086840F484
:1002B00000700860FFE780BD81B08DF803009DF8F5
:1002C0000310012000FA01F241F21801C4F2020108
:1002D00008681043086001B07047000080B5A4B002
:1002E0008DF88F008DF88E108DF88D208DF88C3064
:1002F0009DF88E10012000FA01F240F20041C4F294
:1003000001010868104308609DF88D00C0B9FFE73F
:100310009DF88E10012000FA01F340F20C42C4F265
:1003200001021168194311609DF88E1000FA01F264
:1003300040F20841C4F201010868904308601DE0E2
:100340009DF88D00012818D1FFE79DF88E1001203F
:1003500000FA01F340F20842C4F2010211681943A5
:1003600011609DF88E1000FA01F240F20C41C4F2C7
:100370000101086890430860FFE7FFE79DF88E00E1
:1003800001461E910F2800F200821E99DFE811F04D
:1003900010001000100010008900890089008900F9
:1003A000050105010501050181018101810181012D
:1003B0009DF88E00800022909DF88F00022821D1A8
:1003C000FFE72299012000FA01F30821C4F201019C
:1003D0001D910A689A430A60229A013200FA02F3D8
:1003E0000A689A430A60229A023200FA02F30A6803
:1003F0009A430A60229A033200FA02F20868904394
:1004000008604DE09DF88F00032821D1FFE7229975
:10041000012000FA01F30821C4F201011C910A68CD
:100420001A430A60229A013200FA02F30A689A43D8
:100430000A60229A023200FA02F30A689A430A60BA
:10044000229A033200FA02F208689043086026E01C
:100450009DF88F00042821D1FFE72299012000FA9E
:1004600001F30821C4F201011B910A689A430A6052
:10047000229A013200FA02F30A681A430A60229AA9
:10048000023200FA02F30A689A430A60229A03329F
:1004900000FA02F2086890430860FFE7FFE7FFE711
:1004A00073E19DF88E106FF00F0000EB810021903A
:1004B0009DF88F00022821D1FFE72199012000FA41
:1004C00001F30C21C4F201011A910A689A430A60EF
:1004D000219A013200FA02F30A689A430A60219ACB
:1004E000023200FA02F30A689A430A60219A033240
:1004F00000FA02F20868904308604DE09DF88F0012
:10050000032821D1FFE72199012000FA01F30C21F2
:10051000C4F2010119910A681A430A60219A013252
:1005200000FA02F30A689A430A60219A023200FA3A
:1005300002F30A689A430A60219A033200FA02F22F
:1005400008689043086026E09DF88F00042821D1B8
:10055000FFE72199012000FA01F30C21C4F2010107
:1005600018910A689A430A60219A013200FA02F34C
:100570000A681A430A60219A023200FA02F30A68F2
:100580009A430A60219A033200FA02F20868904303
:100590000860FFE7FFE7FFE7F7E09DF88E106FF0D8
:1005A0001F0000EB810020909DF88F00022821D1D0
:1005B000FFE72099012000FA01F31021C4F20101A4
:1005C00017910A689A430A60209A013200FA02F3EE
:1005D0000A689A430A60209A023200FA02F30A6813
:1005E0009A430A60209A033200FA02F208689043A4
:1005F00008604DE09DF88F00032821D1FFE7209986
:10060000012000FA01F31021C4F2010116910A68D9
:100610001A430A60209A013200FA02F30A689A43E8
:100620000A60209A023200FA02F30A689A430A60CA
:10063000209A033200FA02F208689043086026E02C
:100640009DF88F00042821D1FFE72099012000FAAE
:1006500001F31021C4F2010115910A689A430A605E
:10066000209A013200FA02F30A681A430A60209ABB
:10067000023200FA02F30A689A430A60209A0332AF
:1006800000FA02F2086890430860FFE7FFE7FFE71F
:100690007BE09DF88E106FF02F0000EB81001F9023
:1006A0009DF88F00022821D1FFE71F99012000FA51
:1006B00001F31421C4F2010114910A689A430A60FB
:1006C0001F9A013200FA02F30A689A430A601F9ADD
:1006D000023200FA02F30A689A430A601F9A033250
:1006E00000FA02F20868904308604DE09DF88F0020
:1006F000032821D1FFE71F99012000FA01F31421FB
:10070000C4F2010113910A681A430A601F9A013268
:1007100000FA02F30A689A430A601F9A023200FA4A
:1007200002F30A689A430A601F9A033200FA02F23F
:1007300008689043086026E09DF88F00042821D1C6
:10074000FFE71F99012000FA01F31421C4F201010F
:1007500012910A689A430A601F9A013200FA02F362
:100760000A681A430A601F9A023200FA02F30A6802
:100770009A430A601F9A033200FA02F20868904313
:100780000860FFE7FFE7FFE7FFE79DF88E000146FF
:1007900011910F2800F2AB801199DFE801F00812E7
:1007A0001C26303A444E58626C76808A949E9DF89E
:1007B0008C100620109000F019FD109800F0FEFC3F
:1007C00095E09DF88C1007200F9000F00FFD0F981A
:1007D00000F0F4FC8BE09DF88C1008200E9000F0E7
:1007E00005FD0E9800F0EAFC81E09DF88C100920D0
:1007F0000D9000F0FBFC0D9800F0E0FC77E09DF818
:100800008C100A200C9000F0F1FC0C9800F0D6FC43
:100810006DE09DF88C1017200B9000F0E7FC0B9812
:1008200000F0CCFC63E09DF88C1017200A9000F0DB
:10083000DDFC0A9800F0C2FC59E09DF88C101720EE
:10084000099000F0D3FC099800F0B8FC4FE09DF847
:100850008C101720089000F0C9FC089800F0AEFC3E
:1008600045E09DF88C101720079000F0BFFC07981A
:1008700000F0A4FC3BE09DF88C102820069000F0CE
:10088000B5FC069800F09AFC31E09DF88C10282009
:10089000059000F0ABFC059800F090FC27E09DF877
:1008A0008C102820049000F0A1FC049800F086FC35
:1008B0001DE09DF88C102820039000F097FC039811
:1008C00000F07CFC13E09DF88C102820029000F0D2
:1008D0008DFC029800F072FC09E09DF88C10282035
:1008E000019000F083FC019800F068FCFFE724B061
:1008F00080BD00009AB08DF867008DF866108DF805
:10090000652041F21801C4F20201086840F00100BC
:1009100008600421C4F20101086840F0007008601A
:100920009DF8670001460C9102280AD0FFE70C9859
:10093000032800F0E980FFE70C98042800F0C78145
:10094000A8E29DF86600072865DCFFE79DF86500D2
:10095000012834D1FFE79DF8661001EB41000844FF
:10096000033018909DF86610012000FA01F340F65C
:100970000C02C4F20102116819431160189900FABF
:1009800001F340F60001C4F201010B910A681A4319
:100990000A60189A013A00FA02F30A689A430A6058
:1009A000189A023A00FA02F30A689A430A60189AFF
:1009B000033A00FA02F20868904308602AE09DF8C2
:1009C000650030BBFFE79DF866008000179017991F
:1009D000012000FA01F340F60001C4F201010A917E
:1009E0000A681A430A60179A013200FA02F30A6889
:1009F0009A430A60179A023200FA02F30A689A438D
:100A00000A60179A033200FA02F2086890430860FD
:100A1000FFE7FFE777E09DF866200021072A0846F8
:100A2000C8BF0120102AB8BF012108426AD0FFE7E1
:100A30009DF86500012836D1FFE79DF86600A0F11A
:100A4000080101EB41000844033016909DF8661040
:100A5000012000FA01F340F60C02C4F20102116811
:100A600019431160169900FA01F340F60401C4F22B
:100A7000010109910A681A430A60169A013A00FABC
:100A800002F30A689A430A60169A023A00FA02F3DD
:100A90000A689A430A60169A033A00FA02F2086852
:100AA000904308602DE09DF8650048BBFFE79DF886
:100AB0006600083800EB40010844159015990120A4
:100AC00000FA01F340F60401C4F2010108910A683A
:100AD0001A430A60159A013200FA02F30A689A432F
:100AE0000A60159A023200FA02F30A689A430A6011
:100AF000159A033200FA02F2086890430860FFE793
:100B0000FFE7FFE7FFE7C5E19DF86600072865DC22
:100B1000FFE79DF86500012834D1FFE79DF86610D6
:100B200001EB41000844033014909DF86610012049
:100B300000FA01F340F60C42C4F2010211681943B5
:100B40001160149900FA01F340F60041C4F201016A
:100B500007910A681A430A60149A013A00FA02F3EC
:100B60000A689A430A60149A023A00FA02F30A6881
:100B70009A430A60149A033A00FA02F20868904312
:100B800008602AE09DF8650030BBFFE79DF866002D
:100B9000800013901399012000FA01F340F6004100
:100BA000C4F2010106910A681A430A60139A0132DD
:100BB00000FA02F30A689A430A60139A023200FAB2
:100BC00002F30A689A430A60139A033200FA02F2A7
:100BD000086890430860FFE7FFE777E09DF866202C
:100BE0000021072A0846C8BF0120102AB8BF0121EA
:100BF00008426AD0FFE79DF86500012836D1FFE77B
:100C00009DF86600A0F1080101EB410008440330A3
:100C100012909DF86610012000FA01F340F60C4294
:100C2000C4F20102116819431160129900FA01F32C
:100C300040F60441C4F2010105910A681A430A60B2
:100C4000129A013A00FA02F30A689A430A60129A69
:100C5000023A00FA02F30A689A430A60129A033AC7
:100C600000FA02F20868904308602DE09DF86500E4
:100C700048BBFFE79DF86600083800EB40010844D8
:100C800011901199012000FA01F340F60441C4F2D9
:100C9000010104910A681A430A60119A013200FAAC
:100CA00002F30A689A430A60119A023200FA02F3C8
:100CB0000A689A430A60119A033200FA02F208683D
:100CC00090430860FFE7FFE7FFE7FFE7E2E09DF8FA
:100CD0006600072865DCFFE79DF86500012834D130
:100CE000FFE79DF8661001EB4100084403301090C7
:100CF0009DF86610012000FA01F341F20C02C4F2E3
:100D00000102116819431160109900FA01F341F2D0
:100D10000001C4F2010103910A681A430A60109AA3
:100D2000013A00FA02F30A689A430A60109A023AFA
:100D300000FA02F30A689A430A60109A033A00FA2A
:100D400002F20868904308602AE09DF8650030BB15
:100D5000FFE79DF8660080000F900F99012000FAD0
:100D600001F341F20001C4F2010102910A681A4341
:100D70000A600F9A013200FA02F30A689A430A6085
:100D80000F9A023200FA02F30A689A430A600F9A35
:100D9000033200FA02F2086890430860FFE7FFE7B9
:100DA00077E09DF866200021072A0846C8BF012089
:100DB000102AB8BF012108426AD0FFE79DF86500FC
:100DC000012836D1FFE79DF86600A0F1080101EB8C
:100DD0004100084403300E909DF86610012000FA8F
:100DE00001F341F20C02C4F20102116819431160CF
:100DF0000E9900FA01F341F20401C4F201010191DC
:100E00000A681A430A600E9A013A00FA02F30A6865
:100E10009A430A600E9A023A00FA02F30A689A4369
:100E20000A600E9A033A00FA02F2086890430860DA
:100E30002DE09DF8650048BBFFE79DF86600083887
:100E400000EB400108440D900D99012000FA01F3D8
:100E500041F20401C4F2010100910A681A430A60D8
:100E60000D9A013200FA02F30A689A430A600D9A59
:100E7000023200FA02F30A689A430A600D9A0332BA
:100E800000FA02F2086890430860FFE7FFE7FFE717
:100E9000FFE7FFE71AB0704785B08DF813008DF8B3
:100EA00012109DF8130001460091022808D0FFE7B8
:100EB0000098032833D0FFE7009804285ED08CE028
:100EC00040F60800C4F2010000689DF812200121DC
:100ED000914008400390039868B9FFE79DF812100D
:100EE000012000FA01F240F61001C4F20101086885
:100EF0001043086012E0039878B1FFE79DF81200F4
:100F000000F11001012000FA01F240F61001C4F2D4
:100F10000101086810430860FFE7FFE75DE040F665
:100F20000840C4F2010000689DF8122001219140A0
:100F300008400290029868B9FFE79DF8121001205E
:100F400000FA01F240F61041C4F2010108681043B2
:100F5000086012E0029878B1FFE79DF8120000F1F6
:100F60001001012000FA01F240F61041C4F2010123
:100F7000086810430860FFE7FFE72EE041F2080031
:100F8000C4F2010000689DF8122001219140084040
:100F90000190019868B9FFE79DF81210012000FA4E
:100FA00001F241F21001C4F2010108681043086027
:100FB00012E0019878B1FFE79DF8120000F11001EE
:100FC000012000FA01F241F21001C4F201010868A7
:100FD00010430860FFE7FFE7FFE705B07047000038
:100FE00080B500F001F880BD84B00020039002902D
:100FF00041F20001C4F20201086840F48030086048
:10100000FFE741F20000C4F20200006800F4003083
:101010000290039801300390FFE7029900200190AD
:1010200039B9FFE70398B0F5A06018BF012001901F
:10103000FFE70198C0070028E3D1FFE741F2000075
:10104000C4F2020000688003002803D5FFE70120F6
:10105000029002E000200290FFE70298012851D19F
:10106000FFE742F20001C4F20201086840F01000FC
:101070000860086820F007000860086840F0020077
:10108000086041F20401C4F202010091086808609E
:1010900008680860086840F480600860086820F408
:1010A0007C100860086840F4E810086041F2000114
:1010B000C4F20201086840F080700860FFE741F266
:1010C0000000C4F2020000688001002801D4FFE79C
:1010D000F5E741F20401C4F20201086820F00300C0
:1010E0000860086840F002000860FFE741F2040071
:1010F000C4F20200006800F00C00082801D0FFE7ED
:10110000F4E700E0FFE704B07047000080B541F26B
:101110000002C4F20202106840F00100106041F2C7
:101120000401C4F2020108680023CFF6FF0318404F
:10113000086010684FF6FF73CFF6F6631840106032
:10114000106820F480201060086820F4FE00086019
:1011500041F20801C4F202014FF41F000860FFF7DA
:101160003FFF4EF60851CEF200014FF000600860DC
:1011700080BD000041F21C01C4F20201086840F089
:10118000010008602C21C4F200014FF6FE700880B7
:101190002821C4F20001472008804FF080410888D0
:1011A00040F001000880FFE71020C4F20000008832
:1011B000C00708B9FFE7F7E77047000081B08DF876
:1011C00003009DF9030000280ED4FFE79DF90310EA
:1011D00001F01F02012090404A094EF20011CEF2A8
:1011E000000141F82200FFE701B0704782B08DF89E
:1011F000070000919DF9070000280AD4FFE7009836
:1012000000019DF907104EF20042CEF20002885410
:101210000BE0009800019DF8071001F00F014EF659
:101220001452CEF200028854FFE702B0704700006B
:1012300080B584B0002002900390FFF767FFFFF7AE
:1012400099FF04200090FFF737F80098029A0D21CB
:10125000FFF750FB00980F2101910122FFF74AFB95
:1012600000980199029B1A46FFF738F840F2600196
:10127000C2F20001086801300860FFE7FEE70000E5
:1012800090120008000000206806000028010008F5
:040000050800016D81
:00000001FF
