:020000040800F2
:100000001807002089010008CD120008C512000859
:10001000C9120008450200086D1400080000000025
:100020000000000000000000000000006114000853
:100030005502000800000000D112000865140008F5
:10004000A3010008A3010008A3010008A301000800
:10005000A3010008A3010008A3010008A3010008F0
:10006000A3010008A3010008A3010008A3010008E0
:10007000A301000849020008A3010008A301000829
:10008000A3010008A3010008A3010008A3010008C0
:10009000A3010008A3010008A3010008A3010008B0
:1000A000A3010008A3010008A3010008A3010008A0
:1000B000A3010008A3010008A3010008A301000890
:1000C000A3010008A3010008A3010008A301000880
:1000D000A3010008A3010008A3010008A301000870
:1000E000A3010008A3010008A301000800F002F822
:1000F00000F03AF80AA090E8000C82448344AAF188
:100100000107DA4501D100F02FF8AFF2090EBAE885
:100110000F0013F0010F18BFFB1A43F0010318473B
:10012000BC150000DC150000103A24BF78C878C167
:10013000FAD8520724BF30C830C144BF04680C60ED
:10014000704700000023002400250026103A28BF35
:1001500078C1FBD8520728BF30C148BF0B60704739
:100160001FB51FBD10B510BD00F031F81146FFF7E7
:10017000F7FF01F07DF900F04FF803B4FFF7F2FF4D
:1001800003BC00F057F800000948804709480047C1
:10019000FEE7FEE7FEE7FEE7FEE7FEE7FEE7FEE737
:1001A000FEE7FEE704480549054A064B7047000094
:1001B00069140008ED00000818010020180700204D
:1001C00018030020180300207047704770477546D9
:1001D00000F02CF8AE4605006946534620F00700B3
:1001E000854618B020B5FFF7DDFFBDE820404FF091
:1001F00000064FF000074FF000084FF0000BAC4630
:10020000ACE8C009ACE8C009ACE8C009ACE8C0097A
:1002100021F007018D46704710B50446AFF300800A
:100220002046BDE81040FFF7A8BF00000048704717
:100230001000002001491820ABBEFEE72600020096
:1002400070470000FEE7000040F2CC00C2F2000060
:1002500000F008B870470000EFF3108072B600BFDE
:10026000FEE7000010B5D0E90FCE0168DCF80030E1
:100270000A6823FA0EF35C072AD512F0040427D08B
:100280000A68920603D40A6822F004020A602F2248
:10029000C4F20202914240F20402C4F202025BDDA7
:1002A0003023C4F20203994272D04423C4F2020301
:1002B000994273D05823C4F20203994240F07A80E5
:1002C0004FF480231360C16A002940F098806FE0EA
:1002D0009C0727D512F0020424D00A68920606D49F
:1002E0000A6822F00A020A60012280F821202F22E7
:1002F000C4F20202914240F20402C4F202023BDD67
:100300003023C4F20203994260D04423C4F20203B2
:1003100099425FD05823C4F20203994260D14FF44E
:10032000003365E01B0743D512F0080208BF10BD7B
:100330000A6822F00E020A60012101FA0EF2CCF8DE
:100340000420816380F82110016B0022002980F8CD
:10035000202054D12CE000BF0823C4F202039942AC
:1003600022D01C23C4F20203994223D140231360FC
:10037000C16A002943D11BE00823C4F20203994259
:100380002CD01C23C4F20203994229D120232FE050
:100390004FF480631360C16A89BB09E04FF4804366
:1003A0001360C16A59BB03E004231360C16A31BB07
:1003B00010BD00BF02F168044FF08063A14208BF86
:1003C0004FF480031360C16AC9B9F1E74FF40073B9
:1003D0000EE000BF4FF400530AE000BF022307E025
:1003E00002F168044FF00073A14208BF4FF40013FC
:1003F0001360816A0022002980F82020D8D0BDE84F
:1004000010400847014600284FF0010008BF704720
:100410002DE9F043D1F800C04FF6F873CBF6FD7329
:100420004CF6CD426344CCF6CC42A3FB02236FF0E2
:10043000030707EA93030027C4F2020701F10C093E
:10044000C1E90F730223D1E9012E99E87002D1F8B6
:100450001C8081F82130DCF8003043F6F077BB4394
:100460001A4342EA0E0222432A43324342EA090275
:1004700042EA0802CCF8002000228A6381F82100B9
:1004800081F820200020BDE8F0437047F0B590F8D7
:1004900020C0BCF1010F32D04FF0010E80F820E0F7
:1004A00090F821C0BCF1010F26D14FF0020C80F86A
:1004B00021C04FF0000CC0F838C0D0E900C4C56AB4
:1004C000C66BDCF80070102C27F00107CCF8007028
:1004D000006C0EFA00F070600846CCF8043004BFDF
:1004E00010460A46CCF80800CCF80C20DCF80000D6
:1004F00045B140F00E000DE0002180F820100220F0
:10050000F0BD00BF20F00400CCF80000DCF80000D3
:1005100040F00A00CCF80000DCF8000040F00100D8
:10052000CCF800000020F0BDB0B5044600F02CF976
:10053000054640F20000C2F200000078611C18BFBE
:10054000044400BF00F020F9401BA042FAD3B0BD24
:100550002DE9F04F82B00E68002E00F0038141F2C9
:100560000042C4F20102042340F2004E904208BF50
:1005700003234FF6FF7CC4F2010E009300240123F5
:10058000C1F2100C4FF0000A4FF0000949E000BF23
:10059000012704F00C030F229A402BEA020207FA0B
:1005A00003F34FEA9A051A4346F82520D1F804B020
:1005B00040F20C455FEACB22DEF8082054BF22EA65
:1005C000080242EA0802C4F20105CEF808202A68AF
:1005D0005FEA8B2354BF22EA080242EA08022A603B
:1005E0005FEA8B33DEF8042054BF22EA080242EAB5
:1005F00008025FEACB33CEF80420DEF800204FF08B
:10060000010354BF22EA080242EA0802CEF80020A1
:100610000E680AF1010A36FA0AF204F1040400F045
:10062000A18003FA0AF816EA080FF1D04E68664571
:1006300012DC122E56D8DFE806F0350B4549555529
:1006400055555555555555555555554D510000BFA6
:10065000D1F80C9046E000BF4FF6FF72C1F22102C4
:1006600096420FDC0022C1F2110296421AD00022FB
:10067000C1F21202964215D00022C1F22102964226
:1006800010D02FE00022C1F2220296420AD00022AE
:10069000C1F23102964205D00022C1F232029642E6
:1006A00020D100BF8A684AB1012A14BFC0F8148063
:1006B000C0F810804FF0080914E000BF4FF00409A3
:1006C00010E000BFCA6802F108090BE04FF0000912
:1006D00008E000BFCA6802F1040903E0CA6802F139
:1006E0000C0900BF22460646BAF1080F24BF203A83
:1006F000043637680F25954027EA050509FA02F206
:100700002A433260CA79D2067FF582AF41F21803DC
:10071000C4F202031A68AEF57E7642F001021A6056
:100720001A6802F001020192019A2AF0030256F8B7
:1007300002B040F60002C4F20102904210D040F62E
:100740000042C4F2010290423FF422AF41F20002A3
:10075000C4F20102009F904208BF022719E700BFC0
:10076000002716E702B0BDE8F08F0000C26802EA79
:100770000103914341EA034101617047002A08BF28
:10078000090401617047000040F21010C2F200003D
:100790000068704740F2000040F21011C2F2000001
:1007A000C2F2000100780A68104408607047000037
:1007B00080B542F20000C4F20200016841F010016D
:1007C0000160032000F08EF80F2000F005F800F023
:1007D00027F8002080BD000070B540F20006C2F28C
:1007E000000640F208013278C2F200014FF47A7339
:1007F0000968B3FBF2F20446B1FBF2F1084600F0DF
:100800004BFD0F2C4FF0010508D838B94FF0FF30E1
:1008100021460022002500F039F87460284670BD9A
:1008200082B041F21800C4F202000168022241F0D5
:1008300001010160016801F0010101910199416824
:1008400041F080514160406800F080500090009875
:100850000420C4F20100016862F31A61016002B071
:1008600070470000002848BF7047C1B200F01F0069
:10087000012202FA00F04EF20012CEF2000242EA29
:10088000D10121F0030108607047000010B54EF659
:100890000C5CCEF2000CDCF80030C3F3022E8EF0BC
:1008A0000704042C28BF0424BEF103034FF0FF3ECD
:1008B0000EFA04F438BF0023A14399400EFA03F363
:1008C0009A43114300F00F0200F160430901043A1A
:1008D00003F564436244002848BF02F10C03197019
:1008E00010BD00004EF60C51CEF200010A684FF622
:1008F000FF031A4060F30A2242F0806040F0FD706E
:10090000086070472DE9F04381B0002800F0858031
:1009100042F20008C4F202080446D8F800000D466E
:1009200000F0070088420CD2D8F8000020F0070041
:100930002843C8F80000D8F8000000F00700A842DB
:100940006BD1206841F204098107C4F2020917D56E
:10095000410705D5D9F8001041F4E061C9F800104D
:10096000010705D5D9F8001041F46051C9F800100D
:10097000D9F80010A26821F0F0011143C9F8001065
:10098000C00741D1D8F8000000F00700A8420CD9F8
:10099000D8F8000020F007002843C8F80000D8F875
:1009A000000000F00700A84237D12068410707D5B2
:1009B000D9F80010E26821F4E0611143C9F8001091
:1009C000000708D5D9F80000216920F4605040EAFA
:1009D000C100C9F80000D9F8002002F00C00082876
:1009E00041F20020C0F27A0050D141F2CA63C2F352
:1009F0008341C0F60003595CD2033BD440F600109B
:100A0000C0F23D00484341E0606802280AD0012856
:100A10002AD159F8041C890308D4012001B0BDE88B
:100A2000F08300BF59F8041C8901F6D5D9F80010ED
:100A300021F003010843C9F80000FFF7A5FE0646B0
:100A400041F28837D9F80000616800F00C00B0EB83
:100A5000810F97D0FFF798FE801BB842F2D9032090
:100A600001B0BDE8F08300BF59F8041C8907D4D554
:100A7000DCE700BFD9F8002041F2C863C2F340426E
:100A8000C0F600039A5C4843B0FBF2F0D9F80010BE
:100A900041F2B862C1F30311C0F60002515C40F2AA
:100AA000080220FA01F140F20400C2F200000068DE
:100AB000C2F200021160FFF78FFE002001B0BDE816
:100AC000F08300002DE9F04182B0002868D0044690
:100AD000007841F20006C007C4F2020625D0706813
:100AE00000F00C0004281BD0706800F00C000828EF
:100AF00002D17068C00313D46068002800F06881D8
:100B0000B0F5A02F00F07C81B0F5803F00F07C8133
:100B1000306820F480303060306820F4802076E146
:100B20003068800301D56068D0B32078800718D57D
:100B3000706810F00C0F07D0706800F00C000828E7
:100B40006ED17068C0036BD43068800702D520690D
:100B5000012825D13068616920F0F80040EAC10021
:100B60003060207800071FD42078400732D4E56930
:100B700095B1706800F00C00082840F08F80012DBE
:100B80000ED07068216A00F480328A4208D1616A0E
:100B900000F47010884203D1002002B0BDE8F0815B
:100BA000012002B0BDE8F081A069002862D00020D9
:100BB000C4F242200121C0F88014FFF7E5FD05468C
:100BC000706A800700F18C80FFF7DEFD401B022871
:100BD000F6D92AE1F06910F0805808D1F06940F0A8
:100BE0008050F061F06900F080500090009847F26A
:100BF0000007C4F200073868C00529D4386840F4FB
:100C000080703860FFF7C0FD054600BF3868C0053A
:100C10001ED4FFF7B9FD401B6428F7D905E100BFDA
:100C20002069002840F20000C4F2422000F08280D7
:100C300001210160FFF7A8FD054600BF306880076D
:100C40003FF588AFFFF7A0FD401B0228F6D9ECE086
:100C5000E068002800F08080052800F097800128D7
:100C600000F09880306A20F001003062306A20F095
:100C7000040092E00020C4F242200021C0F8801459
:100C8000FFF782FD054600BF706A80077FF56CAFF5
:100C9000FFF77AFD401B0228F6D9C6E00027C4F210
:100CA000422700203866FFF76FFD022D05460BD165
:100CB0003068800140F1BE80FFF766FD401B0228CE
:100CC0004FF00300F4D968E7306880017FF564AF26
:100CD000FFF75AFD401B02284FF00300F4D95CE7F0
:100CE00040F20800C2F20000006844F6D351C1F29D
:100CF0006201A0FB0101480A019000BF00BF0198FA
:100D0000411E002801913FF42FAF00BF0198411E02
:100D1000002801913FF428AF00BF0198411E002830
:100D200001913FF421AF00BF0198411E00280191BD
:100D3000E4D119E700210160FFF726FD054600BF59
:100D4000306880077FF50DAFFFF71EFD401B0228BE
:100D50004FF00300F4D920E7306A20F00100306240
:100D6000306A20F004003062FFF70EFD054641F2C4
:100D7000883700BF306A800720D5FFF705FD401B8C
:100D8000B8424FF00300F5D907E700BF306A40F0E2
:100D900004003062306A40F001003062FFF7F4FC7A
:100DA000054641F2883700BF306A800706D4FFF756
:100DB000EBFC401BB842F7D937E000BFB8F1000F99
:100DC0007FF4D5AEF06920F08050F061CFE600BF2F
:100DD000306820F480303060306820F4802030604B
:100DE000FFF7D2FC054600BF306880037FF59DAE5B
:100DF000FFF7CAFC401B64284FF00300F4D9CCE68F
:100E0000306840F480203060306840F480303060DA
:100E1000FFF7BAFC054600BF306880033FF585AE9A
:100E2000FFF7B2FC401B6428F6D9032002B0BDE8EE
:100E3000F08100BF206AB0F5803F05D17168A268DB
:100E400021F40031114371607168626A21F47411F8
:100E500011430843706001203866FFF795FC044693
:100E6000306880013FF598AEFFF78EFC001B02282A
:100E70004FF00300F4D990E67047000070B538B128
:100E80000446406A30B10020206104F1140007E0FC
:100E9000012070BD6068B0F5827F03D004F11C00B2
:100EA000002101600026A66294F8510020B9204676
:100EB00084F8506000F038F8022084F8510094E87B
:100EC000071001F48271036802F4044223F0400326
:100ED0000360236911440CF40062114403F0020220
:100EE0006369114403F00102A369E569114403F445
:100EF0000072114405F03802256A114405F08002A1
:100F0000A56A114305F4005211430160042101EA6E
:100F100013414160C16921F40061C161012066652E
:100F200084F85100304670BD70B586B0044640F676
:100F30000000C4F20100216800F520520026914211
:100F4000049601D006B070BD41F21801C4F202014E
:100F50000A6842F480520A600A6802F480520192E0
:100F6000019A0A6842F004020A60096801F004016B
:100F700001910199A0210291022103910321059180
:100F800002A9FFF7E5FA40F2CC053020C2F20005D5
:100F9000C4F202001021802285E843002846C5E9FA
:100FA0000326C5E90566EE61FFF72CFA002818BF95
:100FB000FFF752F9A5646C6206B070BD2DE9F041EF
:100FC00082B0044690F85000012803D1022002B0FC
:100FD000BDE8F08101201D4616460F4684F85000FA
:100FE000FFF7D2FB94F8511001290DD18046002F54
:100FF0004FF0010018BF002E0ED1002184F85010D0
:1010000002B0BDE8F08100BF0220002184F850103A
:1010100002B0BDE8F08100BF0320002184F8510038
:1010200061652763A686E686A163A187E187A0683C
:101030002164B0F5004F2068616407D1016821F098
:1010400040010160016841F4804101600168490686
:1010500003D4016841F0400101606168731EE268D9
:10106000B1FA81F1B3FA83F349095B09B2F5006F74
:1010700041EA03013CD131B137F8021BC16027635B
:10108000E08E0138E086E08E00286BD0681C0CD121
:101090001DE000BF216B31F8022BC2602163E08E9E
:1010A0000138E086E08E00285CD0206881688907DE
:1010B000F0D4FFF769FBA0EB0800A842F2D30320AD
:1010C00071E000BFFFF760FBE08E00284AD0206887
:1010D00081688907F6D5216B31F8022BC260216344
:1010E000E08E0138E086E08E0028F0D13AE000BFC3
:1010F00039B139780173206B01302063E08E0138FB
:10110000E086E08E70B3681C0BD11BE0216B097880
:101110000173206B01302063E08E0138E086E08EA1
:1011200000B3206881688907F0D4FFF72DFBA0EB9E
:101130000800A842F3D3032035E000BFFFF724FBEB
:10114000E08E78B1206881688907F7D5216B09782E
:101150000173206B01302063E08E0138E086E08E61
:101160000028EFD1204680212A46434600F006F9A8
:1011700028B1606D40F02000606520206065A068A7
:1011800038B9002001902068C16801918068019001
:101190000198606D30B10120002184F8501002B038
:1011A000BDE8F0810020012184F85110002184F86D
:1011B000501002B0BDE8F08170B5044690F85000C0
:1011C000012804BF022070BD012084F8500094F86B
:1011D000510001280AD100294FF0010018BF002A50
:1011E0000AD1002184F8501070BD00BF02200021F8
:1011F00084F8501070BD00BF03200023254684F8FA
:10120000510045F8543F2163A286E286A363C4E9F6
:101210001033A387E387A0682268B0F5004F07D199
:10122000106820F040001060106840F480401060AA
:10123000A06C41F2F52C41F2FD2E41F2D526C0F60C
:10124000000CC0F6000EC0F60006C0E90AECC0E9CA
:101250000C63E38E0C32FFF719F918B1012010214D
:101260000FE000BF25682868400603D4286840F0D6
:101270004000286055F8040F022140F0200028604B
:1012800000202A6811432960002184F8501070BDA5
:101290007047000070470000411E0020B0EB116F46
:1012A0001CBF012070474EF21002CEF200025160C6
:1012B0004EF62351CEF20001F0230B70072190600F
:1012C00011607047FEE70000FEE70000FEE7000047
:1012D00070470000406A01684A6822F003024A60D1
:1012E000416D41F010014165012180F85110FFF777
:1012F000C3BD0000406AFFF7CDBF0000B0B582B0AB
:10130000446A0546FFF740FA2968096889062FD420
:10131000034620686422416821F020014160416851
:1013200021F0020141602046802100F027F838B109
:10133000606D40F020006065606D40F020006065E9
:10134000A06838B9002001902068C16801918068C8
:10135000019001980020E086012084F85100606D22
:1013600030B1204602B0BDE8B040FFF785BD00BFF8
:10137000204602B0BDE8B040FFF78ABF2DE9F0413A
:1013800082B01E4690460D460446FFF7FDF9301A1E
:1013900000EB0807FFF7F8F940F20801C2F200017C
:1013A0000968C1F3CB317943019121688A682A40E9
:1013B000AA4227D1064618F101001FD0FFF7E4F931
:1013C000801BB84222D2019801990028A1F10101A5
:1013D00001912168896808BF074601EA0500A84213
:1013E000ECD00FE088682840A8420BD188682840DC
:1013F000A84207D188682840A84203D188682840BD
:10140000A842EFD0002002B0BDE8F081D4E900018D
:101410004268B1F5827F22F0E00242600AD1A16801
:10142000B1F5004F02D0B1F5806F03D1016821F012
:1014300040010160A16AB1F5005F07D1016821F4A4
:1014400000510160016841F400510160012084F8FD
:101450005100002084F85000032002B0BDE8F08164
:1014600070470000FFF796B970470000FEE70000E4
:1014700090B0FFF79DF900240120CDE90B44CDE9A0
:10148000094406900A904FF4E0104FF48031022591
:101490000F9006A8CDE90714CDE90D51FFF712FB17
:1014A00020B1EFF3108072B6FEE700BF0F20CDE948
:1014B00001054FF48060CDE9040401A802210394E2
:1014C000FFF720FA20B1EFF3108072B6FEE700BFFD
:1014D00041F21807C4F20207386840F6000440F0F1
:1014E000100038603868C4F2010400F01000069063
:1014F0000698386804F5006540F0200038603868C8
:101500004FF4005100F02000069006983868002241
:1015100040F00400386038684FF4005600F00400D2
:101520000690069828464FF00008FFF727F9204656
:10153000102100224FF01009FFF720F90DF1180BD0
:10154000069601264FF0020A284659460796CDE92D
:1015500008AAFEF7FDFF20465946CDE90696CDE9DB
:10156000086AFEF7F5FF57F8040C002140F001006F
:1015700047F8040C57F8040C002200F00100069014
:1015800006980D20FFF782F90D20FFF76BF940F266
:101590007007C2F2000704F52051384640F8041FD6
:1015A0004FF482714FF40072C0E901180A21C0E9BA
:1015B000038AC0E90582C0E90798C0E90988C162C9
:1015C000FFF75CFC20B1EFF3108072B6FEE700BFBE
:1015D000204610210122FFF7D1F80C20012100F054
:1015E0001FF80A200A2100F01BF840F20C05C2F295
:1015F000000500BF3E4620461021002246F8045B4D
:10160000FFF7BCF8304629460122FFF7D5FD2046FA
:1016100010210122FFF7B2F86420FEF785FFE9E709
:1016200070B582B040F60004C4F201048DF80700E2
:101630008DF80610204610210022FFF79FF840F297
:101640007000C2F20000051D0DF1070128460122BD
:101650004FF0FF33FFF7B2FC06462046102101226F
:10166000FFF78CF8204610210022FFF787F80DF1D4
:101670000601284601224FF0FF33FFF79FFC054685
:10168000204610210122FFF779F856EA050011D112
:1016900004F5006420464FF40051FFF767F832204C
:1016A000FEF742FF20464FF40051FFF75FF832206B
:1016B000FEF73AFF02B070BD00000000000000001D
:1016C00001020304060708090102020304050607D4
:1016D00008090A0B0C0D0E0F10100000001700086F
:1016E000000000201000000028010008101700086A
:1016F000100000200807000044010008000000005E
:1017000001000000100000000024F400EF000000C1
:04000005080000ED02
:00000001FF
