:020000040800F2
:100000007006002089010008910100089301000892
:100010009501000897010008990100080000000000
:100020000000000000000000000000009B0100082C
:100030009D010008000000009F010008A1010008C8
:10004000A3010008A3010008A3010008A301000800
:10005000A3010008A3010008A3010008A3010008F0
:10006000A3010008A3010008A3010008A3010008E0
:10007000A3010008A3010008A3010008A3010008D0
:10008000A3010008A3010008A3010008A3010008C0
:10009000A3010008A3010008A3010008A3010008B0
:1000A000A3010008A3010008A3010008A3010008A0
:1000B000A3010008A3010008A3010008A301000890
:1000C000A3010008A3010008A3010008A301000880
:1000D000A3010008A3010008A3010008A301000870
:1000E000A3010008A3010008A301000800F002F822
:1000F00000F03AF80AA090E8000C82448344AAF188
:100100000107DA4501D100F02FF8AFF2090EBAE885
:100110000F0013F0010F18BFFB1A43F0010318473B
:100120001410000034100000103A24BF78C878C1C1
:10013000FAD8520724BF30C830C144BF04680C60ED
:10014000704700000023002400250026103A28BF35
:1001500078C1FBD8520728BF30C148BF0B60704739
:100160001FB51FBD10B510BD00F031F81146FFF7E7
:10017000F7FF00F0AFFF00F04FF803B4FFF7F2FF16
:1001800003BC00F057F800000948804709480047C1
:10019000FEE7FEE7FEE7FEE7FEE7FEE7FEE7FEE737
:1001A000FEE7FEE704480549054A064B7047000094
:1001B000C10F0008ED00000870000020700600204C
:1001C000700200207002002070477047704775462B
:1001D00000F02CF8AE4605006946534620F00700B3
:1001E000854618B020B5FFF7DDFFBDE820404FF091
:1001F00000064FF000074FF000084FF0000BAC4630
:10020000ACE8C009ACE8C009ACE8C009ACE8C0097A
:1002100021F007018D46704710B50446AFF300800A
:100220002046BDE81040FFF7A8BF00000048704717
:100230001000002001491820ABBEFEE72600020096
:100240007047000081B08DF803009DF80310012075
:1002500000FA01F241F21801C4F2020108681043E9
:10026000086001B07047000080B584B08DF80F00C1
:100270008DF80E108DF80D209DF80F00FFF7E2FFAE
:1002800041F21801C4F20201086840F00100086060
:100290000421C4F20101086840F0007008609DF874
:1002A0000F000146009102280AD0FFE700980328BA
:1002B00000F0C780FFE70098042800F0838142E245
:1002C0009DF80E00072855DCFFE79DF80E00800022
:1002D0008DF80C009DF80D00012815D1FFE79DF861
:1002E0000C100F2000FA01F240F60001C4F20101E7
:1002F0000868904308609DF80C20082000FA02F27C
:1003000008681043086034E09DF80D00A8B9FFE7C5
:100310009DF80C100F2000FA01F240F60001C4F223
:1003200001010868904308609DF80C20012000FA44
:1003300002F20868104308601AE09DF80D000228D8
:1003400015D1FFE79DF80C100F2000FA01F240F6DE
:100350000001C4F201010868904308609DF80C2078
:100360000A2000FA02F2086810430860FFE7FFE77E
:10037000FFE765E09DF80E200021072A0846C8BF68
:100380000120102AB8BF0121084258D0FFE79DF88C
:100390000E106FF01F0000EB81008DF80B009DF830
:1003A0000D00012815D1FFE79DF80B100F2000FA72
:1003B00001F240F60401C4F20101086890430860AC
:1003C0009DF80B20082000FA02F20868104308602C
:1003D00034E09DF80D00A8B9FFE79DF80B100F2041
:1003E00000FA01F240F60401C4F2010108689043EA
:1003F00008609DF80B20012000FA02F20868104303
:1004000008601AE09DF80D00022815D1FFE79DF85D
:100410000B100F2000FA01F240F60401C4F20101B2
:100420000868904308609DF80B200A2000FA02F249
:10043000086810430860FFE7FFE7FFE7FFE7FFE713
:1004400081E19DF80E00072855DCFFE79DF80E00BE
:1004500080008DF80A009DF80D00012815D1FFE7F6
:100460009DF80A100F2000FA01F240F60041C4F294
:1004700001010868904308609DF80A20082000FAEE
:1004800002F208681043086034E09DF80D00A8B936
:10049000FFE79DF80A100F2000FA01F240F6004134
:1004A000C4F201010868904308609DF80A20012009
:1004B00000FA02F20868104308601AE09DF80D0087
:1004C000022815D1FFE79DF80A100F2000FA01F26B
:1004D00040F60041C4F201010868904308609DF8AD
:1004E0000A200A2000FA02F2086810430860FFE7B9
:1004F000FFE7FFE765E09DF80E200021072A084688
:10050000C8BF0120102AB8BF0121084258D0FFE718
:100510009DF80E106FF01F0000EB81008DF80900B0
:100520009DF80D00012815D1FFE79DF809100F2057
:1005300000FA01F240F60441C4F201010868904358
:1005400008609DF80920082000FA02F208681043AC
:10055000086034E09DF80D00A8B9FFE79DF8091088
:100560000F2000FA01F240F60441C4F201010868CC
:10057000904308609DF80920012000FA02F2086803
:10058000104308601AE09DF80D00022815D1FFE71E
:100590009DF809100F2000FA01F240F60441C4F260
:1005A00001010868904308609DF809200A2000FABC
:1005B00002F2086810430860FFE7FFE7FFE7FFE784
:1005C000FFE7C0E09DF80E00072855DCFFE79DF827
:1005D0000E0080008DF808009DF80D00012815D14F
:1005E000FFE79DF808100F2000FA01F241F2000128
:1005F000C4F201010868904308609DF808200820B3
:1006000000FA02F208681043086034E09DF80D001B
:10061000A8B9FFE79DF808100F2000FA01F241F297
:100620000001C4F201010868904308609DF80820A9
:10063000012000FA02F20868104308601AE09DF8F1
:100640000D00022815D1FFE79DF808100F2000FAD1
:1006500001F241F20001C4F2010108689043086010
:100660009DF808200A2000FA02F20868104308608A
:10067000FFE7FFE7FFE765E09DF80E200021072A6E
:100680000846C8BF0120102AB8BF0121084258D02F
:10069000FFE79DF80E106FF01F0000EB81008DF852
:1006A00007009DF80D00012815D1FFE79DF8071000
:1006B0000F2000FA01F241F20401C4F201010868BE
:1006C000904308609DF80720082000FA02F20868AD
:1006D0001043086034E09DF80D00A8B9FFE79DF8CD
:1006E00007100F2000FA01F241F20401C4F20101E7
:1006F0000868904308609DF80720012000FA02F284
:100700000868104308601AE09DF80D00022815D112
:10071000FFE79DF807100F2000FA01F241F20401F3
:10072000C4F201010868904308609DF807200A2080
:1007300000FA02F2086810430860FFE7FFE7FFE7EE
:10074000FFE7FFE7FFE704B080BD000082B08DF84F
:1007500007008DF806108DF805209DF8070001466A
:100760000091022808D0FFE7009803282AD0FFE76D
:10077000009804284CD071E09DF80500C00768B1CE
:10078000FFE79DF80610012000FA01F240F60C0187
:10079000C4F2010108689043086012E09DF805006A
:1007A000C00768B9FFE79DF80610012000FA01F2C2
:1007B00040F60C01C4F20101086810430860FFE72D
:1007C000FFE74BE09DF80500C00768B1FFE79DF823
:1007D0000610012000FA01F240F60C41C4F20101BA
:1007E00008689043086012E09DF80500C00768B9EA
:1007F000FFE79DF80610012000FA01F240F60C41D7
:10080000C4F20101086810430860FFE7FFE725E034
:100810009DF80500C00768B1FFE79DF806100120AC
:1008200000FA01F241F20C01C4F2010108689043A0
:10083000086012E09DF80500C00768B9FFE79DF861
:100840000610012000FA01F241F20C01C4F201018C
:10085000086810430860FFE7FFE7FFE702B0704752
:1008600082B08DF807008DF806109DF80700023859
:1008700001460091032840D80099DFE801F00211F9
:10088000202F9DF8060000F11001012000FA01F26E
:1008900040F61001C4F201010868104308602CE022
:1008A0009DF8060000F11001012000FA01F240F667
:1008B0001041C4F201010868104308601DE09DF872
:1008C000060000F11001012000FA01F241F21001CE
:1008D000C4F201010868104308600EE09DF80600AC
:1008E00000F11001012000FA01F241F21041C4F2BE
:1008F0000101086810430860FFE702B0704700007C
:1009000082B08DF807008DF806109DF807000238B8
:1009100001460091032838D80099DFE801F0020F62
:100920001C299DF80610012000FA01F240F6100182
:10093000C4F2010108681043086026E09DF8061023
:10094000012000FA01F240F61041C4F201010868EA
:100950001043086019E09DF80610012000FA01F22A
:1009600041F21001C4F201010868104308600CE074
:100970009DF80610012000FA01F241F21041C4F284
:100980000101086810430860FFE702B070470000EB
:1009900080B582B001200190FFE7019808280ADCA9
:1009A000FFE79DF80400002100F0BEF8FFE7019882
:1009B00001300190F1E702B080BD000080B582B047
:1009C0008DF807008DF806108DF8052000F00EF860
:1009D0009DF8070000F0D8F89DF8060000F0E0F858
:1009E0009DF8050000F0C4F802B080BD80B50C2071
:1009F000012100F099F880BDD0B502AF86B047F86C
:100A00000C0C07F80D1C07F80E2CFFF7C1FF17F8A8
:100A10000D0C694647F8141CC11D21F007026946F8
:100A2000891A8D4647F8201C47F8180C002007F853
:100A3000190CFFE717F9190C17F80D1C88421EDA7C
:100A4000FFE757F8202C57F80C0C4CF6CD41CCF6AC
:100A5000CC41A0FB01C3DB0803EB8303A0EB430005
:100A600017F9193C03F1010C07F819CCD05457F8C9
:100A70000C0CA0FB0110C00847F80C0CDAE717F8C3
:100A80000D0C013807F8190CFFE717F9190C0028AD
:100A90001BD4FFE757F8201C17F80E0C013017F98C
:100AA000192C8A5C40F20001C2F20001895CC0B2DC
:100AB00000F03AF817F8190C013807F8190C17F874
:100AC0000E0C013807F80E0CDFE757F8140C8546BA
:100AD000A7F10804A546D0BD80B582B001908DF87D
:100AE0000310FFF755FFFFE701980078D0B1FFE74B
:100AF0000198411C0191007830388DF802009DF872
:100B0000030001309DF8022040F20001C2F2000112
:100B1000895CC0B200F008F89DF8030001388DF838
:100B20000300E1E702B080BD80B586B08DF8170004
:100B30008DF816100220039004210491FFF790FE17
:100B400043F20000C4F2010001900DF117010122EF
:100B5000029200F05BF90198029A0DF1160100F083
:100B600055F903980499FFF7CBFE06B080BD00004D
:100B700080B582B08DF807009DF807100920FFF7B7
:100B8000D3FF02B080BD000080B582B08DF80700B1
:100B90009DF807100A20FFF7C7FF02B080BD0000D4
:100BA00080B582B08DF807009DF807100B20FFF785
:100BB000BBFF02B080BD000081B0009000990888A2
:100BC00040F04000088001B07047000081B0009004
:100BD000009843F20001C4F20101884209D1FFE705
:100BE00041F21801C4F20201086840F48050086024
:100BF00011E0009843F60001C4F20001884209D1D7
:100C0000FFE741F21C01C4F20201086840F4804091
:100C10000860FFE7FFE701B07047000080B588B0CB
:100C20000790079843F20001C4F2010188421DD1E8
:100C3000FFE7022006900421049100220592FFF7AD
:100C400013FB0499059A0698FFF780FD069A052183
:100C50001046FFF709FB069A06211046FFF704FB32
:100C6000069A07211046FFF7FFFA26E0079843F699
:100C70000001C4F2000188421ED1FFE70320029068
:100C80000C21009100220192FFF7EEFA0099019ADF
:100C90000298FFF75BFD02980D2102220392FFF7F5
:100CA000E3FA0298039A0E21FFF7DEFA0298039AFC
:100CB0000F21FFF7D9FAFFE7FFE708B080BD00007A
:100CC00080B584B003908DF80B100398FFF77EFF7A
:100CD00003980021019100F02DF80199039800F08C
:100CE00017F803989DF80B1000F048F8039800F0EF
:100CF00057F8039800F076F80199039800F02CF863
:100D00000398FFF78BFF0398FFF756FF04B080BDF1
:100D100082B001908DF803100199088820F001003D
:100D200008809DF80320019908881043088002B0CC
:100D30007047000082B001908DF803100199088877
:100D400020F0020008809DF803200199088840EAFD
:100D50004200088002B0704782B001908DF8031005
:100D60000199088820F0800008809DF803200199EF
:100D7000088840EAC210088002B0704782B0019033
:100D80008DF803100199088820F0040008809DF870
:100D900003200199088840EA8200088002B0704769
:100DA00081B00090009843F20001C4F20101884232
:100DB00006D1FFE70099088840F0100008800EE097
:100DC000009843F60001C4F20001884206D1FFE713
:100DD0000099088840F008000880FFE7FFE701B0AD
:100DE0007047000081B000900099088820F40070DE
:100DF00008800099088840F40070088000990888ED
:100E000040F48070088001B07047000083B0029009
:100E100001918DF8032000208DF80200FFE79DF876
:100E200002009DF80310884214DAFFE7FFE70298FA
:100E300000898007002801D4FFE7F8E701989DF8B2
:100E40000210405C029988819DF8020001308DF803
:100E50000200E4E7FFE7029800898007002801D438
:100E6000FFE7F8E7FFE7029800890006002801D5B0
:100E7000FFE7F8E743F20C00C4F2010000888DF8A8
:100E8000010043F20800C4F2010000888DF801005F
:100E900003B0704780B500F001F880BD84B0002039
:100EA0000390029041F20001C4F20201086840F48C
:100EB00080300860FFE741F20000C4F202000068E1
:100EC00000F400300290039801300390FFE702998C
:100ED0000020019039B9FFE70398B0F5A06018BF72
:100EE00001200190FFE70198C0070028E3D1FFE748
:100EF00041F20000C4F2020000688003002803D51C
:100F0000FFE70120029002E000200290FFE7029834
:100F1000012851D1FFE742F20001C4F20201086842
:100F200040F010000860086820F0070008600868BA
:100F300040F00200086041F20401C4F20201009195
:100F40000868086008680860086840F48060086005
:100F5000086820F47C100860086840F4E810086015
:100F600041F20001C4F20201086840F0807008609C
:100F7000FFE741F20000C4F202000068800100288F
:100F800001D4FFE7F5E741F20401C4F20201086869
:100F900020F003000860086840F002000860FFE7E6
:100FA00041F20400C4F20200006800F00C000828BE
:100FB00001D0FFE7F4E700E0FFE704B0704700006E
:100FC00080B541F20002C4F20202106840F0010054
:100FD000106041F20401C4F2020108680023CFF658
:100FE000FF031840086010684FF6FF73CFF6F663F2
:100FF00018401060106820F480201060086820F409
:10100000FE00086041F20801C4F202014FF41F0023
:101010000860FFF73FFF4EF60851CEF200014FF097
:101020000060086080BD000041F21C01C4F20201B2
:10103000086840F0010008602C21C4F2000142F26F
:101040000F7008802821C4F20001472008804FF06B
:101050008041088840F001000880FFE71020C4F2BA
:1010600000000088C00708B9FFE7F7E770470000F5
:1010700080B582B0ADF806000020ADF80400FFE7AF
:10108000BDF80400BDF8061088420BDAFFE74FF404
:101090007A7000F009F8FFE7BDF804000130ADF800
:1010A0000400EDE702B080BD81B0ADF8020024215C
:1010B000C4F2000100200880FFE72420C4F20000F1
:1010C0000088BDF80210884201DAFFE7F5E701B0B9
:1010D0007047000080B584B0002002900390FFF7B5
:1010E0006FFFFFF7A1FF43F20000C4F201000121EE
:1010F000FFF7E6FD029A0A200721FFF75FFCFFE7F2
:1011000041F22C10C0F600000621FFF7E5FC4FF479
:101110007A700190FFF7ACFF40F2D17004210522F4
:10112000FFF76AFC0198FFF7A3FFE9E73237313296
:101130000000000054110008000000200C00000016
:10114000280100086011000810000020600600005F
:10115000440100087E306D79275B5F707F7B000063
:040000050800018965
:00000001FF
