:020000040800F2
:100000007006002089010008910100089301000892
:100010009501000897010008990100080000000000
:100020000000000000000000000000009B0100082C
:100030009D010008000000009F010008A1010008C8
:10004000A3010008A3010008A3010008A301000800
:10005000A3010008A3010008A3010008A3010008F0
:10006000A3010008A3010008A3010008A3010008E0
:10007000A3010008A3010008A3010008A3010008D0
:10008000A3010008A3010008A3010008A3010008C0
:10009000A3010008A3010008A3010008A3010008B0
:1000A000A3010008A3010008A3010008A3010008A0
:1000B000A3010008A3010008A3010008A301000890
:1000C000A3010008A3010008A3010008A301000880
:1000D000A3010008A3010008A3010008A301000870
:1000E000A3010008A3010008A301000800F002F822
:1000F00000F03AF80AA090E8000C82448344AAF188
:100100000107DA4501D100F02FF8AFF2090EBAE885
:100110000F0013F0010F18BFFB1A43F0010318473B
:100120007011000090110000103A24BF78C878C107
:10013000FAD8520724BF30C830C144BF04680C60ED
:10014000704700000023002400250026103A28BF35
:1001500078C1FBD8520728BF30C148BF0B60704739
:100160001FB51FBD10B510BD00F031F81146FFF7E7
:10017000F7FF01F053F800F04FF803B4FFF7F2FF78
:1001800003BC00F057F800000948804709480047C1
:10019000FEE7FEE7FEE7FEE7FEE7FEE7FEE7FEE737
:1001A000FEE7FEE704480549054A064B7047000094
:1001B00005110008ED000008700000207006002006
:1001C000700200207002002070477047704775462B
:1001D00000F02CF8AE4605006946534620F00700B3
:1001E000854618B020B5FFF7DDFFBDE820404FF091
:1001F00000064FF000074FF000084FF0000BAC4630
:10020000ACE8C009ACE8C009ACE8C009ACE8C0097A
:1002100021F007018D46704710B50446AFF300800A
:100220002046BDE81040FFF7A8BF00000048704717
:100230000800002001491820ABBEFEE7260002009E
:100240007047000081B000900099086840F00100FC
:10025000086001B07047000081B000900098002154
:10026000C4F20201884209D1FFE741F21401C4F24D
:100270000201086840F00100086008E041F2140142
:10028000C4F20201086840F002000860FFE701B014
:100290007047000080B586B005900020C4F20200CF
:1002A000FFF7DAFF3020C4F20200049043F20C01A1
:1002B000C4F2010100F0BCF80498059900F08EF832
:1002C00004980221019100F0A3F80199049800F02C
:1002D00021F804980121039100F042F8039A049850
:1002E000114600F04FF8049800220292114600F0E7
:1002F00049F80299049800F079F80299049800F0FE
:100300009FF80399049800F017F80498FFF79AFFF4
:1003100006B080BD82B001908DF803100199086885
:1003200020F4405008609DF803200199086840EAD5
:100330000230086002B0704782B001908DF803105F
:100340000199086820F0200008609DF8030000F083
:1003500001020199086840EA4210086002B0704743
:1003600082B001908DF803100199086820F0100008
:1003700008609DF803200199086840EA02100860AF
:1003800002B0704782B001908DF803108DF8022002
:100390009DF80300C00778B1FFE70199086820F0D5
:1003A000800008609DF8020000F0010201990868D1
:1003B00040EAC21008600EE00199086820F0400091
:1003C00008609DF8020000F001020199086840EA07
:1003D00082100860FFE702B07047000082B0019011
:1003E000009100980199C86002B0704782B00190F6
:1003F0008DF803100199086820F4406008609DF8AA
:1004000003200199086840EA8220086002B0704722
:1004100082B00190ADF8021001980068C00728B9B9
:10042000FFE7BDF8020001994860FFE702B070479E
:1004300082B00190009100980199886002B07047E5
:1004400082B001908DF803100199086820F4407083
:1004500008609DF803200199086840EA02200860BE
:1004600002B0704781B08DF803009DF803100120A1
:1004700000FA01F241F21801C4F2020108681043C7
:10048000086001B07047000080B584B08DF80F009F
:100490008DF80E108DF80D209DF80F00FFF7E2FF8C
:1004A00041F21801C4F20201086840F0010008603E
:1004B0000421C4F20101086840F0007008609DF852
:1004C0000F000146009102280AD0FFE70098032898
:1004D00000F0C780FFE70098042800F0838142E223
:1004E0009DF80E00072855DCFFE79DF80E00800000
:1004F0008DF80C009DF80D00012815D1FFE79DF83F
:100500000C100F2000FA01F240F60001C4F20101C4
:100510000868904308609DF80C20082000FA02F259
:1005200008681043086034E09DF80D00A8B9FFE7A3
:100530009DF80C100F2000FA01F240F60001C4F201
:1005400001010868904308609DF80C20012000FA22
:1005500002F20868104308601AE09DF80D000228B6
:1005600015D1FFE79DF80C100F2000FA01F240F6BC
:100570000001C4F201010868904308609DF80C2056
:100580000A2000FA02F2086810430860FFE7FFE75C
:10059000FFE765E09DF80E200021072A0846C8BF46
:1005A0000120102AB8BF0121084258D0FFE79DF86A
:1005B0000E106FF01F0000EB81008DF80B009DF80E
:1005C0000D00012815D1FFE79DF80B100F2000FA50
:1005D00001F240F60401C4F201010868904308608A
:1005E0009DF80B20082000FA02F20868104308600A
:1005F00034E09DF80D00A8B9FFE79DF80B100F201F
:1006000000FA01F240F60401C4F2010108689043C7
:1006100008609DF80B20012000FA02F208681043E0
:1006200008601AE09DF80D00022815D1FFE79DF83B
:100630000B100F2000FA01F240F60401C4F2010190
:100640000868904308609DF80B200A2000FA02F227
:10065000086810430860FFE7FFE7FFE7FFE7FFE7F1
:1006600081E19DF80E00072855DCFFE79DF80E009C
:1006700080008DF80A009DF80D00012815D1FFE7D4
:100680009DF80A100F2000FA01F240F60041C4F272
:1006900001010868904308609DF80A20082000FACC
:1006A00002F208681043086034E09DF80D00A8B914
:1006B000FFE79DF80A100F2000FA01F240F6004112
:1006C000C4F201010868904308609DF80A200120E7
:1006D00000FA02F20868104308601AE09DF80D0065
:1006E000022815D1FFE79DF80A100F2000FA01F249
:1006F00040F60041C4F201010868904308609DF88B
:100700000A200A2000FA02F2086810430860FFE796
:10071000FFE7FFE765E09DF80E200021072A084665
:10072000C8BF0120102AB8BF0121084258D0FFE7F6
:100730009DF80E106FF01F0000EB81008DF809008E
:100740009DF80D00012815D1FFE79DF809100F2035
:1007500000FA01F240F60441C4F201010868904336
:1007600008609DF80920082000FA02F2086810438A
:10077000086034E09DF80D00A8B9FFE79DF8091066
:100780000F2000FA01F240F60441C4F201010868AA
:10079000904308609DF80920012000FA02F20868E1
:1007A000104308601AE09DF80D00022815D1FFE7FC
:1007B0009DF809100F2000FA01F240F60441C4F23E
:1007C00001010868904308609DF809200A2000FA9A
:1007D00002F2086810430860FFE7FFE7FFE7FFE762
:1007E000FFE7C0E09DF80E00072855DCFFE79DF805
:1007F0000E0080008DF808009DF80D00012815D12D
:10080000FFE79DF808100F2000FA01F241F2000105
:10081000C4F201010868904308609DF80820082090
:1008200000FA02F208681043086034E09DF80D00F9
:10083000A8B9FFE79DF808100F2000FA01F241F275
:100840000001C4F201010868904308609DF8082087
:10085000012000FA02F20868104308601AE09DF8CF
:100860000D00022815D1FFE79DF808100F2000FAAF
:1008700001F241F20001C4F20101086890430860EE
:100880009DF808200A2000FA02F208681043086068
:10089000FFE7FFE7FFE765E09DF80E200021072A4C
:1008A0000846C8BF0120102AB8BF0121084258D00D
:1008B000FFE79DF80E106FF01F0000EB81008DF830
:1008C00007009DF80D00012815D1FFE79DF80710DE
:1008D0000F2000FA01F241F20401C4F2010108689C
:1008E000904308609DF80720082000FA02F208688B
:1008F0001043086034E09DF80D00A8B9FFE79DF8AB
:1009000007100F2000FA01F241F20401C4F20101C4
:100910000868904308609DF80720012000FA02F261
:100920000868104308601AE09DF80D00022815D1F0
:10093000FFE79DF807100F2000FA01F241F20401D1
:10094000C4F201010868904308609DF807200A205E
:1009500000FA02F2086810430860FFE7FFE7FFE7CC
:10096000FFE7FFE7FFE704B080BD000082B08DF82D
:1009700007008DF806108DF805209DF80700014648
:100980000091022808D0FFE7009803282AD0FFE74B
:10099000009804284CD071E09DF80500C00768B9A4
:1009A000FFE79DF80610012000FA01F240F60C0165
:1009B000C4F2010108689043086012E09DF8050048
:1009C000C00768B1FFE79DF80610012000FA01F2A8
:1009D00040F60C01C4F20101086810430860FFE70B
:1009E000FFE74BE09DF80500C00768B9FFE79DF8F9
:1009F0000610012000FA01F240F60C41C4F2010198
:100A000008689043086012E09DF80500C00768B1CF
:100A1000FFE79DF80610012000FA01F240F60C41B4
:100A2000C4F20101086810430860FFE7FFE725E012
:100A30009DF80500C00768B9FFE79DF80610012082
:100A400000FA01F241F20C01C4F20101086890437E
:100A5000086012E09DF80500C00768B1FFE79DF847
:100A60000610012000FA01F241F20C01C4F201016A
:100A7000086810430860FFE7FFE7FFE702B0704730
:100A800082B08DF807008DF806109DF80700023837
:100A900001460091032840D80099DFE801F00211D7
:100AA000202F9DF8060000F11001012000FA01F24C
:100AB00040F61001C4F201010868104308602CE000
:100AC0009DF8060000F11001012000FA01F240F645
:100AD0001041C4F201010868104308601DE09DF850
:100AE000060000F11001012000FA01F241F21001AC
:100AF000C4F201010868104308600EE09DF806008A
:100B000000F11001012000FA01F241F21041C4F29B
:100B10000101086810430860FFE702B07047000059
:100B200082B08DF807008DF806109DF80700023896
:100B300001460091032838D80099DFE801F0020F40
:100B40001C299DF80610012000FA01F240F6100160
:100B5000C4F2010108681043086026E09DF8061001
:100B6000012000FA01F240F61041C4F201010868C8
:100B70001043086019E09DF80610012000FA01F208
:100B800041F21001C4F201010868104308600CE052
:100B90009DF80610012000FA01F241F21041C4F262
:100BA0000101086810430860FFE702B070470000C9
:100BB00080B582B08DF807008DF806108DF80520FD
:100BC00000F00EF89DF8070000F040F89DF80600D0
:100BD00000F048F89DF8050000F02CF802B080BD48
:100BE00080B50C20012100F001F880BD80B586B0F1
:100BF0008DF817008DF8161002200390042104913F
:100C0000FFF73EFF43F20000C4F2010001900DF136
:100C100017010122029200F071F90198029A0DF178
:100C2000160100F06BF903980499FFF779FF06B0FD
:100C300080BD000080B582B08DF807009DF80710D8
:100C40000920FFF7D3FF02B080BD000080B582B05D
:100C50008DF807009DF807100A20FFF7C7FF02B0C4
:100C600080BD000080B582B08DF807009DF80710A8
:100C70000B20FFF7BBFF02B080BD000081B00090E9
:100C8000FFE7009800898007002801D4FFE7F8E714
:100C9000FFE7009800890006002801D5FFE7F8E784
:100CA0000099088820F04000088001B070470000DB
:100CB00081B000900099088840F04000088001B0A1
:100CC0007047000081B00090009843F20001C4F228
:100CD0000101884209D1FFE741F21801C4F2020183
:100CE000086840F48050086011E0009843F6000165
:100CF000C4F20001884209D1FFE741F21C01C4F2AD
:100D00000201086840F480400860FFE7FFE701B097
:100D10007047000080B586B00590059843F2000149
:100D2000C4F2010188421CD1FFE702200490042193
:100D300003910022FFF7A8FB039904980122FFF713
:100D400015FE049A05211046FFF79EFB049A062122
:100D50001046FFF799FB049A07211046FFF794FB12
:100D600025E0059843F60001C4F2000188421DD138
:100D7000FFE7032001900C2100910022FFF784FB84
:100D8000009901980122FFF7F1FD01980D2102223F
:100D90000292FFF779FB0198029A0E21FFF774FB8C
:100DA0000198029A0F21FFF76FFBFFE7FFE706B0FC
:100DB00080BD000080B584B003908DF80B100398BF
:100DC000FFF780FF03980021019100F02BF80199B3
:100DD000039800F015F803989DF80B1000F046F802
:100DE000039800F055F8039800F074F801990398FF
:100DF00000F02AF80398FFF78DFF04B080BD0000D3
:100E000082B001908DF803100199088820F001004C
:100E100008809DF80320019908881043088002B0DB
:100E20007047000082B001908DF803100199088886
:100E300020F0020008809DF803200199088840EA0C
:100E40004200088002B0704782B001908DF8031014
:100E50000199088820F0800008809DF803200199FE
:100E6000088840EAC210088002B0704782B0019042
:100E70008DF803100199088820F0040008809DF87F
:100E800003200199088840EA8200088002B0704778
:100E900081B00090009843F20001C4F20101884241
:100EA00006D1FFE70099088840F0100008800EE0A6
:100EB000009843F60001C4F20001884206D1FFE722
:100EC0000099088840F008000880FFE7FFE701B0BC
:100ED0007047000081B000900099088820F40070ED
:100EE00008800099088840F40070088000990888FC
:100EF00040F48070088001B07047000080B584B075
:100F0000039002918DF807200398FFF7D1FE00208F
:100F10008DF80600FFE79DF806009DF8071088424F
:100F200014DAFFE7FFE7039800898007002801D45F
:100F3000FFE7F8E702989DF80610405C0399888166
:100F40009DF8060001308DF80600E4E7FFE70398FE
:100F500000898007002801D4FFE7F8E7FFE703983E
:100F600000890006002801D5FFE7F8E743F20C00EE
:100F7000C4F2010000888DF8050043F20800C4F2B5
:100F8000010000888DF8050004B080BD80B584B0F4
:100F9000039002918DF807200298FFF77BF90399DF
:100FA000888840F002008880FFE70020C4F2020039
:100FB00000688005002801D4FFE7F6E70398FFF7F3
:100FC00077FE0399888820F0020088800398FFF755
:100FD00055FE04B080BD000080B500F001F880BD72
:100FE00084B000200390029041F20001C4F202019B
:100FF000086840F480300860FFE741F20000C4F266
:101000000200006800F40030029003980130039061
:10101000FFE702990020019039B9FFE70398B0F586
:10102000A06018BF01200190FFE70198C0070028C9
:10103000E3D1FFE741F20000C4F202000068800340
:10104000002803D5FFE70120029002E00020029073
:10105000FFE70298012851D1FFE742F20001C4F2F4
:101060000201086840F010000860086820F00700DE
:101070000860086840F00200086041F20401C4F210
:10108000020100910868086008680860086840F478
:1010900080600860086820F47C100860086840F4EC
:1010A000E810086041F20001C4F20201086840F053
:1010B00080700860FFE741F20000C4F2020000689F
:1010C0008001002801D4FFE7F5E741F20401C4F2F2
:1010D0000201086820F003000860086840F0020080
:1010E0000860FFE741F20400C4F20200006800F06B
:1010F0000C00082801D0FFE7F4E700E0FFE704B0A8
:101100007047000080B541F20002C4F2020210688C
:1011100040F00100106041F20401C4F202010868CD
:101120000023CFF6FF031840086010684FF6FF73E6
:10113000CFF6F66318401060106820F4802010602D
:10114000086820F4FE00086041F20801C4F20201C0
:101150004FF41F000860FFF73FFF4EF60851CEF234
:1011600000014FF00060086080BD000041F21C01EA
:10117000C4F20201086840F0010008602C21C4F2AA
:1011800000014FF6FE7008802821C4F200014720BC
:1011900008804FF08041088840F001000880FFE798
:1011A0001020C4F200000088C00708B9FFE7F7E785
:1011B0007047000080B582B0ADF806000020ADF8A1
:1011C0000400FFE7BDF80400BDF8061088420BDA02
:1011D000FFE74FF47A7000F009F8FFE7BDF804006C
:1011E0000130ADF80400EDE702B080BD80B582B0FB
:1011F000ADF80600FFF7BAFF2421C4F20001002079
:101200000880FFE72420C4F200000088BDF8061023
:10121000884201DAFFE7F5E702B080BD80B588B00B
:10122000002006900790FFF76DFF43F20000C4F224
:101230000100049001210591FFF7BCFD0498059978
:10124000FFF7F0FD069A0A200721FFF7B1FCFFE740
:1012500040F26801C2F2000140F20000C2F2000058
:10126000019008600220029004210391FFF708FC1E
:101270000199029A43F20000C4F20100FFF786FED2
:1012800002980399FFF74CFC6420FFF793FFDFE718
:10129000B01200080000002004000000280100082F
:1012A000B41200080800002068060000440100088D
:0412B00031320000D7
:040000050800018965
:00000001FF
