:020000040800F2
:10000000600600206D0100087501000877010008F6
:10001000790100087B0100087D0100080000000054
:100020000000000000000000000000007F01000848
:10003000810100080000000083010008850100081C
:100040008701000887010008870100088701000870
:100050008701000887010008870100088701000860
:100060008701000887010008870100088701000850
:100070008701000887010008870100088701000840
:100080008701000887010008870100088701000830
:100090008701000887010008870100088701000820
:1000A0008701000887010008870100088701000810
:1000B0008701000887010008870100088701000800
:1000C00087010008870100088701000887010008F0
:1000D00087010008870100088701000887010008E0
:1000E00087010008870100088701000800F002F876
:1000F00000F02CF80AA090E8000C82448344AAF196
:100100000107DA4501D100F021F8AFF2090EBAE893
:100110000F0013F0010F18BFFB1A43F0010318473B
:10012000C00A0000D00A0000002300240025002699
:10013000103A28BF78C1FBD8520728BF30C148BF4A
:100140000B6070471FB51FBD10B510BD00F031F832
:100150001146FFF7F7FF00F027FD00F04FF803B45A
:10016000FFF7F2FF03BC00F057F800000948804792
:1001700009480047FEE7FEE7FEE7FEE7FEE7FEE789
:10018000FEE7FEE7FEE7FEE704480549054A064BA1
:1001900070470000950A0008ED000008600000208C
:1001A0006006002060020020600200207047704757
:1001B0007047754600F02CF8AE4605006946534678
:1001C00020F00700854618B020B5FFF7DDFFBDE839
:1001D00020404FF000064FF000074FF000084FF0AE
:1001E000000BAC46ACE8C009ACE8C009ACE8C009FB
:1001F000ACE8C00921F007018D46704710B50446F0
:10020000AFF300802046BDE81040FFF7A8BF000014
:10021000004870470000002001491820ABBEFEE7EF
:10022000260002007047000081B08DF803009DF8A1
:100230000310012000FA01F241F21801C4F2020198
:1002400008681043086001B0704700008CB08DF85A
:100250002F008DF82E108DF82D2041F21801C4F2D8
:100260000201086840F0010008600421C4F20101A5
:10027000086840F0007008609DF82F0002380146C1
:100280000091042800F2C9820099DFE811F005000E
:1002900092001F01AC0139029DF82E0007283ADCBC
:1002A000FFE79DF82D00012811D1FFE79DF82E10E2
:1002B00001EB41000844C11C012000FA01F240F6A4
:1002C0000001C4F2010108681043086022E09DF8B3
:1002D0002D00F0B9FFE79DF82E0080000A900A99E2
:1002E000012000FA01F340F60001C4F201010A689E
:1002F0001A430A600A9A013200FA02F30A689A4322
:100300000A600A9A023200FA02F208689043086012
:10031000FFE7FFE74CE09DF82E200021072A084662
:10032000C8BF0120102AB8BF012108423FD0FFE713
:100330009DF82D00012813D1FFE79DF82E00A0F1B4
:10034000080101EB41000844C11C012000FA01F240
:1003500040F60401C4F2010108681043086025E07A
:100360009DF82D0008BBFFE79DF82E00083800EB34
:100370004001084409900999012000FA01F340F670
:100380000401C4F201010A681A430A60099A0132A1
:1003900000FA02F30A689A430A60099A023200FAE4
:1003A00002F2086890430860FFE7FFE7FFE7FFE716
:1003B00033E29DF82E0007283ADCFFE79DF82D0078
:1003C000012811D1FFE79DF82E1001EB41000844F0
:1003D000C11C012000FA01F240F60041C4F2010103
:1003E00008681043086022E09DF82D00F0B9FFE78F
:1003F0009DF82E00800008900899012000FA01F372
:1004000040F60041C4F201010A681A430A60089AE2
:10041000013200FA02F30A689A430A60089A02322B
:1004200000FA02F2086890430860FFE7FFE74CE03B
:100430009DF82E200021072A0846C8BF0120102A57
:10044000B8BF012108423FD0FFE79DF82D000128E9
:1004500013D1FFE79DF82E00A0F1080101EB410048
:100460000844C11C012000FA01F240F60441C4F224
:10047000010108681043086025E09DF82D0008BBC5
:10048000FFE79DF82E00083800EB40010844079074
:100490000799012000FA01F340F60441C4F201017A
:1004A0000A681A430A60079A013200FA02F30A68DE
:1004B0009A430A60079A023200FA02F208689043EF
:1004C0000860FFE7FFE7FFE7FFE7A6E19DF82E00E2
:1004D00007283ADCFFE79DF82D00012811D1FFE73E
:1004E0009DF82E1001EB41000844C11C012000FAC8
:1004F00001F241F20001C4F20101086810430860F2
:1005000022E09DF82D00F0B9FFE79DF82E00800055
:1005100006900699012000FA01F341F20001C4F2AD
:1005200001010A681A430A60069A013200FA02F3CE
:100530000A689A430A60069A023200FA02F20868D0
:1005400090430860FFE7FFE74CE09DF82E20002174
:10055000072A0846C8BF0120102AB8BF0121084257
:100560003FD0FFE79DF82D00012813D1FFE79DF84C
:100570002E00A0F1080101EB41000844C11C01203C
:1005800000FA01F241F20401C4F2010108681043CB
:10059000086025E09DF82D0008BBFFE79DF82E00C0
:1005A000083800EB4001084405900599012000FA45
:1005B00001F341F20401C4F201010A681A430A601E
:1005C000059A013200FA02F30A689A430A60059A12
:1005D000023200FA02F2086890430860FFE7FFE782
:1005E000FFE7FFE719E19DF82E0007283ADCFFE757
:1005F0009DF82D00012811D1FFE79DF82E1001EB89
:1006000041000844C11C012000FA01F241F20041FE
:10061000C4F2010108681043086022E09DF82D0033
:10062000F0B9FFE79DF82E008000049004990120A6
:1006300000FA01F341F20041C4F201010A681A43D1
:100640000A60049A013200FA02F30A689A430A60C7
:10065000049A023200FA02F2086890430860FFE749
:10066000FFE74CE09DF82E200021072A0846C8BF6E
:100670000120102AB8BF012108423FD0FFE79DF8B2
:100680002D00012813D1FFE79DF82E00A0F10801ED
:1006900001EB41000844C11C012000FA01F241F2C3
:1006A0000441C4F2010108681043086025E09DF888
:1006B0002D0008BBFFE79DF82E00083800EB400135
:1006C000084403900399012000FA01F341F2044128
:1006D000C4F201010A681A430A60039A013200FA5F
:1006E00002F30A689A430A60039A023200FA02F29D
:1006F000086890430860FFE7FFE7FFE7FFE78CE04B
:100700009DF82E0007283ADCFFE79DF82D00012810
:1007100011D1FFE79DF82E1001EB41000844C11CE8
:10072000012000FA01F241F60001C4F2010108685B
:100730001043086022E09DF82D00F0B9FFE79DF816
:100740002E00800002900299012000FA01F341F688
:100750000001C4F201010A681A430A60029A0132D8
:1007600000FA02F30A689A430A60029A023200FA17
:1007700002F2086890430860FFE7FFE74CE09DF84D
:100780002E200021072A0846C8BF0120102AB8BF22
:10079000012108423FD0FFE79DF82D00012813D129
:1007A000FFE79DF82E00A0F1080101EB410008448D
:1007B000C11C012000FA01F241F60401C4F201015A
:1007C00008681043086025E09DF82D0008BBFFE78E
:1007D0009DF82E00083800EB400108440190019973
:1007E000012000FA01F341F60401C4F201010A6894
:1007F0001A430A60019A013200FA02F30A689A4326
:100800000A60019A023200FA02F208689043086016
:10081000FFE7FFE7FFE7FFE7FFE70CB070470000E7
:1008200085B08DF813008DF812109DF81300014665
:100830000091022808D0FFE70098032833D0FFE793
:10084000009804285ED08CE040F60800C4F2010055
:1008500000689DF812200121914008400390039800
:1008600068B9FFE79DF81210012000FA01F240F686
:100870001001C4F2010108681043086012E00398F7
:1008800078B1FFE79DF8120000F11001012000FA95
:1008900001F240F61001C4F201010868104308603B
:1008A000FFE7FFE75DE040F60840C4F201000068A2
:1008B0009DF812200121914008400290029868B9E9
:1008C000FFE79DF81210012000FA01F240F61041F6
:1008D000C4F2010108681043086012E0029878B180
:1008E000FFE79DF8120000F11001012000FA01F26B
:1008F00040F61041C4F20101086810430860FFE7A8
:10090000FFE72EE041F20800C4F2010000689DF804
:1009100012200121914008400190019868B9FFE739
:100920009DF81210012000FA01F241F21001C4F208
:10093000010108681043086012E0019878B1FFE7F0
:100940009DF8120000F11001012000FA01F241F2BD
:100950001001C4F20101086810430860FFE7FFE7D7
:10096000FFE705B07047000080B500F001F880BDDA
:1009700084B000200390029041F20001C4F2020111
:10098000086840F480300860FFE741F20000C4F2DC
:100990000200006800F400300290039801300390D8
:1009A000FFE702990020019039B9FFE70398B0F5FD
:1009B000A06018BF01200190FFE70198C007002840
:1009C000E3D1FFE741F20000C4F2020000688003B7
:1009D000002803D5FFE70120029002E000200290EA
:1009E000FFE70298012851D1FFE742F20001C4F26B
:1009F0000201086840F010000860086820F0070055
:100A00000860086840F00200086041F20401C4F286
:100A1000020100910868086008680860086840F4EE
:100A200080600860086820F47C100860086840F462
:100A3000E810086041F20001C4F20201086840F0C9
:100A400080700860FFE741F20000C4F20200006815
:100A50008001002801D4FFE7F5E741F20401C4F268
:100A60000201086820F003000860086840F00200F6
:100A70000860FFE741F20400C4F20200006800F0E1
:100A80000C00082801D0FFE7F4E700E0FFE704B01E
:100A90007047000080B541F20002C4F20202106803
:100AA00040F00100106041F20401C4F20201086844
:100AB0000023CFF6FF031840086010684FF6FF735D
:100AC000CFF6F66318401060106820F480201060A4
:100AD000086820F4FE00086041F20801C4F2020137
:100AE0004FF41F000860FFF73FFF4EF60851CEF2AB
:100AF00000014FF00060086080BD000041F21C0161
:100B0000C4F20201086840F0010008602C21C4F220
:100B100000014FF6FE7008802821C4F20001472032
:100B200008804FF08041088840F001000880FFE70E
:100B30001020C4F200000088C00708B9FFE7F7E7FB
:100B40007047000080B582B0ADF806000020ADF817
:100B50000400FFE7BDF80400BDF8061088420BDA78
:100B6000FFE74FF47A7000F009F8FFE7BDF80400E2
:100B70000130ADF80400EDE702B080BD81B0ADF802
:100B800002002421C4F2000100200880FFE7242095
:100B9000C4F200000088BDF80210884201DAFFE7C5
:100BA000F5E701B07047000080B584B000200290E6
:100BB0000390FFF76FFFFFF7A1FF04200190FFF7FD
:100BC00033FB0198029A0D21FFF740FBFFE7042059
:100BD0000D21FFF725FE6420FFF7B4FFF7E70000C3
:100BE000F00B00080000002060060000280100084B
:040000050800016D81
:00000001FF
