:020000040800F2
:10000000680600206D0100087501000877010008EE
:10001000790100087B0100087D0100080000000054
:100020000000000000000000000000007F01000848
:10003000810100080000000083010008850100081C
:100040008701000887010008870100088701000870
:100050008701000887010008870100088701000860
:100060008701000887010008870100088701000850
:100070008701000887010008870100088701000840
:100080008701000887010008870100088701000830
:100090008701000887010008870100088701000820
:1000A0008701000887010008870100088701000810
:1000B0008701000887010008870100088701000800
:1000C00087010008870100088701000887010008F0
:1000D00087010008870100088701000887010008E0
:1000E00087010008870100088701000800F002F876
:1000F00000F02CF80AA090E8000C82448344AAF196
:100100000107DA4501D100F021F8AFF2090EBAE893
:100110000F0013F0010F18BFFB1A43F0010318473B
:10012000FC0B00000C0C000000230024002500261E
:10013000103A28BF78C1FBD8520728BF30C148BF4A
:100140000B6070471FB51FBD10B510BD00F031F832
:100150001146FFF7F7FF00F0A7FD00F04FF803B4DA
:10016000FFF7F2FF03BC00F057F800000948804792
:1001700009480047FEE7FEE7FEE7FEE7FEE7FEE789
:10018000FEE7FEE7FEE7FEE704480549054A064BA1
:1001900070470000950B0008ED0000086800002083
:1001A000680600206802002068020020704770473F
:1001B0007047754600F02CF8AE4605006946534678
:1001C00020F00700854618B020B5FFF7DDFFBDE839
:1001D00020404FF000064FF000074FF000084FF0AE
:1001E000000BAC46ACE8C009ACE8C009ACE8C009FB
:1001F000ACE8C00921F007018D46704710B50446F0
:10020000AFF300802046BDE81040FFF7A8BF000014
:10021000004870470000002001491820ABBEFEE7EF
:10022000260002007047000081B08DF803009DF8A1
:100230000310012000FA01F241F21801C4F2020198
:1002400008681043086001B07047000080B584B0B2
:100250008DF80F008DF80E108DF80D209DF80F0011
:10026000FFF7E2FF41F21801C4F20201086840F012
:10027000010008600421C4F20101086840F0007028
:1002800008609DF80F000146009102280AD0FFE7A0
:100290000098032800F0C780FFE70098042800F0CA
:1002A000838142E29DF80E00072855DCFFE79DF8A8
:1002B0000E0080008DF80C009DF80D00012815D16E
:1002C000FFE79DF80C100F2000FA01F240F6000144
:1002D000C4F201010868904308609DF80C200820D2
:1002E00000FA02F208681043086034E09DF80D003F
:1002F000A8B9FFE79DF80C100F2000FA01F240F6B4
:100300000001C4F201010868904308609DF80C20C8
:10031000012000FA02F20868104308601AE09DF814
:100320000D00022815D1FFE79DF80C100F2000FAF0
:1003300001F240F60001C4F2010108689043086030
:100340009DF80C200A2000FA02F2086810430860A9
:10035000FFE7FFE7FFE765E09DF80E200021072A91
:100360000846C8BF0120102AB8BF0121084258D052
:10037000FFE79DF80E106FF01F0000EB81008DF875
:100380000B009DF80D00012815D1FFE79DF80B101B
:100390000F2000FA01F240F60401C4F201010868DE
:1003A000904308609DF80B20082000FA02F20868CC
:1003B0001043086034E09DF80D00A8B9FFE79DF8F0
:1003C0000B100F2000FA01F240F60401C4F2010103
:1003D0000868904308609DF80B20012000FA02F2A3
:1003E0000868104308601AE09DF80D00022815D136
:1003F000FFE79DF80B100F2000FA01F240F6040110
:10040000C4F201010868904308609DF80B200A209F
:1004100000FA02F2086810430860FFE7FFE7FFE711
:10042000FFE7FFE781E19DF80E00072855DCFFE7B5
:100430009DF80E0080008DF80A009DF80D0001283F
:1004400015D1FFE79DF80A100F2000FA01F240F6DF
:100450000041C4F201010868904308609DF80A2039
:10046000082000FA02F208681043086034E09DF8A2
:100470000D00A8B9FFE79DF80A100F2000FA01F25D
:1004800040F60041C4F201010868904308609DF8FD
:100490000A20012000FA02F20868104308601AE0FE
:1004A0009DF80D00022815D1FFE79DF80A100F20D6
:1004B00000FA01F240F60041C4F2010108689043DD
:1004C00008609DF80A200A2000FA02F2086810432A
:1004D0000860FFE7FFE7FFE765E09DF80E200021D9
:1004E000072A0846C8BF0120102AB8BF01210842C8
:1004F00058D0FFE79DF80E106FF01F0000EB810051
:100500008DF809009DF80D00012815D1FFE79DF831
:1005100009100F2000FA01F240F60441C4F2010173
:100520000868904308609DF80920082000FA02F24C
:1005300008681043086034E09DF80D00A8B9FFE793
:100540009DF809100F2000FA01F240F60441C4F2B0
:1005500001010868904308609DF80920012000FA15
:1005600002F20868104308601AE09DF80D000228A6
:1005700015D1FFE79DF809100F2000FA01F240F6AF
:100580000441C4F201010868904308609DF8092005
:100590000A2000FA02F2086810430860FFE7FFE74C
:1005A000FFE7FFE7FFE7C0E09DF80E00072855DCF6
:1005B000FFE79DF80E0080008DF808009DF80D0003
:1005C000012815D1FFE79DF808100F2000FA01F26D
:1005D00041F20001C4F201010868904308609DF8EF
:1005E0000820082000FA02F208681043086034E08E
:1005F0009DF80D00A8B9FFE79DF808100F2000FA3C
:1006000001F241F20001C4F2010108689043086060
:100610009DF80820012000FA02F2086810430860E3
:100620001AE09DF80D00022815D1FFE79DF808108B
:100630000F2000FA01F241F20001C4F20101086842
:10064000904308609DF808200A2000FA02F208682A
:1006500010430860FFE7FFE7FFE765E09DF80E2025
:100660000021072A0846C8BF0120102AB8BF01216F
:10067000084258D0FFE79DF80E106FF01F0000EB06
:1006800081008DF807009DF80D00012815D1FFE7C6
:100690009DF807100F2000FA01F241F20401C4F2A4
:1006A00001010868904308609DF80720082000FABF
:1006B00002F208681043086034E09DF80D00A8B904
:1006C000FFE79DF807100F2000FA01F241F2040144
:1006D000C4F201010868904308609DF807200120DA
:1006E00000FA02F20868104308601AE09DF80D0055
:1006F000022815D1FFE79DF807100F2000FA01F23C
:1007000041F20401C4F201010868904308609DF8B9
:1007100007200A2000FA02F2086810430860FFE789
:10072000FFE7FFE7FFE7FFE7FFE704B080BD00005A
:1007300080B582B08DF807009DF8070000F006F83C
:100740009DF8070000F046F802B080BD81B08DF83A
:1007500003009DF8030001280AD1FFE740F2600082
:10076000C2F200000168088B40F0600008832FE0AF
:100770009DF8030002280AD1FFE740F26000C2F2B0
:1007800000000168088B40F4C04008831FE09DF81A
:10079000030003280AD1FFE740F26000C2F2000024
:1007A0000168888B40F0600088830FE09DF80300AB
:1007B00004280AD1FFE740F26000C2F2000001689D
:1007C000888B40F4C0408883FFE7FFE7FFE7FFE73F
:1007D00001B0704781B08DF803009DF80300012837
:1007E0000AD1FFE740F26000C2F200000168088C05
:1007F00040F0010008842FE09DF8030002280AD190
:10080000FFE740F26000C2F200000168088C40F08F
:10081000100008841FE09DF8030003280AD1FFE7B9
:1008200040F26000C2F200000168088C40F4807061
:1008300008840FE09DF8030004280AD1FFE740F286
:100840006000C2F200000168088C40F48050088407
:10085000FFE7FFE7FFE7FFE701B0704740F2600006
:10086000C2F200000168888A40F001008882704767
:1008700080B584B084460698CDF80CC0ADF80A1057
:10088000ADF80820ADF80630ADF80400039840F24A
:100890006001C2F200010860039800F09DF8BDF805
:1008A0000A0001380146009103283DD80099DFE88D
:1008B00001F002101E2CBDF80800013803990885CC
:1008C000BDF8060003998885BDF804000399888661
:1008D0002AE0BDF80800013803990885BDF8060034
:1008E00003998885BDF80400039908871CE0BDF8CA
:1008F0000800013803990885BDF80600039988852A
:10090000BDF80400039988870EE0BDF8080001389F
:1009100003990885BDF8060003998885BDF8040091
:100920000399A1F84000FFE79DF80A00FFF700FFD8
:1009300004B080BD82B0ADF80600ADF80410BDF87B
:100940000400013801460091032829D80099DFE806
:1009500001F0020B141DBDF8060040F26001C2F266
:100960000001096888861BE0BDF8060040F26001BE
:10097000C2F200010968088712E0BDF8060040F2E3
:100980006001C2F200010968888709E0BDF806002D
:1009900040F26001C2F200010968A1F84000FFE7DF
:1009A00002B0704780B582B00190FFF757FF019801
:1009B00000F002F802B080BD81B000900099088874
:1009C00040F001000880FFE70098008AC00708B9DE
:1009D000FFE7F9E701B0704781B00090009842F658
:1009E0000041C4F20101884209D1FFE741F2180138
:1009F000C4F20201086840F40060086032E0009828
:100A0000B0F1804F09D1FFE741F21C01C4F20201AD
:100A1000086840F00100086023E0009840F20041BF
:100A2000C4F20001884209D1FFE741F21C01C4F27F
:100A30000201086840F00200086011E0009840F6EA
:100A40000001C4F20001884209D1FFE741F21C0114
:100A5000C4F20201086840F004000860FFE7FFE705
:100A6000FFE7FFE701B0704780B500F001F880BDF7
:100A700084B000200390029041F20001C4F2020110
:100A8000086840F480300860FFE741F20000C4F2DB
:100A90000200006800F400300290039801300390D7
:100AA000FFE702990020019039B9FFE70398B0F5FC
:100AB000A06018BF01200190FFE70198C00700283F
:100AC000E3D1FFE741F20000C4F2020000688003B6
:100AD000002803D5FFE70120029002E000200290E9
:100AE000FFE70298012851D1FFE742F20001C4F26A
:100AF0000201086840F010000860086820F0070054
:100B00000860086840F00200086041F20401C4F285
:100B1000020100910868086008680860086840F4ED
:100B200080600860086820F47C100860086840F461
:100B3000E810086041F20001C4F20201086840F0C8
:100B400080700860FFE741F20000C4F20200006814
:100B50008001002801D4FFE7F5E741F20401C4F267
:100B60000201086820F003000860086840F00200F5
:100B70000860FFE741F20400C4F20200006800F0E0
:100B80000C00082801D0FFE7F4E700E0FFE704B01D
:100B90007047000080B541F20002C4F20202106802
:100BA00040F00100106041F20401C4F20201086843
:100BB0000023CFF6FF031840086010684FF6FF735C
:100BC000CFF6F66318401060106820F480201060A3
:100BD000086820F4FE00086041F20801C4F2020136
:100BE0004FF41F000860FFF73FFF4EF60851CEF2AA
:100BF00000014FF00060086080BD000041F21C0160
:100C0000C4F20201086840F0010008602C21C4F21F
:100C100000014FF6FE7008802821C4F20001472031
:100C200008804FF08041088840F001000880FFE70D
:100C30001020C4F200000088C00708B9FFE7F7E7FA
:100C40007047000080B582B0ADF806000020ADF816
:100C50000400FFE7BDF80400BDF8061088420BDA77
:100C6000FFE74FF47A7000F009F8FFE7BDF80400E1
:100C70000130ADF80400EDE702B080BD81B0ADF801
:100C800002002421C4F2000100200880FFE7242094
:100C9000C4F200000088BDF80210884201DAFFE7C4
:100CA000F5E701B07047000080B584B000200190E6
:100CB0000390FFF76FFFFFF7A1FF06210222104606
:100CC000FFF7C4FA68460121016040F20040C4F217
:100CD000000048226423FFF7CBFD01988DF80B003C
:100CE000FFE79DF80B000121FFF724FE40F20040D2
:100CF000C4F20000FFF756FE9DF80B000A308DF895
:100D00000B009DF80B00652804DBFFE700208DF841
:100D10000B00FFE7C820FFF795FFE2E72C0D000866
:0C0D200000000020680600002801000808
:040000050800016D81
:00000001FF
