:020000040800F2
:10000000680600206D0100087501000877010008EE
:10001000790100087B0100087D0100080000000054
:100020000000000000000000000000007F01000848
:10003000810100080000000083010008850100081C
:100040008701000887010008870100088701000870
:100050008701000887010008870100088701000860
:100060008701000887010008870100088701000850
:100070008701000887010008870100088701000840
:100080008701000887010008870100088701000830
:100090008701000887010008870100088701000820
:1000A0008701000887010008870100088701000810
:1000B0008701000887010008870100088701000800
:1000C00087010008870100088701000887010008F0
:1000D00087010008870100088701000887010008E0
:1000E00087010008870100088701000800F002F876
:1000F00000F02CF80AA090E8000C82448344AAF196
:100100000107DA4501D100F021F8AFF2090EBAE893
:100110000F0013F0010F18BFFB1A43F0010318473B
:10012000300D0000400D00000023002400250026B3
:10013000103A28BF78C1FBD8520728BF30C148BF4A
:100140000B6070471FB51FBD10B510BD00F031F832
:100150001146FFF7F7FF00F03FFE00F04FF803B441
:10016000FFF7F2FF03BC00F057F800000948804792
:1001700009480047FEE7FEE7FEE7FEE7FEE7FEE789
:10018000FEE7FEE7FEE7FEE704480549054A064BA1
:1001900070470000C50C0008ED0000086800002052
:1001A000680600206802002068020020704770473F
:1001B0007047754600F02CF8AE4605006946534678
:1001C00020F00700854618B020B5FFF7DDFFBDE839
:1001D00020404FF000064FF000074FF000084FF0AE
:1001E000000BAC46ACE8C009ACE8C009ACE8C009FB
:1001F000ACE8C00921F007018D46704710B50446F0
:10020000AFF300802046BDE81040FFF7A8BF000014
:10021000004870470000002001491820ABBEFEE7EF
:10022000260002007047000081B08DF803009DF8A1
:100230000310012000FA01F241F21801C4F2020198
:1002400008681043086001B0704700008CB08DF85A
:100250002F008DF82E108DF82D2041F21801C4F2D8
:100260000201086840F0010008600421C4F20101A5
:10027000086840F0007008609DF82F0002380146C1
:100280000091042800F2C9820099DFE811F005000E
:1002900092001F01AC0139029DF82E0007283ADCBC
:1002A000FFE79DF82D00012811D1FFE79DF82E10E2
:1002B00001EB41000844C11C012000FA01F240F6A4
:1002C0000001C4F2010108681043086022E09DF8B3
:1002D0002D00F0B9FFE79DF82E0080000A900A99E2
:1002E000012000FA01F340F60001C4F201010A689E
:1002F0001A430A600A9A013200FA02F30A689A4322
:100300000A600A9A023200FA02F208689043086012
:10031000FFE7FFE74CE09DF82E200021072A084662
:10032000C8BF0120102AB8BF012108423FD0FFE713
:100330009DF82D00012813D1FFE79DF82E00A0F1B4
:10034000080101EB41000844C11C012000FA01F240
:1003500040F60401C4F2010108681043086025E07A
:100360009DF82D0008BBFFE79DF82E00083800EB34
:100370004001084409900999012000FA01F340F670
:100380000401C4F201010A681A430A60099A0132A1
:1003900000FA02F30A689A430A60099A023200FAE4
:1003A00002F2086890430860FFE7FFE7FFE7FFE716
:1003B00033E29DF82E0007283ADCFFE79DF82D0078
:1003C000012811D1FFE79DF82E1001EB41000844F0
:1003D000C11C012000FA01F240F60041C4F2010103
:1003E00008681043086022E09DF82D00F0B9FFE78F
:1003F0009DF82E00800008900899012000FA01F372
:1004000040F60041C4F201010A681A430A60089AE2
:10041000013200FA02F30A689A430A60089A02322B
:1004200000FA02F2086890430860FFE7FFE74CE03B
:100430009DF82E200021072A0846C8BF0120102A57
:10044000B8BF012108423FD0FFE79DF82D000128E9
:1004500013D1FFE79DF82E00A0F1080101EB410048
:100460000844C11C012000FA01F240F60441C4F224
:10047000010108681043086025E09DF82D0008BBC5
:10048000FFE79DF82E00083800EB40010844079074
:100490000799012000FA01F340F60441C4F201017A
:1004A0000A681A430A60079A013200FA02F30A68DE
:1004B0009A430A60079A023200FA02F208689043EF
:1004C0000860FFE7FFE7FFE7FFE7A6E19DF82E00E2
:1004D00007283ADCFFE79DF82D00012811D1FFE73E
:1004E0009DF82E1001EB41000844C11C012000FAC8
:1004F00001F241F20001C4F20101086810430860F2
:1005000022E09DF82D00F0B9FFE79DF82E00800055
:1005100006900699012000FA01F341F20001C4F2AD
:1005200001010A681A430A60069A013200FA02F3CE
:100530000A689A430A60069A023200FA02F20868D0
:1005400090430860FFE7FFE74CE09DF82E20002174
:10055000072A0846C8BF0120102AB8BF0121084257
:100560003FD0FFE79DF82D00012813D1FFE79DF84C
:100570002E00A0F1080101EB41000844C11C01203C
:1005800000FA01F241F20401C4F2010108681043CB
:10059000086025E09DF82D0008BBFFE79DF82E00C0
:1005A000083800EB4001084405900599012000FA45
:1005B00001F341F20401C4F201010A681A430A601E
:1005C000059A013200FA02F30A689A430A60059A12
:1005D000023200FA02F2086890430860FFE7FFE782
:1005E000FFE7FFE719E19DF82E0007283ADCFFE757
:1005F0009DF82D00012811D1FFE79DF82E1001EB89
:1006000041000844C11C012000FA01F241F20041FE
:10061000C4F2010108681043086022E09DF82D0033
:10062000F0B9FFE79DF82E008000049004990120A6
:1006300000FA01F341F20041C4F201010A681A43D1
:100640000A60049A013200FA02F30A689A430A60C7
:10065000049A023200FA02F2086890430860FFE749
:10066000FFE74CE09DF82E200021072A0846C8BF6E
:100670000120102AB8BF012108423FD0FFE79DF8B2
:100680002D00012813D1FFE79DF82E00A0F10801ED
:1006900001EB41000844C11C012000FA01F241F2C3
:1006A0000441C4F2010108681043086025E09DF888
:1006B0002D0008BBFFE79DF82E00083800EB400135
:1006C000084403900399012000FA01F341F2044128
:1006D000C4F201010A681A430A60039A013200FA5F
:1006E00002F30A689A430A60039A023200FA02F29D
:1006F000086890430860FFE7FFE7FFE7FFE78CE04B
:100700009DF82E0007283ADCFFE79DF82D00012810
:1007100011D1FFE79DF82E1001EB41000844C11CE8
:10072000012000FA01F241F60001C4F2010108685B
:100730001043086022E09DF82D00F0B9FFE79DF816
:100740002E00800002900299012000FA01F341F688
:100750000001C4F201010A681A430A60029A0132D8
:1007600000FA02F30A689A430A60029A023200FA17
:1007700002F2086890430860FFE7FFE74CE09DF84D
:100780002E200021072A0846C8BF0120102AB8BF22
:10079000012108423FD0FFE79DF82D00012813D129
:1007A000FFE79DF82E00A0F1080101EB410008448D
:1007B000C11C012000FA01F241F60401C4F201015A
:1007C00008681043086025E09DF82D0008BBFFE78E
:1007D0009DF82E00083800EB400108440190019973
:1007E000012000FA01F341F60401C4F201010A6894
:1007F0001A430A60019A013200FA02F30A689A4326
:100800000A60019A023200FA02F208689043086016
:10081000FFE7FFE7FFE7FFE7FFE70CB070470000E7
:1008200080B582B08DF807009DF8070000F006F84B
:100830009DF8070000F056F802B080BD81B08DF839
:1008400003009DF8030001280AD1FFE740F2600091
:10085000C2F200000168088B40F0600008832FE0BE
:100860009DF8030002280AD1FFE740F26000C2F2BF
:1008700000000168088B40F4C04008831FE09DF829
:10088000030003280AD1FFE740F26000C2F2000033
:100890000168888B40F0600088830FE09DF80300BA
:1008A00004280AD1FFE740F26000C2F200000168AC
:1008B000888B40F4C0408883FFE7FFE7FFE7FFE74E
:1008C00001B0704780B582B068460121016040F2F6
:1008D0000040C4F200004822642300F051F802B046
:1008E00080BD000081B08DF803009DF80300012851
:1008F0000AD1FFE740F26000C2F200000168088CF4
:1009000040F0010008842FE09DF8030002280AD17E
:10091000FFE740F26000C2F200000168088C40F07E
:10092000100008841FE09DF8030003280AD1FFE7A8
:1009300040F26000C2F200000168088C40F4807050
:1009400008840FE09DF8030004280AD1FFE740F275
:100950006000C2F200000168088C40F480500884F6
:10096000FFE7FFE7FFE7FFE701B0704740F26000F5
:10097000C2F200000168888A40F001008882704756
:1009800080B584B084460698CDF80CC0ADF80A1046
:10099000ADF80820ADF80630ADF80400039840F239
:1009A0006001C2F200010860039800F0ADF8022077
:1009B000FFF73AFCBDF80A00013801460091032810
:1009C0003DD80099DFE801F002101E2CBDF80800A8
:1009D000013803990885BDF8060003998885BDF89C
:1009E0000400039988862AE0BDF8080001380399BD
:1009F0000885BDF8060003998885BDF804000399B1
:100A000008871CE0BDF80800013803990885BDF887
:100A1000060003998885BDF80400039988870EE0D5
:100A2000BDF80800013803990885BDF80600039950
:100A30008885BDF804000399A1F84000FFE79DF800
:100A40000A00FFF7EDFE04B080BD000082B0ADF8F3
:100A50000600ADF80410BDF804000138014600910D
:100A6000032829D80099DFE801F0020B141DBDF816
:100A7000060040F26001C2F20001096888861BE0AE
:100A8000BDF8060040F26001C2F200010968088763
:100A900012E0BDF8060040F26001C2F200010968F0
:100AA000888709E0BDF8060040F26001C2F200014B
:100AB0000968A1F84000FFE702B0704780B582B036
:100AC0000190FFF753FF019800F00EF840F6000187
:100AD000C4F20101086840F020600860086820F056
:100AE0008060086002B080BD81B0009000990888E5
:100AF00040F001000880FFE70098008AC00708B9AD
:100B0000FFE7F9E701B0704781B00090009842F626
:100B10000041C4F20101884209D1FFE741F2180106
:100B2000C4F20201086840F40060086032E00098F6
:100B3000B0F1804F09D1FFE741F21C01C4F202017C
:100B4000086840F00100086023E0009840F200418E
:100B5000C4F20001884209D1FFE741F21C01C4F24E
:100B60000201086840F00200086011E0009840F6B9
:100B70000001C4F20001884209D1FFE741F21C01E3
:100B8000C4F20201086840F004000860FFE7FFE7D4
:100B9000FFE7FFE701B0704780B500F001F880BDC6
:100BA00084B000200390029041F20001C4F20201DF
:100BB000086840F480300860FFE741F20000C4F2AA
:100BC0000200006800F400300290039801300390A6
:100BD000FFE702990020019039B9FFE70398B0F5CB
:100BE000A06018BF01200190FFE70198C00700280E
:100BF000E3D1FFE741F20000C4F202000068800385
:100C0000002803D5FFE70120029002E000200290B7
:100C1000FFE70298012851D1FFE742F20001C4F238
:100C20000201086840F010000860086820F0070022
:100C30000860086840F00200086041F20401C4F254
:100C4000020100910868086008680860086840F4BC
:100C500080600860086820F47C100860086840F430
:100C6000E810086041F20001C4F20201086840F097
:100C700080700860FFE741F20000C4F202000068E3
:100C80008001002801D4FFE7F5E741F20401C4F236
:100C90000201086820F003000860086840F00200C4
:100CA0000860FFE741F20400C4F20200006800F0AF
:100CB0000C00082801D0FFE7F4E700E0FFE704B0EC
:100CC0007047000080B541F20002C4F202021068D1
:100CD00040F00100106041F20401C4F20201086812
:100CE0000023CFF6FF031840086010684FF6FF732B
:100CF000CFF6F66318401060106820F48020106072
:100D0000086820F4FE00086041F20801C4F2020104
:100D10004FF41F000860FFF73FFF4EF60851CEF278
:100D200000014FF00060086080BD000041F21C012E
:100D3000C4F20201086840F0010008602C21C4F2EE
:100D400000014FF6FE7008802821C4F20001472000
:100D500008804FF08041088840F001000880FFE7DC
:100D60001020C4F200000088C00708B9FFE7F7E7C9
:100D70007047000080B582B0ADF806000020ADF8E5
:100D80000400FFE7BDF80400BDF8061088420BDA46
:100D9000FFE74FF47A7000F009F8FFE7BDF80400B0
:100DA0000130ADF80400EDE702B080BD81B0ADF8D0
:100DB00002002421C4F2000100200880FFE7242063
:100DC000C4F200000088BDF80210884201DAFFE793
:100DD000F5E701B07047000080B584B000200190B5
:100DE0000390FFF76FFF04200090FFF71DFA0098B3
:100DF000019A0D21FFF72AFAFFF798FFFFF762FD2E
:100E000040F20040C4F20000FFF758FE01988DF850
:100E10000B00FFE79DF80B000121FFF717FE40F2E2
:100E20000040C4F20000FFF749FE9DF80B000A30B5
:100E30008DF80B009DF80B00652804DBFFE7002010
:100E40008DF80B00FFE7C820FFF794FFE2E70000F2
:100E5000600E00080000002068060000280100085D
:040000050800016D81
:00000001FF
