:020000040800F2
:10000000880600208901000891010008930100087A
:100010009501000897010008990100080000000000
:100020000000000000000000000000009B0100082C
:100030009D010008000000009F010008A1010008C8
:10004000A3010008A3010008A3010008A301000800
:10005000A3010008A3010008A3010008A3010008F0
:10006000A3010008A3010008A3010008A3010008E0
:10007000A3010008A3010008A3010008A3010008D0
:10008000A3010008A3010008A3010008A3010008C0
:10009000A3010008A3010008A3010008A3010008B0
:1000A000A3010008A90A0008A3010008A301000891
:1000B000A3010008A3010008A3010008A301000890
:1000C000A3010008A3010008A3010008A301000880
:1000D000A3010008A3010008A3010008A301000870
:1000E000A3010008A3010008A301000800F002F822
:1000F00000F03AF80AA090E8000C82448344AAF188
:100100000107DA4501D100F02FF8AFF2090EBAE885
:100110000F0013F0010F18BFFB1A43F0010318473B
:10012000882E0000A82E0000103A24BF78C878C19D
:10013000FAD8520724BF30C830C144BF04680C60ED
:10014000704700000023002400250026103A28BF35
:1001500078C1FBD8520728BF30C148BF0B60704739
:100160001FB51FBD10B510BD00F044F81146FFF7D4
:10017000F7FF01F01DF800F062F803B4FFF7F2FF9B
:1001800003BC00F065F800000948804709480047B3
:10019000FEE7FEE7FEE7FEE7FEE7FEE7FEE7FEE737
:1001A000FEE7FEE704480549054A064B7047000094
:1001B000E5090008ED0000088800002088060020FE
:1001C000880200208802002070477047704710B5F1
:1001D00000F008F8006810BD10B5044600F002F801
:1001E000046010BD004870471000002000487047B0
:1001F000100000207546FFF7F9FFAE46050069467E
:10020000534620F00700854618B020B5FFF7CAFF17
:10021000BDE820404FF000064FF000074FF0000807
:100220004FF0000BAC46ACE8C009ACE8C009ACE844
:10023000C009ACE8C00921F007018D46704710B530
:100240000446AFF300802046BDE81040FFF795BF9D
:1002500001491820ABBEFEE72600020070470000EF
:1002600081B08DF803009DF80310012000FA01F21F
:1002700041F21801C4F2020108681043086001B09D
:100280007047000080B584B08DF80F008DF80E1017
:100290008DF80D209DF80F00FFF7E2FF41F21801E5
:1002A000C4F20201086840F0010008600421C4F2B1
:1002B0000101086840F0007008609DF80F000146D9
:1002C000009102280AD0FFE70098032800F0C780B9
:1002D000FFE70098042800F0838142E29DF80E00B9
:1002E000072855DCFFE79DF80E0080008DF80C0014
:1002F0009DF80D00012815D1FFE79DF80C100F2087
:1003000000FA01F240F60001C4F2010108689043CE
:1003100008609DF80C20082000FA02F208681043DB
:10032000086034E09DF80D00A8B9FFE79DF80C10B7
:100330000F2000FA01F240F60001C4F20101086842
:10034000904308609DF80C20012000FA02F2086832
:10035000104308601AE09DF80D00022815D1FFE750
:100360009DF80C100F2000FA01F240F60001C4F2D3
:1003700001010868904308609DF80C200A2000FAEB
:1003800002F2086810430860FFE7FFE7FFE765E057
:100390009DF80E200021072A0846C8BF0120102A18
:1003A000B8BF0121084258D0FFE79DF80E106FF04A
:1003B0001F0000EB81008DF80B009DF80D00012857
:1003C00015D1FFE79DF80B100F2000FA01F240F65F
:1003D0000401C4F201010868904308609DF80B20F5
:1003E000082000FA02F208681043086034E09DF823
:1003F0000D00A8B9FFE79DF80B100F2000FA01F2DD
:1004000040F60401C4F201010868904308609DF8B9
:100410000B20012000FA02F20868104308601AE07D
:100420009DF80D00022815D1FFE79DF80B100F2055
:1004300000FA01F240F60401C4F201010868904399
:1004400008609DF80B200A2000FA02F208681043A9
:100450000860FFE7FFE7FFE7FFE7FFE781E19DF8BF
:100460000E00072855DCFFE79DF80E0080008DF890
:100470000A009DF80D00012815D1FFE79DF80A102C
:100480000F2000FA01F240F60041C4F201010868B1
:10049000904308609DF80A20082000FA02F20868DC
:1004A0001043086034E09DF80D00A8B9FFE79DF8FF
:1004B0000A100F2000FA01F240F60041C4F20101D7
:1004C0000868904308609DF80A20012000FA02F2B3
:1004D0000868104308601AE09DF80D00022815D145
:1004E000FFE79DF80A100F2000FA01F240F60041E4
:1004F000C4F201010868904308609DF80A200A20B0
:1005000000FA02F2086810430860FFE7FFE7FFE720
:1005100065E09DF80E200021072A0846C8BF01208B
:10052000102AB8BF0121084258D0FFE79DF80E10ED
:100530006FF01F0000EB81008DF809009DF80D00A1
:10054000012815D1FFE79DF809100F2000FA01F2EC
:1005500040F60441C4F201010868904308609DF828
:100560000920082000FA02F208681043086034E00D
:100570009DF80D00A8B9FFE79DF809100F2000FABB
:1005800001F240F60441C4F201010868904308609A
:100590009DF80920012000FA02F208681043086063
:1005A0001AE09DF80D00022815D1FFE79DF809100B
:1005B0000F2000FA01F240F60441C4F2010108687C
:1005C000904308609DF809200A2000FA02F20868AA
:1005D00010430860FFE7FFE7FFE7FFE7FFE7C0E042
:1005E0009DF80E00072855DCFFE79DF80E008000FF
:1005F0008DF808009DF80D00012815D1FFE79DF842
:1006000008100F2000FA01F241F20001C4F20101CA
:100610000868904308609DF80820082000FA02F25C
:1006200008681043086034E09DF80D00A8B9FFE7A2
:100630009DF808100F2000FA01F241F20001C4F207
:1006400001010868904308609DF80820012000FA25
:1006500002F20868104308601AE09DF80D000228B5
:1006600015D1FFE79DF808100F2000FA01F241F2C2
:100670000001C4F201010868904308609DF8082059
:100680000A2000FA02F2086810430860FFE7FFE75B
:10069000FFE765E09DF80E200021072A0846C8BF45
:1006A0000120102AB8BF0121084258D0FFE79DF869
:1006B0000E106FF01F0000EB81008DF807009DF811
:1006C0000D00012815D1FFE79DF807100F2000FA53
:1006D00001F241F20401C4F201010868904308608C
:1006E0009DF80720082000FA02F20868104308600D
:1006F00034E09DF80D00A8B9FFE79DF807100F2022
:1007000000FA01F241F20401C4F2010108689043C9
:1007100008609DF80720012000FA02F208681043E3
:1007200008601AE09DF80D00022815D1FFE79DF83A
:1007300007100F2000FA01F241F20401C4F2010196
:100740000868904308609DF807200A2000FA02F22A
:10075000086810430860FFE7FFE7FFE7FFE7FFE7F0
:10076000FFE704B080BD000040F27000C2F200005C
:100770000168888A40F001008882704780B500F0E7
:1007800001F880BD84B000200390029041F2000186
:10079000C4F20201086840F480300860FFE741F2CB
:1007A0000000C4F20200006800F4003002900398D8
:1007B00001300390FFE702990020019039B9FFE76B
:1007C0000398B0F5A06018BF01200190FFE70198E1
:1007D000C0070028E3D1FFE741F20000C4F20200A5
:1007E00000688003002803D5FFE70120029002E0A3
:1007F00000200290FFE70298012851D1FFE742F262
:100800000001C4F20201086840F0100008600868A6
:1008100020F007000860086840F00200086041F21C
:100820000401C4F2020100910868086008680860C9
:10083000086840F480600860086820F47C10086054
:10084000086840F4E810086041F20001C4F20201B7
:10085000086840F080700860FFE741F20000C4F2D1
:10086000020000688001002801D4FFE7F5E741F2AB
:100870000401C4F20201086820F00300086008685F
:1008800040F002000860FFE741F20400C4F20200F9
:10089000006800F00C00082801D0FFE7F4E700E052
:1008A000FFE704B07047000080B58CB0ADF82E00B3
:1008B00040F20400C2F20000016800914FF00040D5
:1008C00002F03CFA02F082F8024600980592069186
:1008D00002F07CF800220A924FF0804300F032FDD3
:1008E0000390049140F20000C2F2000007900068FB
:1008F0000021CCF2800102F055F9029040F208008C
:10090000C2F2000000680190BDF82E0002F032F93A
:100910000146019802F012FA0146029802F042F9EB
:1009200002F054F8024603980B46049901F058FA75
:1009300001F0FEF9024605980B46069901F050FABF
:1009400002460798089209910168084602F06AF881
:1009500002F03CF8024608980B46099901F0FCFAAF
:1009600001F00CFA014640F27400C2F2000001608E
:10097000006802F02BF80A9A0023C4F2590302F02F
:10098000CFF848B9FFE740F27401C2F2000100203D
:10099000C4F2C820086014E040F27400C2F2000003
:1009A000006802F013F800231A4602F0B2F838B9D2
:1009B000FFE740F27401C2F2000100200860FFE787
:1009C000FFE740F27400C2F20000006802F0B6F8DF
:1009D000014640F20040C4F20000032200F0B2FAE7
:1009E0000CB080BD80B541F20002C4F20202106872
:1009F00040F00100106041F20401C4F202010868F5
:100A00000023CFF6FF031840086010684FF6FF730D
:100A1000CFF6F66318401060106820F48020106054
:100A2000086820F4FE00086041F20801C4F20201E7
:100A30004FF41F000860FFF7A1FE4EF60851CEF2FA
:100A400000014FF00060086080BD000080B582B0FA
:100A500042F60040C4F20100019000F021F942F694
:100A60002841C4F201014720088042F62C41C4F21B
:100A7000010140F2E730088042F60C41C4F2010166
:100A8000088840F0010008801920009000F024FB45
:100A90000098022100F038FB0199088840F001001D
:100AA000088002B080BD000042F61040C4F2010090
:100AB0000088C007002863D0FFE740F28000C2F240
:100AC00000000188013101800088C8284FDBFFE762
:100AD00040F27800C2F200000068C11700EB91708C
:100AE000810840F28400C2F200000180008840F2D8
:100AF0008201C2F200010988884213DBFFE740F25D
:100B00008400C2F20000008840F28201C2F20001BB
:100B10000988401A00EB800040F27E01C2F2000119
:100B20000880FFE740F27E00C2F200000088C0EBC0
:100B30000010800048F68901C8F68801A0FB01106A
:100B4000000940F27C01C2F20001088040F28400FA
:100B5000C2F20000008840F28201C2F20001088067
:100B600040F28001C2F2000100200880FFE742F657
:100B70001041C4F20101088820F001000880FFE75D
:100B80007047000041F21C01C4F20201086840F005
:100B9000010008602C21C4F2000142F20F700880AD
:100BA0002821C4F20001472008804FF080410888C6
:100BB00040F001000880FFE71020C4F20000008828
:100BC000C00708B9FFE7F7E77047000082B001905F
:100BD0008DF803109DF80300012806D1FFE7019965
:100BE000088C40F00100088423E09DF803000228EF
:100BF00006D1FFE70199088C40F01000088417E047
:100C00009DF80300032806D1FFE70199088C40F402
:100C1000807008840BE09DF80300042806D1FFE7EC
:100C20000199088C40F480500884FFE7FFE7FFE754
:100C3000FFE702B07047000083B002908DF8071004
:100C40009DF8070001380146009103281CD800993F
:100C5000DFE801F002080E140299088C40F0010050
:100C6000088411E00299088C40F0100008840BE021
:100C70000299088C40F480700884FFE70299088C80
:100C800040F480500884FFE703B0704781B00090C3
:100C90000099088840F00100088001B0704700000A
:100CA00081B00090009842F60041C4F201018842F0
:100CB00009D1FFE741F21801C4F20201086840F4CB
:100CC0000060086032E00098B0F1804F09D1FFE782
:100CD00041F21C01C4F20201086840F00100086002
:100CE00023E0009840F20041C4F20001884209D19B
:100CF000FFE741F21C01C4F20201086840F0020063
:100D0000086011E0009840F60001C4F2000188423A
:100D100009D1FFE741F21C01C4F20201086840F06A
:100D200004000860FFE7FFE7FFE7FFE701B0704757
:100D300080B582B0019001980121FFF77DFF0198F5
:100D40000221FFF779FF0198FFF7A0FF02B080BDF5
:100D500080B586B005908DF813100598FFF7A0FFB9
:100D600005989DF8131000F0A5F90598012103914D
:100D70000022019200F056F9019A05980221029191
:100D800000F050F9039A0598114600F005F9029910
:100D9000039A059800F000F906B080BD80B586B0D2
:100DA00084460898CDF814C0ADF81210ADF81020A4
:100DB000ADF80E30ADF80C00059840F27001C2F2AB
:100DC000000108600598FFF76BFFBDF812000138BD
:100DD00001460291032841D80299DFE801F002118F
:100DE000202FBDF81000013805990885BDF80E00C8
:100DF000013805998885BDF80C00059988862DE095
:100E0000BDF81000013805990885BDF80E000138BD
:100E100005998885BDF80C00059908871EE0BDF886
:100E20001000013805990885BDF80E0001380599B4
:100E30008885BDF80C00059988870FE0BDF8100083
:100E4000013805990885BDF80E0001380599888597
:100E5000BDF80C000599A1F84000FFE705989DF842
:100E600012100022019200F097F80199059800F005
:100E700021F9019A05989DF8121000F0D3F8059811
:100E80009DF81210062200F003F806B080BD0000A5
:100E900083B002908DF807108DF806209DF80700AA
:100EA000013801460091032838D80099DFE801F0A5
:100EB000020F1C290299088B20F0700008839DF80E
:100EC00006200299088B40EA0210088326E0029966
:100ED000088B20F4E04008839DF806200299088BD7
:100EE00040EA0230088319E00299888B20F07000F4
:100EF00088839DF806200299888B40EA0210888337
:100F00000CE00299888B20F4E04088839DF806204D
:100F10000299888B40EA02308883FFE703B070476C
:100F200080B582B001908DF80310FFF71DFC019889
:100F30009DF80310FFF74AFE0198FFF7A7FE02B0E5
:100F400080BD000083B00290ADF80610ADF804201B
:100F5000BDF80400013801460091032819D8009912
:100F6000DFE801F002070C11BDF80600029988863F
:100F70000FE0BDF80600029908870AE0BDF80600F8
:100F80000299888705E0BDF806000299A1F84000A3
:100F9000FFE703B07047000083B002908DF80710A0
:100FA0008DF806209DF807000138014600910328BE
:100FB00036D80099DFE801F0020E1B270299088B52
:100FC00020F0030008839DF806200299088B104347
:100FD000088325E00299088B20F4407008839DF86F
:100FE00006200299088B40EA0220088318E0029943
:100FF000888B20F0030088839DF806200299888B57
:10100000104388830CE00299888B20F44070888319
:101010009DF806200299888B40EA02208883FFE72A
:1010200003B0704783B002908DF807108DF806204A
:101030009DF80700013801460091032838D800992F
:10104000DFE801F0020F1C290299088C20F0020051
:1010500008849DF806200299088C40EA4200088422
:1010600026E00299088C20F0200008849DF80620D4
:101070000299088C40EA4210088419E00299088C11
:1010800020F4007008849DF806200299088C40EA3C
:10109000422008840CE00299088C20F40050088457
:1010A0009DF806200299088C40EA42300884FFE748
:1010B00003B0704782B001908DF803100199088940
:1010C00020F0070008819DF803200199088910434A
:1010D000088102B07047000081B08DF803009DF9CF
:1010E000030000280ED4FFE79DF9031001F01F0252
:1010F000012090404A094EF20011CEF2000141F861
:101100002200FFE701B0704782B08DF80700009120
:101110009DF9070000280AD4FFE7009800019DF917
:1011200007104EF20042CEF2000288540BE0009805
:1011300000019DF8071001F00F014EF61452CEF297
:1011400000028854FFE702B07047000080B582B00B
:10115000ADF806000020ADF80400FFE7BDF804007C
:10116000BDF8061088420BDAFFE74FF47A7000F002
:1011700009F8FFE7BDF804000130ADF80400EDE721
:1011800002B080BD81B0ADF802002421C4F200019C
:1011900000200880FFE72420C4F200000088BDF88A
:1011A0000210884201DAFFE7F5E701B0704700005E
:1011B00080B586B0002001900590FFF713FCFFF783
:1011C000E1FCFFF743FC0199032003900222FFF7A3
:1011D00059F803996A463220106040F20040C4F288
:1011E0000000029048226423FFF7D8FD029803997B
:1011F000FFF796FE039940F60000C4F20000049049
:10120000FFF7A6FD0498FFF793FDFFE740F62400E3
:10121000C4F20000008840F27801C2F200010860C8
:1012200040F6B830FFF740FB6420FFF78FFFEDE793
:10123000490050EAC12018BF04204A0D18BF40F0F1
:10124000010040F2FF72B2EB515F08BF40F00200B4
:10125000012808BF052070472DE9F0414F1E00EB23
:10126000C7010446D1E9000115461E4637F00602C3
:101270000DD02A46334601F095F87F1E04EBC703D4
:10128000D3E9002300F0ACFD37F00602F1D1022FC4
:1012900025D0042F13D0062F18BFBDE8F0812A46B1
:1012A000334601F07FF8D4E90A2300F099FD2A467D
:1012B000334601F077F8D4E9082300F091FD2A467F
:1012C000334601F06FF8D4E9062300F089FD2A4681
:1012D000334601F067F8D4E9042300F081FD2A4683
:1012E000334601F05FF8D4E9022300F079FD2A4685
:1012F000334601F057F8D4E90023BDE8F04100F08F
:101300006FBD0000002213461046014900F024BEC4
:101310000000F03F00F064BD002213461046114665
:1013200000F01ABE40F2013200204FF0E04101F01F
:10133000ACBD0000024A0020110701F0A6BD00006C
:1013400001FDFFFF2DE9F04D1D460C4694B01746F8
:1013500021F0004123F00043002814BF4FF0010C9E
:101360004FF0000C0CEB440CFB4A0CEB02064FEA6E
:10137000620C66452BD33E0018BF012606EB4506DE
:101380001644F64A964222D3F54A53EA070C02D095
:10139000944205D148B914B000201146BDE8F08D43
:1013A000002808BF4FF0000C01D04FF0010C0CEBEF
:1013B000440212F5001F0AD8002F14BF4FF0010C91
:1013C0004FF0000C0CEB450212F5001F07D914B0CA
:1013D0003A462B462146BDE8F04DFFF79BBF002261
:1013E000DFF880A3002CB8BF534526DADFF878C3B6
:1013F0006345A8BF022220DADFF864C39C451CDCE9
:10140000DFF868C30CEB235CBCF1140F08DDCCF1F2
:10141000340627FA06FC0CFA06F6BE420DD108E0A7
:101420005FB9CCF1140623FA06FC0CFA06F69E42CC
:1014300003D10CF00102C2F1020251EA000C19D1F1
:10144000002D17DA002C18BF022A01D0012A07D07C
:101450000220FEF7C1FE14B0BDE8F04DFFF752BF09
:101460000220FEF7B9FEFFF74DFF14B081F00041F6
:10147000BDE8F08DB7F1000C6CD1534525D104F1D6
:10148000804212F5801201BF00280020B44914B038
:1014900008BFBDE8F08DB248884207DC002DA1BF2F
:1014A0006046294614B0BDE8F08D07E0002DBFBFAF
:1014B000604685F0004114B0BDE8F08DAC49794438
:1014C000D1E9000114B0BDE8F08DDFF894C26345A6
:1014D00025D1002D1FDA19B1514512D1D8B909E033
:1014E000002840F0F6829F4A214614B062F31E01A4
:1014F000BDE8F08D0020214614B060F31E01BDE868
:10150000F08D08DA14B02346BDE8F04D0246002005
:10151000614600F021BD14B02146BDE8F08D514573
:1015200018DAB5F1804F0DD0A5F1005CBCF1FF5C7D
:1015300010D1B4F1000C0DDB14B06146BDE8F04DE4
:1015400000F0F6BB234614B00246BDE8F04D194644
:1015500000F028BF060024F0004C3BD1D9B1514522
:1015600033D1002C06DD002DA1BF0020514614B060
:10157000BDE8F08D002C01DD002D1BDB002C13DA03
:10158000002D11DB012A4FF0000014BF7549794985
:1015900014B0BDE8F08D022A18BF002C0AD0012A31
:1015A00008D1002C06DA0AE0002CB8BF002D11DAB1
:1015B000012A04D0002014B00146BDE8F08D14B01B
:1015C00000204FF00041BDE8F08DA1F14050B0F196
:1015D0007F601AD0012000EBE47050EA020421D0B1
:1015E0005F4C521E4FF0000B104304BF4FF0000B36
:1015F000614C624883427DDD614A6248934229DD45
:10160000884217DB002D2FDB41E0002C00DA4AB1C5
:10161000022A0CBF01204FF0FF3014B0BDE8F04D9E
:1016200000F030BE0120FEF7D7FD14B0BDE8F04D4C
:10163000FFF772BE4A4A8A420CDC002D14DC0220FD
:10164000FEF7CAFDFFF776FE61F31E0414B02146D3
:10165000BDE8F08D814202DA002D18DA04E0404B3B
:10166000994220DD002D12DD0220FEF7B5FDFFF7C7
:1016700059FE05460E46002253465846214600F0C4
:1016800091FE14B066F31E012846BDE8F08D0220DD
:10169000FEF7A2FDFFF74EFE0A46214614B062F3A4
:1016A0001E01BDE8F08D00223046614601F0A0F831
:1016B000064688466FF0010201F0E7FB4FF0553215
:1016C000314B00F0A3FF3246434600F06BFE002290
:1016D0002E4B00F09BFF8A4632464346029010464E
:1016E000194600F05FFE5346029A00F05BFE824608
:1016F000324600E054E0059143464FF0C040244993
:1017000000F050FECDE90C01224A214B50460599CC
:1017100000F048FE824601911F4A204B3046414668
:1017200000F040FE5246019B01F062F882460B46F3
:1017300002460991DDE90C0100F052FBDDE90C23C2
:1017400000268846304601F053F85246099B00F0C7
:101750005DFF024600F07EB9FFFF1F00FFFF0F0094
:101760000000F03F0000F07F0000404301FCFFFF5D
:10177000DE1A00000000F0FF0000F0BF0000E041B2
:101780000000F043FFFFEF3F5555D53F0000E03F1D
:101790004715F73FFE822B6544DF5DF80BAE543EE4
:1017A0000020B1F5801F07DA35223046614601F08E
:1017B0006CFB06466FF0340000EB2150A0F2FF30C6
:1017C0000190C1F3130040F07F6141F0405102915C
:1017D000FE498842D8BF002004DDFD498142C8BFD0
:1017E000012001DD0F9008E000200F900198401CBF
:1017F00001900298A0F5801002900299F548784473
:1018000005910F9900EBC1001290D0E900233046FA
:10181000059900F0EDFFCDE90C011298D0E9002305
:101820003046059900F0DCFA02460B460020EA49F2
:1018300000F092FB0B46CDE908010246DDE90C0100
:1018400000F0B0FD0A90E5488A464FF00008784461
:101850000299006810904FF0005040EA61010F9823
:1018600001EB804000F5002112981191D0E900238E
:10187000109800F0BDFF3246059B00F0C7FE4246BF
:10188000534600F08FFDDDE91023064603914046E4
:10189000514600F087FDDDE90C2300F0B7FE32462B
:1018A000039B00F0A5FFDDE9082300F07BFD039119
:1018B0000A9A129053461046194600F073FD0646E8
:1018C0000246C7480B46029106217844FFF7C4FC44
:1018D000029B3246059108901046194600F062FDC1
:1018E000059B089A00F05EFD064609915346404666
:1018F00019460A9A00F074FA039B129A00F052FDFE
:101900003246099B00F06CFACDE908014246534685
:101910001046194600F046FD02460B46029104901F
:101920000020B04900F05CFADDE9082300F058FA25
:101930000E464246AB4B404600F05AFF029B049ACB
:1019400000F056FFDDE9082300F060FE42460491F6
:10195000029033461046514600F024FDCDE90C01BB
:1019600053460A9A0499029800F01CFD82460091A1
:10197000334642460399129800F014FD5246009BEC
:1019800000F02EFA82460B4602460991DDE90C0171
:1019900000F026FADDE90C2300268846304600F0E8
:1019A00027FF5246099B00F031FECDE9080143466E
:1019B00032464FF060408C4900F0F4FC82460491BE
:1019C000DDE90801894A884B00F0ECFC02910090A7
:1019D000434632468648874900F0E4FC029B009A61
:1019E00000F0FEF9844B7B440F9A03EBC203D3E96A
:1019F000002300F0F5F900900291019800F042FCFC
:101A00000E9003915046029B009A049900F0E8F969
:101A10007A4A7A440F9B02EBC3030993D3E900236C
:101A200000F0DEF9039B0E9A00F0DAF988463046A2
:101A3000039B0E9A00F0DCFE099BD3E9002300F023
:101A4000D7FE5246049B00F0D3FE029B009A00F0A2
:101A5000DDFD024600200B4602903846294600F084
:101A6000A1FC824603912B4638461946029A00F0A3
:101A7000BFFE3246434600F095FC5246039B00F001
:101A8000AFF907468A46324643462946029800F097
:101A900089FC05460E463A46534600F0A1F9584ADD
:101AA0008846914221DBA8EB020353EA000210D1E1
:101AB0002A46334600F09CFECDE90310514A524BB2
:101AC0003846514600F08CF9DDE9033200F068FD3C
:101AD00021D20220FEF780FBFFF724FC0A462146B4
:101AE00014B062F31E01BDE8F08D484B28F00042AF
:101AF0009A4210D3464A08EB020353EA00027FF4ED
:101B0000C6AD2A46334600F073FE3A46534600F00F
:101B100047FD7FF6BCAD0022019228F000403D4910
:101B20003D4A01EB2051824223DA481C4FF48011D8
:101B300021FA00F04044394AC0F30A517A44384B44
:101B4000A1F2FF31CB4020EA0303C0F3130040F4BD
:101B50008010C1F11401C84012680190B8F1000F63
:101B6000BCBF404201902846314600F041FE054688
:101B70000E462A4633463846514600F031F94FF0BA
:101B800000084246274B4046039100F00BFCCDE98C
:101B90000C01254A254B4046039900F003FC0291B5
:101BA00000902A4633464046039900F021FE3A460B
:101BB000534600F02BFD1E4A1E4B00F0F3FB029B28
:101BC000009A00F00DF90746884635E08E9803002C
:101BD0007AB60B00161700000000F03F4E17000009
:101BE0007A1600000000084009C7EE3FFD033ADC0A
:101BF000F5015B14E02F3EBE4E15000012150000EB
:101C000000009040FE822B654715973C00CC904029
:101C100000346F3F01FCFFFF0000E03F6014000054
:101C2000FFFF0F00432EE63F396CA80C615C20BE1D
:101C3000EF39FAFE422EE63F02460B46DDE90C0183
:101C400000F0CEF8DDE90C2305460E4600F0D0FD8D
:101C50003A46434600F0DAFC07462A4633460591E9
:101C60001046194600F09EFB824602462E488846E2
:101C70000B4605217844FFF7EFFA5246434600F041
:101C800091FB2A46334600F0C1FC80468A463A461C
:101C900028463146059B00F085FB3A46059B00F03F
:101CA0009FF80591009000224FF080434046514636
:101CB00000F09EFD074603914246534628463146B2
:101CC00000F070FB3A46039B00F046F9059B009A32
:101CD00000F08EFD2A46334600F08AFD0022134BA9
:101CE00000F094FC054601980E4601EB00510815E2
:101CF000002810DC28463146019A01F0C6F8FFF7AB
:101D000097FA042808BFFFF715FB28463146019AC9
:101D100001F0BBF805460B4614B02A46584621464A
:101D2000BDE8F04D00F03EBB001300000000F03FA6
:101D30002DE9F04106460F4600F074FC041E0D46E6
:101D400018BF0120284320F00040C0F17F6000F15F
:101D5000E040C00F0ED0301C18BF0120384320F0E7
:101D60000040C0F17F6000F1E040C00F04BF0120DF
:101D7000FEF732FA20462946BDE8F08121F0004204
:101D800001F00043A2F16052B2F5801F28BFD2F1EA
:101D90007F6C0BD95FEA001C43EAC20242EB507031
:101DA00018BF704728BF20F001007047B2F5801FB0
:101DB000BCBF184670474FEA410C1CF5001F02D209
:101DC000084600F0B6BF70B500F096FB0000008931
:101DD000FFF7F6BF4FF00040A0F58000704700000D
:101DE00010B591EA030F48BF83F0004300F1088566
:101DF000841A71EB030C05D2121943EB0C03001B80
:101E000061EB0C014FEA1154A4EB135CDFF81CE109
:101E10001EEA430F18BF9EEA445F00F0748021EA77
:101E2000045123EA0E0343F48013DCF1200E32D375
:101E300022FA0CFE10EB0E0023FA0CFE41EB0E0111
:101E4000CCF1200E03FA0EFE10EB0E00CCF1200EAA
:101E500051F10001B1F5801F32D201EB045112FAA9
:101E60000EF2BDE8104058BF7047401C38BF5FEA13
:101E7000420218BF7047002814BF20F0010041F152
:101E800000014FEA410313F5001F38BF7047A1F16D
:101E9000C04100F07FBB012A43EB0302ACF1200CF0
:101EA000DCF11F0E32BF4FF0000E23FA0CF310EBE3
:101EB000030041EB0451B4EB115FD0D0A1EB04510E
:101EC00001F58011490801EB04515FEA30000ED39F
:101ED00050F1000038BF12FA0EFE08D1BDE81040E4
:101EE000C9E7401C38BF5FEA4202CAD1C3E7BDE878
:101EF00010404FEA410313F5001F38BF7047A1F1AE
:101F0000C04100F047BB9EEA445F08D011EA5E0F73
:101F1000BDE8104004BF01F0004100207047BDE85B
:101F2000104070B500F0E8FA64FBBE3E0000E0FF30
:101F300002494FF0000000F076BF00BF0000F87FBC
:101F4000491058BFC1F140415B1058BFC3F1404335
:101F50008B42EFF3008070472DE9C04130B4DFF8C9
:101F6000A4C23CEA111418BF3CEA131400F0ED803F
:101F70001CEA111481EA030544EAD57418BF1CEA6F
:101F8000131500F0C880A4EB050404F17F7404F578
:101F900000344FF0004545EAC12145EAC32341EA38
:101FA000505143EA52534FEAC0204FEAC2229942AD
:101FB00008BF904200F09D804FEA13650FF244166F
:101FC000765D4FEA134506FB05F7C7F1807706FB00
:101FD00007F74FEAD737A7FB03687642A7FB06CE81
:101FE000C8F5803838BFA8F1010807FB08E6A6FB52
:101FF000028C4FF0000EE6FB03CEDCF1000CCEF1BC
:10200000004E38BFAEF1010EA6FB0C584FF0000792
:10201000E6FB0E87A1FB08C6A0FB07CE16EB0E065B
:102020004FF0000545F10005E1FB076515F1E04EB5
:102030007EBFA4F580345FEA46066D4116F1800745
:1020400045F100054FEA172747EA05674FEA1525CE
:102050004FEA0666A6F1DE46B6F1805F20D9384623
:1020600005EBC47124F0010C01EB0C11BCF1FE6F07
:1020700002D8F0BCBDE8008124425CBF01F5801E9F
:102080009EEAC47F02D4F0BCBDE80081244200F186
:102090003980A1F1C041F0BCBDE8004100F07ABA3E
:1020A0004FEAD02040EA41504FEAD1214FEAD222F4
:1020B00042EA43524FEAD323A7FB028607FB03669B
:1020C00005FB02661EEA0E0F58BFA6EB0056B6EBE4
:1020D00000564FEA520E4EEAC37E18EB0E0E56EB38
:1020E000530EBCD518EB02085E417F1C55F100056C
:1020F000B5E74FF480154FF000074FF000064FF0A2
:102100000008ACE701F1C04101F000414FF00000D0
:10211000F0BCBDE800810CEA131511EA0C1F00D0D9
:102120000CE013EA0C1F00F026804FF0000081EA5B
:10213000030101F00041F0BCBDE80081F0BCBDE846
:10214000004181EA030100F025BAF0BCBDE800417E
:1021500070B500F0D1F900BF097EFC3E00F007B871
:102160004FF0000081EA030101F00041704781EA6D
:10217000030100F00FBAF0BCBDE8004122494FF066
:1021800000007047FFFDFBF9F7F5F4F2F0EEEDEB20
:10219000E9E8E6E4E3E1E0DEDDDBDAD8D7D5D4D365
:1021A000D1D0CFCDCCCBCAC8C7C6C5C4C2C1C0BFB1
:1021B000BEBDBCBBBAB9B8B7B6B5B4B3B2B1B0AFB7
:1021C000AEADACABAAA9A8A8A7A6A5A4A3A3A2A19B
:1021D000A09F9F9E9D9C9C9B9A9999989797969556
:1021E00095949393929191908F8F8E8E8D8C8C8BF2
:1021F0008B8A89898888878786858584848383827A
:10220000828181800000FF070000F87F51EA030C03
:1022100017D41CF5801F58BFBCF5801F00F1068045
:10222000994218BF704708BF9042704707D711F511
:10223000801F58BF13F5801F19D4994270478942F7
:1022400070471CF5801F08D5BCF5801FF7D58B4261
:1022500018BF704708BF824270474FF4001C1CEB48
:10226000410F38BF1CEB430F01D28B42704770B552
:1022700000F042F9922449004FF000514FF0805392
:10228000FFF75EBE10F0004248BF4042B0FA80F354
:1022900010FA03F10AD0C3F11D0303F5806302EBCA
:1022A00003524FEA415002EBD12170474FF000003A
:1022B0007047000051EA030C17D41CF5801F58BF6B
:1022C000BCF5801F00F10680994218BF704708BF17
:1022D0009042704707D711F5801F58BF13F5801F34
:1022E00019D499427047894270471CF5801F08D560
:1022F000BCF5801FF7D58B4218BF704708BF8242DC
:1023000070474FF4001C1CEB410F38BF1CEB430F10
:1023100001D28B42704770B500F0EEF8922449006C
:102320004FF080514FF00053FFF70ABE51EA030C03
:1023300017D41CF5801F58BFBCF5801F00F1068024
:10234000994218BF704708BF9042704707D711F5F0
:10235000801F58BF13F5801F19D4994270478942D6
:1023600070471CF5801F08D5BCF5801FF7D58B4240
:1023700018BF704708BF824270474FF4001C1CEB27
:10238000410F38BF1CEB430F01D28B42704770B531
:1023900000F0B2F8922449004FF000514FF0805302
:1023A000FFF7CEBD70B5DFF848C11CEA111E1EBF95
:1023B0001CEA13159EEA0C0F95EA0C0F00F06F80D3
:1023C00081EA03044EEAD47EAE4421EA4C1123EAAA
:1023D0004C1341F4801143F48013AEF17F7EA1FBD6
:1023E000024CA0FB0365361955EB0C05A1FB034C11
:1023F0004CF10003A0FB021C16EB0C06654153F1E7
:102400000003094218BF46F0010613F4007F0BD108
:102410004FEA03314FEA053041EA155140EA1650C0
:1024200034036FF003020AE04FEAC3214FEAC520EC
:1024300041EA555140EA5650F4026FF0020202EBB5
:102440002E4201EB025585EACE710AD05FEA440CB8
:1024500018BF24F0004450F1000041F1000120EACF
:10246000D47040F2FE7C624500D270BDA84214BF19
:102470004FF080444FF04044002E08BF0024BEF1CE
:10248000806FA8BFA1F1C041BDE8704080F282809A
:1024900001F1C04101F000414FF0000070470CEA2B
:1024A00013159EEA0C0F18BF95EA0C0F06D081EAAF
:1024B000030E4FF000000EF0004170BD00F01CF85C
:1024C0008900013E00F007B800F009B84FEA430C5C
:1024D0005FEA5C5C08D081EA030100F05BB84FEA78
:1024E000410C5FEA5C5CF6D102494FF00000704796
:1024F0000000FF070000F87F0EF1020E2EF0030E21
:102500005EF8046B364205D4012A43EB030515F54A
:10251000001F12D8012841EB010C1CF5001F0CD83C
:102520000ED14FEAD17C0CEB4C0C0CF1020C15F5E2
:10253000001F08BF4CEBD37C04E04FF0080C01E017
:102540004FEAD37C0CEB4C0526FA05F606F007069D
:10255000B6F1040C06D20EEB860CBDE870404CF0D0
:10256000010C6047DFE80CF0090B02024FF000415C
:10257000A1F500214FF0000070BD1946104601285A
:1025800051EB010418BFD4F5001484BF002001F002
:10259000004170BD0808A0F500114FEA31017047F5
:1025A00053EA010C17D41CF5801F58BFBCF5801FDF
:1025B00000F106808B4218BF704708BF8242704707
:1025C00007D713F5801F58BF11F5801F19D48B4210
:1025D00070479B4270471CF5801F08D5BCF5801FD3
:1025E000F7D5994218BF704708BF904270474FF423
:1025F000001C1CEB430F38BF1CEB410F01D299426A
:1026000070470FB40CBC03BCFFF7C1BE10B591EA14
:10261000030F81F000413FF5EBAB83F0004300F086
:10262000EFB800002DE9F04101F5801CBCF5001F5A
:10263000C0F2C3804FEA115C21EA0C5141F48011D1
:102640000CF1FD0C5FEA5C0C0CF5C07C01D3400082
:102650004941890241EA905187023BA48E0EA45D54
:102660000A0C04FB04F602FB06F6C6F14046A4FB86
:102670000662F60D46EA422606FB06F4A4FB012399
:102680005242C3F1404338BF5B1EA6FB0242002406
:10269000E6FB0324D20B42EA4446A6FB0623A1FB39
:1026A00002E2A3FB07E4A4184FF0000252F100027B
:1026B000E3FB01426442C2F1404E38BFAEF1010E6D
:1026C000A6FB04234FF00002E6FB0E32A2FB0346FA
:1026D000B6194FF0000454F10004E2FB0264A1FBC0
:1026E00006E6A4FB07E816EB08064FF0000858F1D1
:1026F0000008E4FB01687642C8F1405838BFA8F1F1
:102700000108A2FB06E4A3FB08E52D194FF0000425
:1027100054F10004E2FB0854A1FB05E6A7FB04E822
:1027200018EB06084FF0000656F10006E1FB0486A0
:1027300018F1200556F10006A80940EA8660B109A3
:10274000A8F11B0808F03F08B8F10A0F1CD901EBEB
:102750000C51BDE8F08100BFFCF5EEE8E2DDD8D316
:10276000CFCBC7C3C0BDB9B6B4B1AEACA9A7A5A302
:10277000A19F9D9B9A9896959392908F8D8C8B8913
:102780008887868584838281A0FB006800FB01F234
:1027900008EB4208B8EB872807D5341858EB01043A
:1027A000D5D5401C51F10001D1E7341A78EB010472
:1027B000CDD4401E71F10001C9E75FEA4C0C5FEA1D
:1027C0009C5C0DD105D301F000414FF00000BDE845
:1027D000F081BDE8F04170B5FFF78EFE6DDBFFBE06
:1027E000BDE8F04101494FF0000070470000F87F5C
:1027F00010B591EA030F48BF83F000433FF5F8AAF4
:10280000841A71EB030C07D28CF0004C121943EBC5
:102810000C03001B61EB0C014FEA1154A4EB135C99
:10282000DFF8A4E11EEA430F18BF9EEA445F00F000
:10283000B48021EA045123EA6E035242C3EB6E03D3
:1028400038BF5B1EDCF1200E25D322FA0CFE10EB04
:102850000E0043FA0CFE41EB0E01CCF1200E03FA00
:102860000EFE10EB0E00CCF1200E51F1000129D428
:1028700001EB045112FA0EF2BDE8104058BF704748
:10288000401C1CBFB2F1004F704700280CBF491C10
:1028900020F00100704712EB020E43EB030218BF59
:1028A0004FF0010E4EEA4202ACF1200CDCF11E0E9C
:1028B00056D943FA0CFE10EB0E00CCF11E0E51F16E
:1028C000FF31D5D50EF1010E12FA0EFE404141EB5B
:1028D000010101EB445C5FEA5C5C10D901EB04513F
:1028E00010EBDE7038BFBEF1004FBDE8104018BFDE
:1028F000704700280CBF491C20F00100704734D2FB
:102900004FEAD42C24F4006411F500111BD0B1FA65
:1029100081F20B3AA41AA41ED2F12003914030FA9E
:1029200003F31943904001EBCC7101EB0451002CEF
:10293000BDE81040A8BF704701F1C04101F000415F
:102940004FF000007047B0FA80F310FA03F102D1A3
:10295000BDE810407047E41A173C4805C90AE2E791
:1029600001EB0451BDE81040704749104FEA3000B8
:1029700001EB0451BDE8104002E04FF00001704748
:102980004A0008BF0042F8D0B2F5001F28BF7047C8
:1029900001F000414FF0000070479EEA445F07D00D
:1029A00011EA5E0FBDE8104004BF0021002070470F
:1029B000BDE8104070B5FFF79FFD00BF40DFF63E59
:1029C000104683F0004170470000E0FF43004FEAEB
:1029D000D30C4FEA3C0C43401FBF40070CF1605141
:1029E00013F0FE4F70471CF0006F03D10CF0004154
:1029F000002070470CF0004343EA507040EACC00DE
:102A000010B500F050F900BF000000924FEA00013D
:102A1000FFF7C0BD4FF00041A1F500214FF00000CD
:102A20007047000090EA010F48BF81F0004100F1BB
:102A30008C81421A3CBF801A89184FEAD052A2EB0F
:102A4000D1534FF07F4C1CEA410F18BF9CEA026F34
:102A500000F03B804FF0004C4CEA00204CEA012192
:102A600021FA03FC10EB0C0C1ED202F1FF325FEADC
:102A70001C2040EBC25038BF70471CF07F0F4FEA5C
:102A8000400C18BFBCF17F4F38BF7047C3F1200323
:102A9000994008BF20F00100BCF17F4F38BF70475C
:102AA000A0F1C04000F045B94FEA3C00000A40EBFD
:102AB000C25028BF1CF0FF0F4FEA400CE6D018BFF1
:102AC000BCF17F4F38BF7047EAE79CEA026F05D040
:102AD00010EA5C0F08BF00F00040704710B500F02E
:102AE000E2F800BF64FBBE3E10B5FFF78FFB0CBFE2
:102AF0000120002010BD10B5FFF788FB14BF012096
:102B0000002010BD10B5FFF7D5FB8CBF01200020C1
:102B100010BD10B5FFF7CEFB2CBF0120002010BD6B
:102B200010B5FFF703FC94BF0120002010BD10B5C5
:102B3000FFF7FCFB34BF0120002010BD41000B0E4D
:102B4000D3F19E0208D950F400034FEA032323FA7D
:102B500002F048BF4042704710B500F0A4F800BF33
:102B600049922480002070476FF0004282EA2000E2
:102B70007047000010F0004148BF4042B0FA80F3B7
:102B800010FA03F2C3F19D030BD051EAC35101EBDC
:102B90001220530638BF704700F1010008BF20F033
:102BA000010070474FF47F0C1CEAD0121EBF1CEAD4
:102BB000D11392EA0C0F93EA0C0F00F0478090EAD1
:102BC000010F48BF42F480724FF0004C4CEA0020E5
:102BD0004CEA012102EB0302A0FB0113A2F5000263
:102BE000002918BF43F001035B0028BF4FEA3303FD
:102BF00042EB22425FEA132C4CEBC2502EBFBCEBDF
:102C0000436FB2F57C0F70474FEA036CBCF1004F85
:102C100008BF20F00100B2F57C0F38BF70470BD51C
:102C200082F0FF0212F5803FC8BF704700F1C0403C
:102C3000D8BF00F00040704700F5000C5FEA4C0C74
:102C400048BF7047B0F1C04000F073B80CEAD11330
:102C500090EA010F48BF42F48072624538BF634575
:102C600004D280EA010000F00040704710B500F087
:102C70001AF800BF8900013E00F007B800F009B85B
:102C80005FEA410C5FEA1C6C08D080EA010000F0AA
:102C900050B85FEA400C5FEA1C6CF6D14FF0004080
:102CA000A0F5800070470EF1020E2EF0030E5EF8C4
:102CB000044B244204D44FEA4102B2F17F4F11D8B1
:102CC0004FEA4003B3F17F4F0CD80ED14FEAD07CCE
:102CD0000CEB4C0C0CF1020CB2F17F4F08BF4CEB2B
:102CE000D17C04E04FF0080C01E04FEAD17C0CEB02
:102CF0004C0324FA03F404F00704B4F1040C06D2E4
:102D00000EEB840CBDE810404CF0010C6047DFE88E
:102D10000CF0070802024FF00040A0F5800010BD43
:102D20000846420018BFD2F1807288BF00F0004010
:102D300010BDFF2141EAD050C005704790EA010F55
:102D400048BF81F000413FF574AE421A04D882F0CA
:102D50000042A0EB020011444FEAD052A2EBD15343
:102D60004FF07F4C1CEA410F18BF9CEA026F4AD01B
:102D70004FF0004C4CEA00204CEA012121FA03FC00
:102D8000B0EB0C0C0FD412F0FE0F36D05FEA4C0003
:102D90001DD5001240EBC25038BF70471CF03F0FEA
:102DA00018BF70470BE05FEA1C20A2F1010240EB64
:102DB000C25038BF70471CF07F0F18BF7047C3F177
:102DC0002003994014BF401E20F0010070474FEAD5
:102DD0001223800808BF7047B0FA80FCA2EB0C02F7
:102DE000CCF1280C60FA0CF093EA122F04BF00EB30
:102DF000C25070474FEAC3707047130A5FEADC1095
:102E000008BF7047F6E79CEA026F04D010EA5C0F37
:102E100008BF0020704710B5FFF745FF40DFF63EC2
:102E200081F0004070470CF00F03092B08BF082009
:102E300000F059800A2B0BD0082B18BF704708BF31
:102E40001CF0400F0AD04FF000004FF00001704717
:102E50001CF0400F18BF4FF0004070471CF0100FDF
:102E600008D000F07F4220F0704342EAD3014FEADD
:102E70004370704700F0604021F07F4242EA000258
:102E800001F07F4040EA727070474FF0FF0C4CF445
:102E9000E06C1CEA11531CBF9CEA030C9445C2BFB2
:102EA000DA4201EB02517047002B0DD0BCF1000F4C
:102EB0000FD001F00041002AA4BF41F0E04141F0F1
:102EC0007F614FF00000704701F000414FF00000BB
:102ED000704750EA01334FF09B0C18BF4CF0806CE8
:102EE0007FF426A870471CF4801F11D01CF4E02F3B
:102EF00003D06FEACC31490070474FF04050EFF3F8
:102F0000008222F0704242EA000282F30088704799
:102F10004FF0000070470000000000000000F03F8C
:102F2000000000000000F83F00000000000000006A
:102F30000000004003B8E23F000000000000000075
:102F400006D0CF43EBFD4C3E033333333333E33F03
:102F5000FFAB6FDBB66DDB3F4D268F515555D53F2F
:102F600001411DA96074D13F65DBC9934A86CD3FFD
:102F7000EF4E454A287ECA3F3E5555555555C53FEB
:102F800093BDBE166CC166BF2CDE25AF6A56113FDD
:102F9000F16BD2C541BDBBBED0A4BE726937663EDF
:102FA0000000000000000000C82F00080000002002
:102FB0000C00000028010008D42F00081000002099
:102FC0007806000044010008B81E05BF146E454392
:042FD00000C0F9C57F
:040000050800018965
:00000001FF
