:020000040800F2
:10000000780600206D0100087501000877010008DE
:10001000790100087B0100087D0100080000000054
:100020000000000000000000000000007F01000848
:10003000810100080000000083010008850100081C
:100040008701000887010008870100088701000870
:100050008701000887010008870100088701000860
:100060008701000887010008870100088701000850
:100070008701000887010008870100088701000840
:100080008701000887010008870100088701000830
:100090008701000887010008870100088701000820
:1000A00087010008F50E0008870100088701000895
:1000B0008701000887010008870100088701000800
:1000C00087010008870100088701000887010008F0
:1000D00087010008870100088701000887010008E0
:1000E00087010008870100088701000800F002F876
:1000F00000F02CF80AA090E8000C82448344AAF196
:100100000107DA4501D100F021F8AFF2090EBAE893
:100110000F0013F0010F18BFFB1A43F0010318473B
:10012000641400007414000000230024002500263D
:10013000103A28BF78C1FBD8520728BF30C148BF4A
:100140000B6070471FB51FBD10B510BD00F031F832
:100150001146FFF7F7FF01F09BF900F04FF803B4E9
:10016000FFF7F2FF03BC00F057F800000948804792
:1001700009480047FEE7FEE7FEE7FEE7FEE7FEE789
:10018000FEE7FEE7FEE7FEE704480549054A064BA1
:1001900070470000A90D0008ED000008780000205D
:1001A000780600207802002078020020704770470F
:1001B0007047754600F02CF8AE4605006946534678
:1001C00020F00700854618B020B5FFF7DDFFBDE839
:1001D00020404FF000064FF000074FF000084FF0AE
:1001E000000BAC46ACE8C009ACE8C009ACE8C009FB
:1001F000ACE8C00921F007018D46704710B50446F0
:10020000AFF300802046BDE81040FFF7A8BF000014
:10021000004870470000002001491820ABBEFEE7EF
:10022000260002007047000010B541F21804C4F225
:1002300002044FF0010CD4F800E00CFA00F343EA9A
:100240000E0323602368042843F00103236040F277
:100250000403C4F201031C6844F000741C6016D04F
:10026000032830D0022840F0268107293DD8002AF3
:100270004FEA810000F09280022A00F09480012A67
:1002800040F01981C0B20F2140F600027DE007293D
:1002900048D8002A4FEA810000F08A80022A00F044
:1002A0009680012A40F0078140F60442C4F2010220
:1002B000C0B20F21D2F8FC33814023EA0101C2F819
:1002C000FC13082191E007294BD8002A4FEA81004E
:1002D00000F09380022A00F09580012A40F0EB8024
:1002E000C0B20F2140F6000230E00F2900F2E38097
:1002F0006FF01F00002A00EB810000F09280022ABC
:1003000000F09C80012A40F0D68040F60002C4F242
:100310000102C0B20F215368814023EA01015160FC
:10032000082197E00F2900F2C6806FF01F00002A15
:1003300000EB810000F09480022A00F0A780012ADF
:1003400018BF10BDC0B20F2140F60442C4F2010232
:10035000D2F80034814023EA0101C2F800140821D8
:100360008CE00F2900F2A7806FF01F00002A00EB3D
:10037000810000F0A180022A00F0AB80012A40F049
:100380009A80C0B20F2140F60442C4F20102136801
:10039000814023EA010111600821A6E0C0B20F21CB
:1003A00040F600028CE0C0B20F2140F6000294E05B
:1003B00040F60442C4F20102C0B20F21D2F8FC336D
:1003C000814023EA0101C2F8FC1301210DE040F64F
:1003D0000442C4F20102C0B20F21D2F8FC338140C2
:1003E00023EA0101C2F8FC130A21D2F8FC3301FA16
:1003F00000F01843C2F8FC0310BDC0B20F2140F654
:10040000000231E040F60002C4F20102C0B20F2146
:10041000D2F80034814023EA0101C2F800140A2115
:100420002CE040F60002C4F20102C0B20F21536872
:10043000814023EA0101516001210BE040F60002F6
:10044000C4F20102C0B20F215368814023EA0101C6
:1004500051600A21536801FA00F01843506010BD42
:10046000C0B20F2140F60442C4F20102D2F80034B7
:10047000814023EA0101C2F800140121D2F80034BE
:1004800001FA00F01843C2F8000410BD40F604421F
:10049000C4F20102C0B20F21D2F80034814023EA35
:1004A0000101C2F800140A21D2F8003401FA00F068
:1004B0001843C2F8000410BDC0B20F2140F6044238
:1004C000C4F201021368814023EA01011160012195
:1004D0000BE0C0B20F2140F60442C4F201021368DF
:1004E000814023EA010111600A21136801FA00F03A
:1004F0001843106010BD0000042823D0032810D03A
:10050000022818BF70470120884040F60C01C4F251
:100510000101002A0A680CBF22EA000010430860AB
:10052000704740F60C000123C4F2010003FA01F108
:10053000002AD0F800240CBF22EA01011143C0F8C0
:100540000014704740F60C000123C4F2010003FAC6
:1005500001F12AB1D0F800281143C0F80018704703
:10056000D0F8002822EA0101C0F800187047000006
:10057000821E032A88BF70470FF2100000EB82032F
:1005800040F61000C4F20100DFE802F00A0205089C
:1005900000F5806004E000F5006001E000F54060D7
:1005A0004FF48032036802FA01F119430160704789
:1005B000821E032A88BF70470FF2100000EB8203EF
:1005C00040F61000C4F20100DFE802F00A0205085C
:1005D00000F5806004E000F5006001E000F5406097
:1005E0000122036802FA01F119430160704700001B
:1005F00070B541F21801C4F202010A68044642F0E3
:1006000001020A604A68002C42F400124A600A683B
:100610004FF0030342F001020A6040F20401C4F209
:1006200001010A684FF0080522F00200086008681E
:1006300018BF40F0020008604FF008014FF00200C0
:100640004FF0030208BF062100F0EAFE0921022054
:10065000032203230926002C08BF072100F0E0FE37
:1006600045F20040C4F20000018841F400410180DD
:1006700001886FF3DF310180282185808183068422
:10068000018841F00101018070BD000081B045F298
:100690001442C4F2000232F8143C43F4807322F88E
:1006A000143C1388DB0709D11388DB0704BF1388C8
:1006B0005FEAC37302D11388DB07F2D04000013038
:1006C00022F8040C1088C0070AD01088C0071CBF8D
:1006D00010885FEAC07003D01088C007F2D100BF55
:1006E0001088800709D4108880075CBF10885FEAF3
:1006F000807002D410888007F2D51088009090880E
:1007000000901088800709D51088800744BF1088A2
:100710005FEA807002D510888007F2D432F8140C9A
:1007200020F4806022F8140C32F8140C40F40070AD
:1007300022F8140C32F8140C80050DD532F8140C84
:10074000800544BF32F8140C5FEA805004D532F8BB
:10075000140C8005EED400BF1088400609D4108820
:1007600040065CBF10885FEA406002D410884006F3
:10077000F2D532F8040C087001B0704710B581B0A2
:1007800045F21444C4F2000434F814CC4CF48073E1
:1007900024F8143C2388DB0709D12388DB0704BF36
:1007A00023885FEAC37302D12388DB07F2D04000BD
:1007B00024F8040C2088C0070AD02088C0071CBF7A
:1007C00020885FEAC07003D02088C007F2D100BF44
:1007D0002088800709D4208880075CBF20885FEAD2
:1007E000807002D420888007F2D520880090A088ED
:1007F00000902088800709D52088800744BF208882
:100800005FEA807002D520888007F2D4002A4AD09F
:10081000501E032802F0030C5ED20022BCF1000F30
:1008200041D02088000609D4208800065CBF2088BB
:100830005FEA006002D420880006F2D5885C24F8C4
:10084000040C2088000609D4208800065CBF20889C
:100850005FEA006002D420880006F2D5BCF1010FE7
:1008600021D0501C23881B0609D423881B065CBF9B
:1008700023885FEA036302D423881B06F2D5085C51
:1008800024F8040C2088000609D4208800065CBFE8
:1008900020885FEA006002D420880006F2D5BCF10F
:1008A000020F40F0A48034F8140C40F4007024F8D7
:1008B000140C34F8140C80050CD534F8140C800595
:1008C00044BF34F8140C5FEA805003D534F8140C9C
:1008D0008005EED401B010BD02F0FC0E002202E053
:1008E000043272459AD02088000606D4208800067B
:1008F0005CBF20885FEA006074D5885C24F8040C33
:10090000208800060AD4208800065CBF20885FEAA1
:10091000006003D420880006F2D500BF42F0010039
:1009200023881B060AD423881B065CBF23885FEA42
:10093000036303D423881B06F2D500BF085C24F8A8
:10094000040C2088000609D4208800065CBF20889B
:100950005FEA006002D420880006F2D542F002006F
:1009600023881B060AD423881B065CBF23885FEA02
:10097000036303D423881B06F2D500BF085C24F868
:10098000040C2088000609D4208800065CBF20885B
:100990005FEA006002D420880006F2D542F003002E
:1009A00023881B060AD423881B065CBF23885FEAC2
:1009B000036303D423881B06F2D500BF085C24F828
:1009C000040C208800063FF58BAF208800065CBF32
:1009D00020885FEA00603FF583AF20880006F0D5ED
:1009E0007EE700BF208800067FF57DAF85E7901C7D
:1009F0002288120609D4228812065CBF22885FEA88
:100A0000026202D422881206F2D5085C24F8040C93
:100A1000208800063FF547AF208800065CBF20888D
:100A20005FEA00603FF53FAF20880006F0D53AE767
:100A3000F0B583B007460C208DF8050001200E4666
:100A40008DF80400022004211446FFF791FD43F2C3
:100A50000005C4F201050DF105012846012200F050
:100A6000EFF801A92846012200F0EAF8022004214B
:100A7000FFF79EFD0A208DF80700022004218DF863
:100A80000670FFF775FD0DF107012846012200F001
:100A9000D7F80DF106012846012200F0D1F8022016
:100AA0000421FFF785FD0B208DF8090002200421A9
:100AB0008DF80860FFF75CFD0DF109012846012261
:100AC00000F0BEF802A92846012200F0B9F8022081
:100AD0000421FFF76DFD09208DF80B000220042191
:100AE0008DF80A40FFF744FD0DF10B012846012265
:100AF00000F0A6F80DF10A012846012200F0A0F846
:100B000002200421FFF754FD03B0F0BD80B543F689
:100B10000001C4F20001884218D043F20001C4F27F
:100B20000101884218BF80BD022004210022FFF786
:100B30007BFB022004210122FFF7DEFC02200521BD
:100B40000222FFF771FB0220072115E003200C2190
:100B50000022FFF769FB03200C210122FFF7CCFCE8
:100B600003200D210222FFF75FFB03200E2102224A
:100B7000FFF75AFB03200F210222BDE88040FFF758
:100B800053BB000010B543F60002C4F20002044655
:100B9000904243F20000C4F201000CD0844214D110
:100BA00041F2180CC4F2020CDCF8003043F480531C
:100BB000CCF8003009E041F2180CC4F2020CDCF869
:100BC000043043F48043CCF804302388944223F06B
:100BD0000203238023882380238823F001032380BA
:100BE00023882380238823F004032380238843EA77
:100BF0008101218006D0844208D1018841F0100192
:100C0000018003E0108840F008001080208820F464
:100C100000702080208840F400702080208840F4FC
:100C200080702080208820F0800020802088208014
:100C30002046FFF76BFF208840F04000208010BD69
:100C4000B0B5002A42D0541E00F10803032C02F074
:100C5000030C5DD20022BCF1000F37D01C88A40722
:100C600009D41C88A4075CBF1C885FEA847402D482
:100C70001C88A407F2D58C5CBCF1010F848125D0BF
:100C800002F1010E1C88A40709D41C88A4075CBFCC
:100C90001C885FEA847402D41C88A407F2D511F87A
:100CA0000E40BCF1020F848110D002321C88A407D0
:100CB00009D41C88A4075CBF1C885FEA847402D432
:100CC0001C88A407F2D5895C818100BF018989074E
:100CD0000AD4018989075CBF01895FEA817103D465
:100CE00001898907F2D500BF0189090609D5018963
:100CF000090644BF01895FEA016102D5018909063D
:100D0000F2D443F20800C4F2010081880088B0BD2B
:100D100002F0FC0E002204E00C5D04327245848176
:100D200099D01C88A40706D41C88A4075CBF1C8823
:100D30005FEA847434D58C5C848142F001041D88A0
:100D4000AD0709D41D88AD075CBF1D885FEA8575B6
:100D500002D41D88AD07F2D50C5D848142F00204F7
:100D60001D88AD070AD41D88AD075CBF1D885FEAEA
:100D7000857503D41D88AD07F2D500BF0C5D848155
:100D800042F003041D88AD07C6D41D88AD075CBFC3
:100D90001D885FEA8575BFD41D88AD07F2D5BBE716
:100DA0001C88A407BDD5C6E782B041F20400C4F296
:100DB000020050F8041C002241F0010140F8041C1C
:100DC0000168CFF6FF021140016050F8041C4FF695
:100DD000FF72CFF6F662114040F8041C50F8041C74
:100DE00021F4802140F8041C016821F4FE01016017
:100DF0004FF41F01416000210191009150F8041C43
:100E000041F4803140F8041C50F8041C01F4003116
:100E10000091019901310191009919B90199B1F538
:100E2000A06FF1D150F8041C890354BF00210121A7
:100E300000910099012953D142F20001C4F202014C
:100E40000A6842F010020A600A6822F007020A608B
:100E50000A6842F002020A600168016001680160EC
:100E6000016841F480610160016821F47C11016036
:100E7000016841F4E811016050F8041C41F08071F0
:100E800040F8041C50F8041C89010CD450F8041CD0
:100E900089015CBF50F8041C5FEA811103D450F84B
:100EA000041C8901EED5016821F00301016001688D
:100EB00041F00201016000BF016801F00C01082946
:100EC0000ED0016801F00C01082909D0016801F079
:100ED0000C01082904D0016801F00C010829EBD1AC
:100EE0004EF60850CEF200004FF00061016002B0F3
:100EF0007047000080B542F61040C4F2010001883E
:100F0000C90708BF80BD40F26C0EC2F2000EBEF8E9
:100F10000020013293B2C82BAEF800202FD340F24C
:100F20006402C2F20002126840F26E0CD31702EBA8
:100F30009372C2F2000C9210BCF8003091B2994248
:100F400040F27001C2F200010A8005D240F26A014B
:100F5000C2F200010B8807E0D11A01EB810340F2D5
:100F60006A01C2F200010B80590040F26803C2F22C
:100F7000000319800021ACF80020AEF800100188B1
:100F800021F00101018080BD40F2FF71C4F2000137
:100F9000884211DCB0F1804F26D040F20041C4F20B
:100FA0000001884231D141F21C00C4F20200016804
:100FB00041F002010160704740F60001C4F20001F7
:100FC00088421AD042F60041C4F20101884218BF9B
:100FD000704741F21C00C4F2020050F8041C41F4B6
:100FE000006140F8041C704741F21C00C4F202008A
:100FF000016841F001010160704741F21C00C4F238
:101000000200016841F0040101607047018C41F069
:1010100001010184018C41F010010184018841F03B
:10102000010101807047000040F2FF72C4F200022B
:10103000904211DCB0F1804F25D040F20042C4F262
:101040000002904230D141F21C02C4F20202136845
:1010500043F00203136027E040F60002C4F20002EE
:10106000904219D042F60042C4F2010290421BD1D4
:1010700041F21C02C4F2020252F8043C43F4006341
:1010800042F8043C10E041F21C02C4F20202136870
:1010900043F00103136007E041F21C02C4F20202B4
:1010A000136843F004031360028922F007020281EF
:1010B000028911430181018C21F002010184018C1C
:1010C0000184018C21F020010184018C0184018BB9
:1010D00021F003010183018B41F001010183018BA8
:1010E00021F440710183018B41F4807101837047C9
:1010F000B0B540F2FF74C4F20004A04240F26004B4
:10110000C2F20004206011DCB0F1804F25D040F223
:101110000044C4F20004A04232D141F21C0CC4F2DB
:10112000020CDCF8004044F0020427E040F6000422
:10113000C4F20004A04219D042F60044C4F20104F3
:10114000A0421DD141F21C0CC4F2020C5CF8044C0C
:1011500044F400644CF8044C12E041F21C0CC4F25C
:10116000020CDCF8004044F0010407E041F21C0CE2
:10117000C4F2020CDCF8004044F00404CCF8004057
:101180004C1E4FF68F7C032C48F6FF7E0AD804993C
:10119000DFE804F002182532013A02855A1E8285E2
:1011A000818607E0CAB2013A032A64D8DFE802F078
:1011B000020F1C2A00F118030CF16D020CF16E04F1
:1011C000012126E0013A02855A1E8285018700F13D
:1011D00018030EF5DA420CF15004022119E0013A2D
:1011E00002855A1E8285818700F11C030EF5DC44BE
:1011F0000CF16D0203210CE0013A02855A1E828532
:10120000A0F8401000F11C030EF5A0440EF5DA42E0
:1012100004211D882A401A801A881A80028922F027
:10122000070202810289028100F120021388C9B2FB
:1012300023401380138801390329138088BFB0BD70
:10124000DFE801F00205070A1830042108E0183031
:1012500003E01C30042103E01C300C2148F6FF7C25
:10126000028802EA0C0202800622038802FA01F1D7
:1012700019430180B0BD00F108020CF16904D5E703
:1012800040F26002C2F2000212680139B2F814C0E2
:10129000CBB2032B4CF00103938209D841F27C526C
:1012A00049B2C0F6000232F81110028C11430184D9
:1012B000018841F00101018070470000F0B500286D
:1012C00043D041F21C022421C4F20202C4F2000104
:1012D0004FF6FE7E012800F0010C37D1BCF1000F63
:1012E00033D0106840F0010010604720A1F808E0FA
:1012F00088804FF08040028842F00102028031F87D
:10130000140CC0070CD131F8140CC00704BF31F81D
:10131000140C5FEAC07003D131F8140CC007EED092
:101320000020088009E000BF0888C0087C2888BF2A
:10133000F0BD0888B0F57A7F07D20888C0087C28FD
:1013400003D80888C0087C28EED9F0BD20F0010041
:10135000002347244FF08045002603E00236B7B251
:101360008742BBD0176847F001071760A1F808E073
:101370008C802F8847F001072F8031F8147CFF07FD
:101380000CD131F8147CFF0704BF31F8147C5FEAFC
:10139000C77703D131F8147CFF07EED00B8000BF74
:1013A0000F88FF087C2F0BD80F88FF087C2F07D8E9
:1013B0000F88FF087C2F03D80F88B7F57A7FEFD30B
:1013C000176847F001071760A1F808E08C802F88A4
:1013D00047F001072F8031F8147CFF070CD131F85A
:1013E000147CFF0704BF31F8147C5FEAC77703D190
:1013F00031F8147CFF07EED00B8000BF0F88FF0888
:101400007C2FABD80F88FF087C2FA7D80F88FF0848
:101410007C2FA3D80F88B7F57A7FEFD39EE7000023
:10142000B0B54FF0000C072940F6000E88BF4FF012
:10143000010C0128C4F2010E07D0032807D00228AE
:1014400011D10EF5806E082004E0042002E00EF5B4
:10145000006E102041F21804C4F2020425682843EB
:1014600020600EEB8C00072988BF083989B28900FB
:101470000F2504688D4024EA050505608A40023185
:1014800003FA01F10368114319430160B0BD000084
:1014900084B0FFF789FC42F60044C4F20104204600
:1014A000FFF772FD4720208540F2E730A085A08934
:1014B0004FF0007140F00100A0814EF20010CEF21A
:1014C000000001604EF21940CEF2000020210170B0
:1014D0002088012140F00100208004F58060FFF7A2
:1014E00051FB0A2007210022FFF7A2FA0320002166
:1014F0000222FEF799FE40F20044C4F200043225B5
:1015000020460321482264230095FFF7F1FD204681
:101510000321FFF7B5FE04F5806420460321FFF7A1
:1015200083FD2046FFF772FD0120FFF761F82820B8
:10153000FFF7C4FE0DF10F0138200122FFF7A6F8D6
:101540009DF80F0000070AD440F6BE00029002A9E1
:1015500038200322FFF712F90A20FFF7AFFE40F60A
:10156000240440F26405C4F20004C2F2000500BF86
:10157000208828606420FFF7A1FEF9E70100100031
:1015800000010010941500080000002078060000FB
:041590002801000826
:040000050800016D81
:00000001FF
